:020000040000FA
:10000000700800206D0200008102000083020000E1
:10001000850200008502000085020000000000004B
:100020000000000000000000000000008502000049
:10003000850200000000000085020000850200002B
:100040008502000085020000850200008502000094
:100050008502000085020000850200008502000084
:100060008502000085020000850200008502000074
:100070008502000085020000850200008502000064
:100080008502000085020000850200008502000054
:100090008502000085020000850200008502000044
:1000A0008502000085020000850200008502000034
:1000B0008502000085020000850200008502000024
:1000C0008502000085020000850200008502000014
:1000D0008502000085020000850200008502000004
:1000E000850200008502000000000000850200007B
:1000F00085020000850200008502000085020000E4
:1001000085020000850200008502000085020000D3
:1001100000000000000000008502000085020000D1
:1001200085020000850200008502000085020000B3
:1001300085020000850200008502000085020000A3
:1001400000000000000000000000000000000000AF
:100150008502000085020000850200008502000083
:10016000000000000000000000000000000000008F
:10017000000000000000000000000000000000007F
:10018000000000000000000000000000000000006F
:10019000000000000000000000000000000000005F
:1001A000000000000000000000000000000000004F
:1001B0008502000085020000850200008502000023
:1001C0008502000085020000850200008502000013
:1001D0008502000085020000850200008502000003
:1001E000850200008502000085020000000000007A
:1001F000000000008502000085020000850200006A
:1002000085020000850200000000000000000000E0
:1002100085020000850200008502000085020000C2
:1002200085020000850200008502000085020000B2
:1002300085020000850200008502000085020000A2
:100240008502000085020000850200008502000092
:100250008502000085020000850200008502000082
:100260008502000085020000850200004EF68850DD
:10027000CEF20000016841F47001016000F004B8A2
:10028000FEE7FEE7FEE70000DFF80CD003F07AF9A6
:1002900000480047272E000070080020EFF3108070
:1002A00072B67047EFF310807047EFF3108062B6BC
:1002B000704730BF704780F311887047EFF31180AB
:1002C000704700000138FDD17047000030B502468C
:1002D000F84B1824F8480068F84D2840F84DA8421B
:1002E00001D1F84B00BF002108E053F831009042E3
:1002F00003D103EBC100406830BD491CA142F4D3D7
:100300000020F9E702F001031BB1D0F800340B43E1
:1003100002E0D0F800348B43C0F8003402F002034E
:100320001BB1D0F820340B4302E0D0F820348B43CB
:10033000C0F82034704730B5024601208840C1B271
:10034000D2F80034D2F8204403EA010008B10120B9
:1003500000E0002004EA01050DB1022500E00025BF
:10036000284330BD02F001031BB1D0F808340B4321
:1003700002E0D0F808348B43C0F8083402F00203DE
:100380001BB1D0F804340B4302E0D0F804348B43A3
:10039000C0F8043402F004031BB1D0F80C340B4352
:1003A00002E0D0F80C348B43C0F80C3402F48033F4
:1003B00023B1D0F8383543F0010303E0D0F83835E5
:1003C00023F00103C0F838357047F0B5024601202C
:1003D0008840C1B2D2F80834D2F80444D2F80C6490
:1003E000D2F8385503EA010008B1012000E00020EE
:1003F00004EA01070FB1022700E00027384306EAAC
:1004000001070FB1042700E00027384305F001077A
:10041000384310B14FF48030F0BD0020FCE7F0B558
:1004200002F001051DB1D0F800550D4302E0D0F8EF
:1004300000558D43C0F8005502F002051DB1D0F8FB
:1004400004550D4302E0D0F804558D43C0F804551F
:1004500002F004051DB1D0F808550D4302E0D0F8B4
:1004600008558D43C0F8085502F008051DB1D0F8B5
:1004700018550D4302E0D0F818558D43C0F81855B3
:1004800002F010051DB1D0F83C550D4302E0D0F844
:100490003C558D43C0F83C55002416E00125A5408D
:1004A0000D4085B1D0F8C45F67000326BE40B54358
:1004B000C0F8C45FD0F8C45F6700C2F34116BE4005
:1004C0003543C0F8C45F651CECB2082CE6DB03F0D2
:1004D00001051DB1D0F80C550D4302E0D0F80C55C4
:1004E0008D43C0F80C5503F002051DB1D0F810552E
:1004F0000D4302E0D0F810558D43C0F8105503F0BD
:1005000004051DB1D0F814550D4302E0D0F8145580
:100510008D43C0F8145503F008051DB1D0F81C55E3
:100520000D4302E0D0F81C558D43C0F81C5503F470
:1005300000751DB1D0F844550D4302E0D0F8445584
:100540008D43C0F8445503F440751DB1D0F84055B3
:100550000D4302E0D0F840558D43C0F840551BB91B
:10056000D0F828550D4302E0D0F828558D43C0F847
:100570002855F0BDF0B514461D4601268E40F1B257
:10058000D0F800650E400EB1012600E0002632468C
:10059000D0F804650E400EB1022600E0002632437A
:1005A000D0F808650E400EB1042600E00026324364
:1005B000D0F818650E400EB1082600E00026324340
:1005C000D0F83C650E400EB1102600E00026324304
:1005D000D0F8C46F4F00FE4006F0030642EA461210
:1005E0002260D0F80C650E400EB1012600E0002616
:1005F0003346D0F810650E400EB1022600E000260A
:100600003343D0F814650E400EB1042600E00026F6
:100610003343D0F81C650E400EB1082600E00026DA
:100620003343D0F840650E404EB1D0F844650E40DB
:1006300016B14FF4007601E04FF4807633432B601F
:10064000F0BDD0F810240A43C0F810247047D0F849
:1006500010248A43C0F810247047024611B1D2F822
:1006600018047047D2F81404FBE7C0F81C14704754
:1006700070B504460D462046FFF728FE064629467B
:10068000304600F031FA304600F08AFA70BD70B59D
:1006900004462046FFF71AFE0546284600F0BCFA3D
:1006A000284600F03BFA70BD0246002000EB8100B6
:1006B000105870472446000000E00F400000FF7013
:1006C00000000A10E4460000002303EB8103C2503F
:1006D000704730B504460D46002229462046FFF7F4
:1006E00011FE0023012229462046FFF798FE30BD67
:1006F00030B504460D46022229462046FFF702FE89
:100700000823042229462046FFF789FE30BD30B574
:1007100004460D46002229462046FFF7F3FD00233C
:10072000012229462046FFF77AFE30BD30B5044647
:100730000D46022229462046FFF7E4FD0823042245
:1007400029462046FFF76BFE30BD30B504460D4606
:10075000022229462046FFF7D5FD08230422294618
:100760002046FFF75CFE30BD30B504460D46022240
:1007700029462046FFF7C6FD0823042229462046C5
:10078000FFF74DFE30BD30B504460D460222294626
:100790002046FFF7B7FD0823012229462046FFF730
:1007A0003EFE30BD30B504460D46002229462046A7
:1007B000FFF7A8FD0823012229462046FFF72FFE58
:1007C00030BD30B504460D46082301222946204697
:1007D000FFF725FE012229462046FFF793FD30BD95
:1007E00030B504460D460923012229462046FFF76D
:1007F00016FE012229462046FFF784FD30BD30B5A4
:1008000004460D46022229462046FFF77BFD0923B8
:10081000012229462046FFF702FE30BD30B50446CE
:100820000D46022229462046FFF76CFD08230122CF
:1008300029462046FFF7F3FD30BD30B504460D468E
:10084000022229462046FFF75DFD0823042229469F
:100850002046FFF7E4FD30BD30B504460D460222C8
:1008600029462046FFF74EFD08230422294620464C
:10087000FFF7D5FD30BD30B504460D4600222946B0
:100880002046FFF73FFD0023012229462046FFF7BF
:10089000C6FD30BD30B504460D460222294620462D
:1008A000FFF730FD0823012229462046FFF7B7FD58
:1008B00030BD30B504460D46022229462046FFF7DA
:1008C00021FD0823012229462046FFF7A8FD30BD5F
:1008D00030B504460D46022229462046FFF712FD98
:1008E0000A23012229462046FFF799FD30BD30B585
:1008F00004460D46022229462046FFF703FD082341
:10090000012229462046FFF78AFD30BD30B5044656
:100910000D46022229462046FFF7F4FC0823012257
:1009200029462046FFF77BFD30BD30B504460D4615
:10093000022229462046FFF7E5FC0823012229462A
:100940002046FFF76CFD30BD30B504460D46002251
:1009500029462046FFF7D6FC0023012229462046DF
:10096000FFF75DFD30BD30B504460D460222294635
:100970002046FFF7C7FC0823012229462046FFF73F
:100980004EFD30BD30B504460D46002229462046B6
:10099000FFF7B8FC4FF40273012229462046FFF707
:1009A0003EFD30BD30B504460D46002229462046A6
:1009B000FFF7A8FC4FF48473012229462046FFF775
:1009C0002EFD30BD30B504460D4602222946204694
:1009D000FFF798FC0823012229462046FFF71FFD58
:1009E00030BD30B504460D46022229462046FFF7A9
:1009F00089FC0A23012229462046FFF710FD30BD5D
:100A000030B504460D46022229462046FFF77AFCFF
:100A10000823042229462046FFF701FD30BD30B5EA
:100A200004460D46022229462046FFF76BFC0823A8
:100A3000012229462046FFF7F2FC30BD014601F5B0
:100A4000A960704710B50146C1F307401B4BDB6E30
:100A500001248440234033B1012303EB4003184CAD
:100A600054F8230003E04300154C54F82300C1F36D
:100A70000722D0F82C350F249440A34301F00F0433
:100A800094402343C0F82C3510BDD0F834250A43D8
:100A9000C0F834257047D0F834258A43C0F834258F
:100AA0007047D0F830250A43C0F830257047D0F899
:100AB00030258A43C0F830257047000000E00F4021
:100AC000A447000000BFFEE710B5FFF7EEFB08B13A
:100AD000012010BD0020FCE710B5FFF7DFFB08B1D7
:100AE000012010BD0020FCE730B50246B64C24685A
:100AF000B64DAC420ED0B44C2368002005E053F84C
:100B00002040B24D45F82040401C9B28F7D3AF4C05
:100B1000AD4D2C60AD4C44F8221030BDAC49AB4A11
:100B200042F820107047AB4951F82010AA4A1143EF
:100B3000A54A121D11607047A34A121D126802F4E3
:100B4000E061002006E0A34A52F820208A4200D14A
:100B500002E0401C0828F6D300BF704710B50A46D3
:100B600083089E4C54F8233019688307DC0EFF235A
:100B7000A34099438307DB0E02FA03F3194383086A
:100B8000964C54F82330196010BD01468808934AEA
:100B900052F8200000688A07D20ED040C0B27047D9
:100BA000042808D188491C31096841F48031864AFB
:100BB0001C3211602FE0052808D183491C310968D7
:100BC00041F40031804A1C32116024E0062808D12B
:100BD0007D491C31096841F480217B4A1C32116037
:100BE00019E00F2808D14FF0E021096941F0020116
:100BF0004FF0E02211610EE010280CD3A0F110019B
:100C000001F01F0201219140A0F110025209744B22
:100C100053F8222011607047042808D16A491C311A
:100C2000096821F48031684A1C3211602FE00528E0
:100C300008D165491C31096821F40031624A1C322F
:100C4000116024E0062808D15F491C31096821F4AD
:100C500080215D4A1C32116019E00F2808D14FF045
:100C6000E021096921F002014FF0E02211610EE05C
:100C700010280CD3A0F1100101F01F0201219140B6
:100C8000A0F110025209574B53F82220116070470F
:100C900010B501460020042905D14B4A1C321268C8
:100CA00002F4803028E0052905D1474A1C32126839
:100CB00002F4003020E0062905D1434A1C321268B4
:100CC00002F4802018E00F2905D14FF0E0221269CC
:100CD00002F0020010E010290ED3A1F11002520917
:100CE0003F4B53F822201268A1F1100303F01F04B8
:100CF0000123A34002EA030010BD022808D13249B3
:100D0000091F096841F000412F4A121F116024E0B9
:100D10000E2808D12C49091F096841F080512A4A40
:100D2000121F116019E00F2808D12749091F09680F
:100D300041F08061244A121F11600EE010280CD38C
:100D4000A0F1100101F01F0201219140A0F1100259
:100D50005209254B53F82220116070470E2808D104
:100D60001949091F096841F00061174A121F1160F3
:100D700019E00F2808D11449091F096841F00071D2
:100D8000114A121F11600EE010280CD3A0F11001BF
:100D900001F01F0201219140A0F110025209134BF2
:100DA00053F822201160704710B504462046FFF723
:100DB00082FA10BD10B5FFF781FA10BDA0F1100145
:100DC0000B4A11607047000008ED00E000000020B1
:100DD000C50A0000344800000000FA05544800002D
:100DE000F048000004490000184900002C490000A8
:100DF00000EF00E0024600210AE0F74850F8310019
:100E0000904204D3F44800EBC10040687047491C8D
:100E10000729F2D30020F9E7F0B50146DFF8BCC39B
:100E2000DCF860C1CCF38923DFF8B0C3DCF860C123
:100E3000CCF30905DFF8A4C3DCF864C1CCF3042CBF
:100E40000CF10106DFF894C3DCF864C10CF01F0C50
:100E50000CF10107B1FBF7F15A09A3EB421401FBB6
:100E600005F001FB02FC00EB5C1001FB04FC00EB55
:100E70009C20B0FBF6F0F0BDD8483C380068401C20
:100E800000027047D5480068D5490840D5498842D6
:100E900006D1D24880680004400900F50060704720
:100EA000CE484038006880B2401CC002F7E7CB480B
:100EB0000068CB490840CC49884209D1C74840382E
:100EC0000068C0F302400A30012101FA00F07047C7
:100ED0004FF48060FBE70146C1F30720C34A10448A
:100EE00000F0704040F00070C1F30722BF4B1A447D
:100EF000C2F3130240EA4210CAB240EA820000681C
:100F000008B1012070470020FCE70146C1F307202B
:100F1000B74A104400F0704040F00070C1F307225F
:100F2000B34B1A44C2F3130240EA4210CAB240EA79
:100F30008200006808B1012070470020FCE710B56E
:100F40000121C0F30722AB4B1A4402F0704242F079
:100F50000072C0F30723A74C2344C3F3130342EAF0
:100F60004312C3B242EA8302116010BD10B50021E2
:100F7000C0F307229F4B1A4402F0704242F0007205
:100F8000C0F307239B4C2344C3F3130342EA4312E9
:100F9000C3B242EA8302116010BD18B50121C0F34B
:100FA0000722954B1A4402F0704242F00072C0F3DF
:100FB0000723914C2344C3F3130342EA4312C3B201
:100FC00042EA830211600021009102E00099491C6D
:100FD000009100991029F9D30021C0F30722864B14
:100FE0001A4402F0704242F00072C0F30723824CB0
:100FF0002344C3F3130342EA4312C3B242EA830217
:10100000116018BD10B50121C0F307227B4B1A44B3
:1010100002F0704242F00072C0F30723774C234481
:10102000C3F3130342EA4312C3B242EA83021160DC
:1010300010BD10B50021C0F30722704B1A4402F016
:10104000704242F00072C0F307236C4C2344C3F398
:10105000130342EA4312C3B242EA8302116010BD95
:1010600010B50121C0F30722654B1A4402F070420B
:1010700042F00072C0F30723614C2344C3F313030F
:1010800042EA4312C3B242EA8302116010BD10B5B6
:101090000021C0F307225A4B1A4402F0704242F07A
:1010A0000072C0F30723564C2344C3F3130342EAF0
:1010B0004312C3B242EA8302116010BD10B5012190
:1010C000C0F307224F4B1A4402F0704242F0007204
:1010D000C0F307234B4C2344C3F3130342EA4312E8
:1010E000C3B242EA8302116010BD10B50021C0F303
:1010F0000722444B1A4402F0704242F00072C0F3DF
:101100000723404C2344C3F3130342EA4312C3B200
:1011100042EA8302116010BD30490968304A11402B
:10112000304A91420ED130B12C49096E41F0006134
:101130002A4A116618E02949096E21F00061274A00
:10114000116611E040B12549B031096841F0005104
:10115000224AC2F8B01007E02049B031096821F0F6
:1011600000511E4AC2F8B010704710B5044621461F
:101170002C20FFF7B9FC2C20FFF712FD10BD10B595
:101180002C20FFF749FD2C20FFF7C8FC10BD1349A8
:10119000496D0143114A516570471049496D8143BA
:1011A0000E4A516570470D4988657047014611B177
:1011B0000A48806D70470948006DFBE712490860D6
:1011C00070471148006870470F4908310860704740
:1011D0000D48083000687047CC4A000000E00F401E
:1011E0000000FF700000051000000A1000E30F402F
:1011F00000EA0F4000E90F4000E50F4000E60F4015
:1012000000E70F4000E80F40B4E10F40FE490860DE
:101210007047FD49091D08607047FC48FC4908609B
:1012200000BFFEE710B5FFF744F810BD10B5F84851
:10123000001D006840F00400F549091D0860FFF733
:1012400038F8F348001D006820F00400F049091D3B
:10125000086010BDEF48C06D7047EE49C96D81430D
:10126000EC4AD1657047EB49C86770470146EA48C8
:10127000084050B101F00040E34A383A1060E648B7
:1012800081380840E34AC2F85001DF48383801602D
:1012900001F4007088B100BFDB483438006800F406
:1012A00040700028F8D0D8483438006800F4407006
:1012B000B0F5807F01D0002070470120FCE7D249C3
:1012C000503108607047D0485030006870472DE9B1
:1012D000FE4F05468A46CF480068D0490840D049AD
:1012E000884202D10020BDE8FE8FC5F3841605F0C8
:1012F0003800102805D1DFF82C93002700BF1526F1
:1013000033E005F03800302804D147F230594FF46B
:1013100000172AE005F03800382804D14FF40049BE
:101320004FF4800721E005F03800D8B91A2E01DC0F
:10133000092E01DA0020D6E7BB4850F826904FF47A
:10134000401747F04077B348C06F20F01C00019071
:10135000072E03DB019840F010000190AD49019881
:10136000C86702E04FF00009002705F4605000282C
:101370007ED105F0380028B105F03800102801D0E2
:101380000020B0E7C5F3026BA848FFF733FDA14981
:10139000C03108609F48D0F8B000A54900EA0104B8
:1013A00044F000449B48B0300460093E0BEBCB0096
:1013B000A04901EB001000EBC60040689549D1F848
:1013C000641188420DD10BEBCB009A4901EB001060
:1013D00050F8360040F400008B49283909688842EB
:1013E00002D00120009001E000200090009808B396
:1013F0008848B030006838438649C1F8B0000BEB2C
:10140000CB008C4901EB001000EBC60040687E4920
:10141000243908600BEBCB00864901EB001050F833
:10142000360079492839096801F4000108437649F2
:1014300028390860804850F82B005044401EB0FB0B
:10144000FAF84846FFF7E8FCB0FBF8FA5046FFF719
:10145000D1FC7049C03108606E48D0F8600100F4DA
:10146000000068B10098012812D16A48B03000E04D
:1014700034E0006840F080406649C1F8B00007E001
:1014800061482838006840F400006249C1F86001F2
:101490004FF40040029009E05B482038006800F0FB
:1014A000010000B105E00298401E02900298002859
:1014B000F2DC00BF029870B15648B0300468A8F161
:1014C0000100384340F08050044344F00044514848
:1014D000C0F8B0403CE04FF0000A39E05148FFF757
:1014E00089FC4C49C03108604A48D0F8600120F4BA
:1014F00000004849C1F860010846D0F8B0404F48A4
:10150000044044F000444348B0300460BAF1000F96
:1015100002D14FF000080AE0B9FBFAF8B8F1000F69
:1015200001D0A8F1010808F10100B9FBF0FA50461A
:10153000FFF760FC3749C03108603648D0F8B0404A
:1015400047EA8820044344F000443248B030046045
:101550005046C8E62DE9F04106462E48056E046F58
:1015600045F4006525F4800544F4006405660467CD
:1015700005F0010010B306F00100F8B966F00100B3
:1015800005402448056604F0004038B104F07000BE
:1015900030280AD004F07000702806D004F0004013
:1015A00040B905F03000302804D14FF48050FEF7E8
:1015B00089FE03E04FF40020FEF784FE25F4FE656B
:1015C00006F4FE6005431E4804401D49A13106EAA9
:1015D0000100044306F0080044EAC0040D48056613
:1015E00004671020FEF76EFE25F4005506F4005047
:1015F000054324F4005406F40050044340200549F8
:10160000886504F000401DE088E10F400400FA0501
:101610000CED00E000E00F40000100800000FF70D2
:10162000000005100024F4004049000040787D01CE
:1016300000FC0FE0AC490000044B0000FF0300EF8A
:101640008FFFFF7F18B108460467056602E0B548C2
:1016500005660467B4480540C14306EA0100054336
:1016600024F0FC5406F0FC50044306F0804040B1E6
:1016700045F4800524F48004AC4906EA01000443E3
:1016800001E024F0804406F4006080B94FF4004784
:1016900006E0A448006D00F0400000B102E07F1EAB
:1016A000002FF6D100BF25F4006524F400649D48A6
:1016B000056604671020FEF705FEBDE8F08170B5F1
:1016C0009848036E016F01F0004010B101F0700006
:1016D00001E003F03000202811D003DC38B11028DD
:1016E00015D10AE030280CD0702810D10CE09048B9
:1016F000C3F3841650F826200BE08E4A09E08E4A88
:1017000007E047F2305204E04FF4004201E00020CD
:1017100070BD00BF01F0004010B101F4006028B1BD
:1017200001F00040E0B903F40060C8B983480568DF
:101730007C48D0F8644104F01F00401CC4F3042628
:10174000761C10FB06F04000B2FBF0F2C5F3090076
:101750005043C5F38926564300EB962243F4800399
:1017600003F4800018B301F00040D8B101F08040CC
:1017700090B101F0004010B101F4006028B101F017
:10178000004048B903F4006030B95600C1F38650F8
:10179000401CB6FBF0F20AE0C1F3C550401CB2FB9E
:1017A000F0F204E0C3F3C350401CB2FBF0F2104669
:1017B000AEE762491C39086070472DE9F0410746E1
:1017C0000D46584800685E4908405E49884208D185
:1017D00025F0FC51781E41EAC05058491C39086078
:1017E0002FE07C1E05F0700030B1102813D0302897
:1017F00006D070280ED108E044F44014524E0CE09C
:1018000044F4001447F2305607E044F480044FF4E7
:10181000004602E000BF474E00BF00BF05F00200D7
:1018200008B144F0004405F0804008B144F0804421
:1018300042481C3804603046FFF7DCFA3949C1F8E9
:10184000C800BDE8F0813749096E21F4F011014369
:10185000344A116670473348006E00F4801008B9AE
:10186000002070472F48006E00F4F010F9E733496C
:101870006039096821F4706101432A4AC2F80011F5
:101880002E495039096821F470610143C2F81011E2
:1018900070472A486038006800F47060704721493A
:1018A000C96E00F00F0301229A4011431D4AD16610
:1018B00070471C49C96E00F00F0301229A40914302
:1018C000184AD16670471748006F20F480401549C8
:1018D000086770471348006F40F48040114908675B
:1018E00070471049886370470E48006E70470D4975
:1018F000096E01430B4A116670470A48406E7047F3
:101900000849496E8143074A516670474A1ED2B260
:1019100002430A4B183B1A6070470849283908608F
:101920007047000000E00F40FEFF3FF8000040401D
:10193000404900000024F40000093D0060E10F4030
:101940000000FF700000051040787D0110B50B48C5
:10195000FFF758FB00BF0948FFF7D7FA0028FAD075
:1019600002210748FEF72DFF04210548FEF729FF55
:1019700008210348FEF725FF10BD0000050800F010
:101980000050024010B50446012C05D10122114639
:10199000F648FEF799FE04E000220121F348FEF725
:1019A00093FE10BD10B50446012C05D1022211464C
:1019B000EE48FEF789FE04E000220221EB48FEF724
:1019C00083FE10BD70B5002406E0002500E06D1C0C
:1019D000B5F57A7FFBD3641CB4F57A7FF5D3E44880
:1019E000FFF710FB0121E148FEF7EBFE0221DF4883
:1019F000FEF7E7FE0120FFF7C5FF0120FFF7D2FF4A
:101A000070BD10B50120FFF7CDFF0120FFF7BAFF31
:101A10000020FFF7C7FF0020FFF7B4FF10BD10B58F
:101A20000020FFF7BFFF0120FFF7ACFF0120FFF709
:101A3000B9FF10BD70B50546002411E08021214199
:101A4000294009B1012100E000210846FFF7AAFF63
:101A50000120FFF797FF0020FFF794FF601CC4B23E
:101A6000082CEBDB0120FFF78DFF0020FFF78AFF3A
:101A700070BD10B50446FFF7C4FF7820FFF7DAFF0A
:101A80000020FFF7D7FF2046FFF7D4FFFFF7C7FF7F
:101A900010BD70B505460E46FFF7B3FF7820FFF77F
:101AA000C9FF4020FFF7C6FF002404E0285DFFF7D0
:101AB000C1FF601CC4B2B442F8DBFFF7B0FF70BDD9
:101AC00070B505460C4645F0B000FFF7D2FF102177
:101AD00041EA1410FFF7CDFF04F00F00FFF7C9FF34
:101AE00070BD10B500240BE000212046FFF7E8FF91
:101AF000A04901EBC4108021FFF7CBFF601CC4B2EA
:101B0000082CF1DB10BD00200CE0002106E00022D3
:101B1000984B03EBC0135A544A1CD1B28029F6DB10
:101B2000421CD0B20828F0DB704710B5FFF74AFF1F
:101B3000AE20FFF79EFFD520FFF79BFF8020FFF729
:101B400098FFA820FFF795FF3F20FFF792FFD320D3
:101B5000FFF78FFF0020FFF78CFF4020FFF789FF82
:101B6000A120FFF786FFC820FFF783FFDA20FFF7E9
:101B700080FF1220FFF77DFF8120FFF77AFFCF2043
:101B8000FFF777FFD920FFF774FFF120FFF771FF10
:101B9000DB20FFF76EFF3020FFF76BFFA420FFF77D
:101BA00068FFA620FFF765FF8D20FFF762FF142076
:101BB000FFF75FFFAF20FFF75CFFFFF7A4FFFFF722
:101BC00090FF10BD10B50246012000E050430B1EEF
:101BD000A1F10101FAD110BD2DE9F04305460C46F3
:101BE0001F46079E4FF0000C00216B1E34E032F9B7
:101BF0001100B04201DD012000E0002032F9138025
:101C0000B04502DD4FF0010801E04FF0000840450B
:101C10001FD034F9130034F91180A0EB080032F919
:101C20001180A6EB080800FB08F032F9138032F9A6
:101C30001190A8EB090890FBF8F034F911804044AA
:101C4000B84206DDBCF1000F01D1012000E0002008
:101C500084460B46481C01B2A942C8DB0CF0FF00C9
:101C6000BDE8F0832DE9F0412DED0A8B80460F464B
:101C700014461D46404601F07AFA41EC1B0B3846EB
:101C800001F075FA41EC1C0BB0EE4B1AF0EE6B1A3A
:101C9000B0EE4C0AF0EE6C0A01F03AFEB0EE40AA4B
:101CA000F0EE60AA9FED340B53EC102B51EC1A0BA5
:101CB00001F0EEF941EC180B9FED310B53EC102BBA
:101CC00001F074F941EC190B01F06FFA06B2AC4265
:101CD00008DAA6420CDBAE420ADC0120BDEC0A8B1E
:101CE000BDE8F081A64201DAAE4201DC0120F5E751
:101CF0000020F3E72DE9F04706460D4617469846C3
:101D00002846E91705EB5171C9100FFA81F905EB67
:101D10000801481EC11700EB5171C910491C0FFA88
:101D200081FA002D07DAA9F101000FFA80F9AAF172
:101D300001000FFA80FA4C4614E0002E10DB7F2ED3
:101D40000EDC002C0CDB072C0ADCF1B2E0B2FFF752
:101D5000B7FE084901EBC41188193946FFF799FE0F
:101D6000601C04B25445E8DBBDE8F0870050004039
:101D7000010800F06C0200201F85EB51B81E0940DD
:101D800000000000008066402DE9F04304460D4647
:101D900016461F46284638E0224631E0002A2DDB51
:101DA0007F2A2BDC002829DB3F2827DC4FEAE07C58
:101DB00000EB5C7C4FEAEC0CDFF85C8408EBCC1C9D
:101DC0001CF802C003464FEAE07800EB58784FEA6F
:101DD000E808A0EBC8094FF0010808FA09F82CEA56
:101DE000080C01464FEAE07800EB58784FEAE80823
:101DF000DFF8249409EBC81808F802C0511C0AB295
:101E0000A1199142CADC411C08B2E9198142C3DC24
:101E1000BDE8F083002011E000210BE0FE4A02EB58
:101E2000C012525C82F0FF02FB4B03EBC0135A540A
:101E30004A1CD1B28029F1DB421CD0B20828EBDB6E
:101E400070472DE9F04304460D4616461F462846C6
:101E500038E0224631E0002A2DDB7F2A2BDC0028E7
:101E600029DB3F2827DC4FEAE07C00EB5C7C4FEA73
:101E7000EC0CDFF8A48308EBCC1C1CF802C0034672
:101E80004FEAE07800EB58784FEAE808A0EBC80981
:101E90004FF0010808FA09F88CEA080C01464FEAED
:101EA000E07800EB58784FEAE808DFF86C9309EB2C
:101EB000C81808F802C0511C0AB2A1199142CADC24
:101EC000411C08B2E9198142C3DCBDE8F0832DE969
:101ED000FF4F80460E469146DDF834B000250024C1
:101EE0004A4631464046039BFFF74EFF00BF5EE087
:101EF000002558E008EB0500002852DB08EB050040
:101F00007F284EDC3046F11706EB5171C9100FB235
:101F1000F11706EB5171C910A6EBC10A002E05DAC4
:101F2000781E07B20AF108000FFA80FA3819002863
:101F300017DB3819072814DC3819B74901EBC01032
:101F400008EB0501405C04FB09511BF8011001FA84
:101F50000AF108433919B04A02EBC11108EB050236
:101F600088543819401C00281BDB3819401C0728EE
:101F700017DC3819401CA84901EBC01008EB05011B
:101F8000405C04FB09511BF80110CAF10802114121
:101F900008433919491CA04A02EBC11108EB05029C
:101FA0008854681CC5B24D45A4DB601CC4B20399BB
:101FB000481EC11700EB5171012202EBE101A14261
:101FC00096DCBDE8FF8FF8B506460F4614461D4661
:101FD000082D0CD1A4F12000904901EB0010102332
:101FE0000822394600903046FFF771FF0FE0062DBA
:101FF0000DD1A4F1200000EB4000894901EB400025
:1020000008230622394600903046FFF760FFF8BDEE
:102010002DE9F0410646884615461F46002409E092
:102020002A5D04FB076108B23B464146FFF7CBFF40
:10203000601CC4B2285D0028F2D1BDE8F0812DE912
:10204000F0470646894617461D46DDF820800024E5
:1020500017E0281B411E0A20FFF7B4FDB7FBF0F084
:102060000A21B0FBF1F201FB120000F1300A04FB7F
:10207000086108B2434652464946FFF7A4FF601C78
:10208000C4B2AC42E5DBBDE8F0872DE9F04F8046F5
:102090008A4615461E46DDF82490002D07DB4B4688
:1020A0002B2251464046FFF78EFF2F4606E04B4657
:1020B0002D2251464046FFF786FF6F42002418E06C
:1020C000301B411E0A20FFF77DFDB7FBF0F00A210F
:1020D000B0FBF1F201FB120000F1300B611C01FBBF
:1020E000098108B24B465A465146FFF76CFF601C07
:1020F000C4B2B442E4DBBDE8F08F2DE9F0470646F8
:102100008A4691461F46DDF82080002421E0381BD6
:10211000411E1020FFF756FDB9FBF0F000F00F054F
:102120000A2D0ADA05F13001CAB204FB086108B2CF
:1021300043465146FFF747FF09E005F13701CAB2B0
:1021400004FB086108B243465146FFF73CFF601CA0
:10215000C4B2BC42DBDBBDE8F0872DE9F0470646A0
:10216000894617461D46DDF82080002414E0281B10
:10217000411E0220FFF726FDB7FBF0F000F0010042
:1021800000F1300A04FB086108B243465246494652
:10219000FFF719FF601CC4B2AC42E8DBBDE8F08772
:1021A0002DE9F04F2DED088B81B005468B46B0EE42
:1021B000408AF0EE608A16469A46129C9FED190BF3
:1021C00053EC102B51EC180B01F040F806D82346C5
:1021D0002B2259462846FFF7F6FE0BE023462D2218
:1021E00059462846FFF7EFFE51EC180B81F00041ED
:1021F00041EC180B51EC180B00F0F6FF80464046FE
:1022000000F0C6FF41EC190B53EC182B00F0CBFE8D
:1022100041EC180B514609E06C0200200C4B000009
:10222000FC50000000000000000000000A20FFF742
:10223000C9FC0746384600F0ABFF41EC1B0B53ECE2
:10224000182B00F0B3FE41EC1A0BB0EE4A0AF0EE88
:102250006A0A01F055FCB0EE409AF0EE609A51EC3B
:10226000190B00F0C1FF8146B9FBF7F08044291932
:1022700008B23346424659460094FFF7E0FE711C0F
:1022800001FB045108B223462E225946FFF79BFE5C
:10229000B11C01FB045108B253464A46594600940A
:1022A000FFF7CDFE01B0BDEC088BBDE8F08F2DE946
:1022B000FC478046894616460027002001900025ED
:1022C0003AE0705D01A9C855781CC7B2022F31DB16
:1022D000002700240CE0C4EBC40101EB8101FE4A9D
:1022E000881801A900F0ADFD00B90CE0601CC4B273
:1022F000C4EBC40101EB8101F74A8818F7A100F093
:10230000A0FD0028E7D100BFC4EBC40000EB8000B3
:10231000F1490844C01C05F1010A0AEBDA714910C1
:10232000491E08EB0111009008B210231A464946D5
:10233000FFF7CDFD681CC5B2705D0028C1D1BDE8B6
:10234000FC870FB470B5C2B005460E4614464AA8C5
:10235000019002A8019A499901F044F900200190E6
:10236000234602AA31462846FFF752FE42B070BC0F
:102370005DF814FB70B50346002B20DB7F2B1EDCC1
:1023800000291CDB3F291ADCCC1701EB5474E41044
:10239000D34D05EBC414E45C0A46CD1701EB55752B
:1023A000ED10A1EBC5060125B5402C430846CD171D
:1023B00001EB5575ED10CA4E06EBC515EC5470BD1A
:1023C00070B50246002A19DB7F2A17DC002915DBCD
:1023D0003F2913DCCC1701EB5474E410C04D05EB1E
:1023E000C414A45CCD1701EB5575ED10A1EBC50627
:1023F0000125B5402C400CB1012070BD0020FCE748
:102400002DE9FF4F86B0069E079CDDF82080DDF8A1
:1024100024900020019000904C450FD1464502DDEC
:10242000B2464646D046354605E021462846FFF7E7
:10243000A1FF681C05B24545F7DD99E046450FD17F
:102440004C4502DDA2464C46D146274605E03946BA
:102450003046FFF78FFF781C07B24F45F7DD87E066
:10246000464505DDB2464646D046A2464C46D146D4
:102470004C4507DD604204B2C9F100000FFA80F953
:1024800001200190A9EB0400A8EB0601884207DDBA
:10249000B24626465446C246C846D1460120009060
:1024A000A8EB060000B20590A9EB04000FFA80FB30
:1024B0004FEA4B0000B203900598ABEB00004000E0
:1024C00000B202900598C0EB4B0000B20490354674
:1024D0002746019838B1009828B1684201B23846C1
:1024E000FFF748FF12E0019828B1784201B2284670
:1024F000FFF740FF0AE0009820B129463846FFF771
:1025000039FF03E039462846FFF734FF2EE0681C08
:1025100005B20498002805DADDE90310084400B28A
:10252000049006E0781C07B202990498084400B2AF
:102530000490019838B1009828B1684201B2384639
:10254000FFF718FF12E0019828B1784201B228463F
:10255000FFF710FF0AE0009820B129463846FFF740
:1025600009FF03E039462846FFF704FF4545CEDB67
:102570000AB0BDE8F08F2DE9F04705460E46174634
:102580009846DDF820A0BAF1000F24D12C460CE0CB
:1025900031462046FFF7EEFE06EB0800401E01B272
:1025A0002046FFF7E7FE601C04B2E819A042EFDC0A
:1025B00034460BE021462846FFF7DCFEE919491EA8
:1025C00008B22146FFF7D6FE601C04B206EB0800F5
:1025D000A042EFDC14E02C460FE0B14607E049468C
:1025E0002046FFF7C7FE09F101000FFA80F906EB5C
:1025F00008004845F3DC601C04B2E819A042ECDC9A
:10260000BDE8F0872DE9FF4F87B014461D46DDE990
:102610001467DDF81C80DDF82090DDF81C80CDF813
:102620001880DDF82090CB46DDF81C80ADF80C80DA
:10263000ADF80E40ADF81060DDF82090ADF80490D4
:10264000ADF80650ADF80870169890B92B462246A2
:10265000DDE90701FFF7D4FE3B463246DDE907011D
:10266000FFF7CEFE3B46324629462046FFF7C8FE1E
:1026700040E0444500DAA046464500DAB0464D4504
:1026800000DAA9464F4500DAB9460698844200DDD3
:1026900006940698864200DD06965D4500DDAB4651
:1026A0005F4500DDBB46C24621E0CDF8149010E046
:1026B0000598534601AA03A900900320FFF78CFA5E
:1026C00018B150460599FFF755FE0598401C00B219
:1026D00005900598584505E03653000000000000BD
:1026E0006C020020E4DD0AF101000FFA80FA06987E
:1026F0008245DADD0BB0BDE8F08F2DE9F04F0746DB
:102700000E4691469A46C9F1010B00254C463219F6
:1027100011B27A1910B2FFF72DFE321B11B27A1BDB
:1027200010B2FFF727FE721911B23A1910B2FFF773
:1027300021FE721B11B23A1B10B2FFF71BFEBAF159
:10274000000F0FD060420FFA80F809E006EB080096
:1027500001B23846FFF70EFE08F101000FFA80F8CB
:10276000A045F3DB75E0681C05B2BBF1000F05DA8C
:102770006800401C58440FFA80FB07E0601E04B25A
:10278000281B4000401C58440FFA80FB321911B23C
:102790007A1910B2FFF7EEFD721911B23A1910B2A0
:1027A000FFF7E8FD321B11B27A1B10B2FFF7E2FD12
:1027B000721B11B23A1B10B2FFF7DCFD321B11B2D3
:1027C0007A1910B2FFF7D6FD721B11B23A1910B286
:1027D000FFF7D0FD321911B27A1B10B2FFF7CAFD14
:1027E000721911B23A1B10B2FFF7C4FDBAF1000F13
:1027F0002FD060420FFA80F811E006EB080211B208
:102800007A1910B2FFF7B6FD06EB080211B27A1B77
:1028100010B2FFF7AFFD08F101000FFA80F8A045F4
:10282000EBDB68420FFA80F811E006EB080211B208
:102830003A1B10B2FFF79EFD06EB080211B23A19DF
:1028400010B2FFF797FD08F101000FFA80F8A845D4
:10285000EBDBA54287DBBDE8F08F2DE9FF4F2DEDC7
:10286000108B87B007460E469B46DDF864A0D9461C
:1028700000254C46C9F1000000F079FC41EC1E0B2C
:102880009FEDFA0B53EC102B00F0E9FA41EC1C0B16
:102890000AFB0AF000F06BFC41EC1D0B53EC1C2B07
:1028A00000F084FB41EC1A0B09FB09F000F05FFC1F
:1028B00041EC1B0B53EC1A2B00F0D1FA41EC190B35
:1028C00000F0DCFC08EE900A2498A8B160420FFAF0
:1028D00080F80FE006EB080001B23846FFF74AFD2A
:1028E00006EB080001B23846FFF744FD08F101008D
:1028F0000FFA80F8A045EDDB321911B27A1910B247
:10290000FFF738FD321B11B27A1B10B2FFF732FD10
:10291000321911B27A1B10B2FFF72CFD321B11B223
:102920007A1910B2FFF726FD5CE0F5EEC08AF1EEF1
:1029300010FA0DD809FB09F06900C91C484300EEE4
:10294000100AB8EEC00A30EE280AF0EE408A15E010
:1029500009FB09F06900C91C48430AFB0AF162003F
:10296000C2F1020201FB020000EE100AB8EEC00A3A
:1029700030EE280AF0EE408A601E04B2681C05B2F0
:102980002498B8B160420FFA80F811E006EB080213
:1029900011B27A1910B2FFF7EDFC06EB080211B282
:1029A0007A1B10B2FFF7E6FC08F101000FFA80F87D
:1029B000A045EBDB321911B27A1910B2FFF7DAFC3D
:1029C000321B11B27A1B10B2FFF7D4FC321911B2CC
:1029D0007A1B10B2FFF7CEFC321B11B27A1910B27B
:1029E000FFF7C8FC204600F0C2FB41EC1D0B9FED39
:1029F0009F0B53EC102B00F0D3FA41EC1B0B0AFB9E
:102A00000AF000F0B4FB41EC1C0B53EC1B2B00F064
:102A1000CDFA41EC190B09FB09F16A1C01FB02F02C
:102A200000F0A5FB41EC1A0B53EC192B00F0F6FB60
:102A3000FFF47BAF0AFB0AF101FB09F101FB09F08E
:102A400000F095FB41EC1A0B0AFB0AF1621E5143A0
:102A500001FB02F000F08BFB41EC1B0B284600F061
:102A600086FB41EC1D0B9FED810B53EC102B00F00E
:102A7000F6F9CDE90001284600F079FB41EC1F0B87
:102A80009FED7A0B53EC102B00F0E9F941EC1D0B94
:102A900009FB09F000F06BFB41EC1E0B53EC1D2B06
:102AA00000F084FA41EC1C0B9DED000B53EC102B55
:102AB00000F07CFA53EC1B2BCDE902019DED020BDB
:102AC00051EC100B00F0CBF953EC1A2BCDE90401BB
:102AD0009DED040B51EC100B00F062FA41EC190B68
:102AE00000F0CCFB08EE100A5DE0B5EEC08AF1EE16
:102AF00010FA16D809FB09F06900891C41430AFB4A
:102B00000AF06200C2F1030200FB021000EE100A9C
:102B1000B8EEC00A30EE080AB0EE408A681C05B272
:102B20000DE00AFB0AF06100C1F10301484300EE29
:102B3000100AB8EEC00A30EE080AB0EE408A601EF5
:102B400004B22498B8B160420FFA80F811E006EBA5
:102B5000080211B27A1910B2FFF70CFC06EB08025A
:102B600011B27A1B10B2FFF705FC08F101000FFA51
:102B700080F8A045EBDB321911B27A1910B2FFF7D9
:102B8000F9FB321B11B27A1B10B2FFF7F3FB3219BB
:102B900011B27A1B10B2FFF7EDFB321B11B27A199A
:102BA00010B2FFF7E7FB002C9FDC07B0BDEC108BE9
:102BB000BDE8FF8F2DE9F05F07460E4691469B4624
:102BC000C9F1010A00254C465A46214628460A9B6F
:102BD000FFF748F828B1321911B27A1910B2FFF78D
:102BE000C9FB5A46604201B2684200B20A9BFFF735
:102BF00039F828B1321B11B27A1B10B2FFF7BAFBB9
:102C00005A46294620460A9BFFF72CF828B172192C
:102C100011B23A1910B2FFF7ADFB5A46684201B241
:102C2000604200B20A9BFFF71DF828B1721B11B277
:102C30003A1B10B2FFF79EFB0B98B0B160420FFA3F
:102C400080F810E05A46414600200A9BFFF70AF838
:102C500028B106EB080001B23846FFF78BFB08F1FC
:102C600001000FFA80F8A045ECDBD7E0000000007F
:102C70000000E03F681C05B2BAF1000F05DA6800F9
:102C8000401C50440FFA80FA07E0601E04B2281B73
:102C90004000401C50440FFA80FA5A46214628460C
:102CA0000A9BFEF7DFFF28B1321911B27A1910B270
:102CB000FFF760FB5A46294620460A9BFEF7D2FFE3
:102CC00028B1721911B23A1910B2FFF753FB5A46E4
:102CD000604201B2684200B20A9BFEF7C3FF28B10E
:102CE000321B11B27A1B10B2FFF744FB5A466842FE
:102CF00001B2604200B20A9BFEF7B4FF28B1721B1A
:102D000011B23A1B10B2FFF735FB5A46604201B2CE
:102D100028460A9BFEF7A6FF28B1321B11B27A198A
:102D200010B2FFF727FB5A46684201B220460A9BC1
:102D3000FEF798FF28B1721B11B23A1910B2FFF7D3
:102D400019FB5A462146684200B20A9BFEF78AFFE9
:102D500028B1321911B27A1B10B2FFF70BFB5A4699
:102D60002946604200B20A9BFEF77CFF28B1721927
:102D700011B23A1B10B2FFF7FDFA0B9800284DD0A4
:102D800060420FFA80F820E05A46414628460A9BE6
:102D9000FEF768FF30B106EB080211B27A1910B2E3
:102DA000FFF7E8FA5A464146684200B20A9BFEF72E
:102DB00059FF30B106EB080211B27A1B10B2FFF7CF
:102DC000D9FA08F101000FFA80F8A045DCDB68426F
:102DD0000FFA80F820E05A464146604200B20A9B52
:102DE000FEF740FF30B106EB080211B23A1B10B2F9
:102DF000FFF7C0FA5A46414620460A9BFEF732FFCB
:102E000030B106EB080211B23A1910B2FFF7B2FA6C
:102E100008F101000FFA80F8A845DCDBA542FFF6B7
:102E200029AFBDE8F09FFEF791FDFEF77EFE082377
:102E3000412200210846FFF7C6F8FEF752FE00BF08
:102E4000FEE710B5002200E0521C835C8C5CA342BC
:102E500001D1002BF8D1D8B2E1B2401A10BD2DE952
:102E6000FE4F804681EA0300C00F0C46009021F01F
:102E7000004123F00045B8EB0200A94105D24046CD
:102E8000214690461C460B46024623F00040104364
:102E900047D0270DC7F30A00C3F30A510290401A26
:102EA000019040286BDAC3F3130040F4801B0098B4
:102EB000924620B10023D2EB030A63EB0B0B01987F
:102EC0005946C0F14002504600F03BFA06460D4616
:102ED00050465946019A00F053FA10EB0800614140
:102EE000002487EA115284EAE7731A4340D0009A1B
:102EF00062B3019A012A4FEA075215DC001B61EB0D
:102F000002014FF0004202EA0752CDE90042001CE4
:102F100041F5801132462B4600F08AFA03B0BDE835
:102F2000F08F40462146F9E7001B61EB0201001CCF
:102F300041F5801300185B412018A2F5001747EBFC
:102F4000030140EAD570B6196D4111E06D084FEAF2
:102F5000360645EAC0754FEA0752001B61EB0201D5
:102F6000001C41F5801149084FEA30000019514119
:102F700032462B4603B0BDE8F04F00F04ABA009845
:102F8000012240000023D0EB020263EBE0730098C3
:102F900021464FEAE074B8EB000061EB0401E9E779
:102FA00083F000435BE781F0004158E72DE9FE4FD5
:102FB00081EA030404F0004421F0004100944FF042
:102FC000000B23F0004350EA01045ED052EA0304F0
:102FD0005BD0C3F30A54C1F30A552C44A4F2F33472
:102FE0000194A0FB0254C1F3130141F48011C3F317
:102FF000130343F4801301FB024400FB034E840AD5
:10300000970A44EA815447EA8357A4FB076802956C
:103010008D0A05FB07854FEA932C04FB0C5427050A
:10302000029D4FEA065847EA1637B5EB08056EEBE6
:10303000070C870E920E47EA811742EA8312A7FB1C
:103040000201B6EB0B0164EB00042B0D43EA0C33D9
:103050005E1844EB1C50DA465146E7FB0201C5F30B
:1030600013044FEA0B3343EA14534FEA0432019C32
:1030700043EA0603A4F10C040294009CCDE900B4D9
:1030800000F0D6F903B0BDE8F08F00200146F9E763
:103090002DE9F04D81EA030404F0004B21F00045D6
:1030A00014464FF0000A23F0004150EA050220D0F8
:1030B00054EA01021DD0C5F30A570246C5F31303B3
:1030C000C1F31300C1F30A5640F4801543F4801392
:1030D000A7EB0608101BD64608F2FD3873EB050077
:1030E00002D308F1010801E092185B41B8F1000F2A
:1030F00003DA00200146BDE8F08D00204FF4801176
:10310000064684460EE0171B73EB050705D3121B1A
:1031100063EB050306434CEA010C49084FEA300013
:1031200092185B4150EA0107EDD152EA030012D038
:1031300082EA040083EA0501084305D0101BAB4175
:1031400006D20122002306E000224FF0004302E0F5
:103150006FF0010253101AEB06004CEB085110EB14
:103160000A0041EB0B01BDE8F04D00F052B90EB57D
:10317000C10F80EAE0700844CA07002140F23343DF
:103180008DE80E000A460B4600F052F903B000BD70
:103190000EB540F2334102910021CDE900110A46FB
:1031A0000B4600F045F903B000BD70B5C1F30A52FB
:1031B00001F000450024C1F3130140F2FF3341F454
:1031C00080119A4201DA002070BD40F233439A42E6
:1031D000A2F2334203DC524200F0C2F800E0904019
:1031E0002C43F1D0404270BDC1F30A5210B5C1F377
:1031F000130140F2FF3341F480119A4201DA0020BA
:1032000010BD40F233439A42A2F2334203DC5242F1
:1032100000F0A6F810BD904010BD000030B5041EAF
:1032200071F1000404DB4FF00044404264EB010103
:10323000141E73F1000405DB1C464FF0004352429C
:1032400063EB04038B4208BF824230BD30B5041EDD
:1032500071F1000404DB4FF00044404264EB0101D3
:10326000141E73F1000405DB1C464FF0004352426C
:1032700063EB0403994208BF904230BD01F0004364
:1032800030B421F0004150EA010206D00A0DA2F547
:103290006072C1F31301002A02DC30BC00207047C9
:1032A000440F44EAC104C100E01830BC00EBC25036
:1032B00000F078B830B50B460146002020220124EA
:1032C00009E021FA02F59D4205D303FA02F5491BF4
:1032D00004FA02F52844151EA2F10102F1DC30BD0A
:1032E0002DE9F05F0546002092469B46884606463B
:1032F000814640241BE0284641464746224600F0CE
:103300002FF853465A46C01A914110D31146184619
:10331000224600F016F82D1A67EB01084F462246A8
:103320000120002100F00DF817EB00094E41201E8E
:10333000A4F10104DFDC484631462A464346BDE895
:10334000F09F202A04DB203A00FA02F100207047A7
:103350009140C2F1200320FA03F3194390407047D3
:10336000202A04DB203A21FA02F00021704721FADA
:1033700002F3D040C2F12002914008431946704741
:10338000202A06DBCB17203A41FA02F043EAE07329
:1033900006E041FA02F3D040C2F120029140084316
:1033A000194670470029A8BF7047401C490008BF54
:1033B00020F00100704710B4B0FA80FC00FA0CF065
:1033C00050EA010404BF10BC704749B1CCF120049D
:1033D00021FA04F411FA0CF118BF0121214308432A
:1033E000A3EB0C01CB1D4FEA00614FEA102042BF56
:1033F000002010BC704700EBC35010440029A4BF4C
:1034000010BC7047401C490008BF20F0010010BCF0
:10341000704710B5141E73F1000408DA401C41F126
:10342000000192185B411A4301D120F0010010BD48
:103430002DE9F04D92469B4611B1B1FA81F202E0BE
:10344000B0FA80F220329046FFF77BFF04460F4629
:1034500040EA0A0041EA0B0153465A46084313D09A
:10346000114653EA010019D0C8F140025046FFF757
:1034700077FF05460E46504659464246FFF761FF24
:10348000084305D0012004E020463946BDE8F08D10
:103490000020054346EAE0762C4337430A9863054B
:1034A000E40AA0EB08000022FD0A44EA47540A306F
:1034B00002D500200146E9E7010510196941DDE95F
:1034C000084500196941BDE8F04DA2E72DE9F0413A
:1034D000054621F000400C46284309D0C4F30A50A9
:1034E00040F23341884205DD28462146BDE8F0819F
:1034F0002846FBE740F2FE31884210DC0CDB4FEA45
:10350000043040EA155050EA053105D0104804F067
:10351000004101430020E9E700200146E6E7A0F270
:1035200033404642C6F1400228462146FFF709FFD4
:1035300007468846284621463246FFF711FF434694
:103540003A46FFF766FF3246BDE8F041FFF7F9BEA5
:103550000000F03FC1F30A52C1F3130140F2FF3300
:1035600041F480119A4202DA00200146704740F28D
:1035700033439A42A2F2334202DC5242FFF7F0BEDA
:10358000FFF7DFBE064C074D06E0E06840F00103A0
:1035900094E8070098471034AC42F6D3FCF778FE65
:1035A000F05400001055000030B58C1810F8012BB5
:1035B00012F00F0301D110F8013B120906D110F8E7
:1035C000012B03E010F8015B01F8015B5B1EF9D1F0
:1035D00001E001F8013B521EFBD1A142E6D30020DD
:1035E00030BD000037B514460846064B6A462146F2
:1035F00000F068FC04466946002000F0FAFF20460F
:103600003EBD0000F345000003B40198410000985E
:1036100050EAC12018BF04204A0D18BF40F0010035
:1036200040F2FF72B2EB515F08BF40F00200012888
:1036300008BF052002B0704770B59B482DED020B06
:103640002DED068B079D25F00044A04218DC97481D
:10365000844202DC0AD1069840B19DED060BBDEC18
:10366000068B02B0BDE8704000F036BB002DCCBF29
:103670009FED8F0B9FED900BBDEC068B02B070BDE4
:103680008F48A04215DD8F48A042D8BF4FF0FF34CD
:1036900058DD9DED060B51EC100BFFF7B5FF04282C
:1036A00008BF00F02DFB9DED060BBDEC068B02B0B4
:1036B00070BD9DED060B51EC100B00F0A7FFCDE99E
:1036C000060181489FED828BA0423CDD8248A042EA
:1036D0001FDD00249FED82AB9DED060B53EC1A2BF2
:1036E00051EC100BFFF7BBFB9DED060B41EC190BEA
:1036F00053EC1A2B51EC100BFFF758FC53EC182B22
:10370000FFF74EFC53EC192BFFF7C2FCCDE9060185
:1037100049E09DED060B012453EC182B51EC100BE6
:10372000FFF79DFB9DED060B41EC190B53EC182B9D
:1037300051EC100BFFF734FC53EC192BFFF7A8FCEE
:10374000CDE906012FE06848A0421FDD02249FED6D
:10375000689B9DED060B53EC192B51EC100BFFF7FA
:1037600025FC53EC182BFFF77AFB9DED060B41EC83
:10377000180B53EC192B51EC100BFFF711FC53EC09
:10378000182BFFF785FCCDE906010CE09DED060B3B
:10379000032453EC102B9FED580B51EC100BFFF74B
:1037A00077FCCDE906019DED060B53EC102B51EC97
:1037B000100BFFF7FBFB41EC180B53EC182BFFF73A
:1037C000F5FB41EC190B4E480621B0EE490AF0EE2C
:1037D000690A784400F004FA53EC182B51EC100BF2
:1037E000FFF7E4FB41EC180B4648B0EE490AF0EE57
:1037F000690A0521784400F0F3F953EC192B51ECD8
:10380000100BFFF7D3FB41EC100B51EC180B53ECF2
:10381000102B002C0EDAFFF722FB9DED061B53EC5C
:10382000112BFFF7C3FB9DED061B53EC112BFFF78C
:10383000BAFB35E0FFF713FB9DED061B53EC112B94
:10384000FFF7B4FB41EC100B2F48784400EBC400A9
:1038500090ED001B51EC100B53EC112BFFF7A0FB6C
:103860009DED061B53EC112BFFF79AFB41EC100B5F
:103870002648784400EBC40090ED001B51EC100B7F
:1038800053EC112BFFF78FFB41EC100B002DA2BF67
:10389000BDEC068B02B070BD51EC100B81F0004105
:1038A00041EC100B01E70000000010440000F07F25
:1038B000182D4454FB21F93F182D4454FB21F9BF26
:1038C0000000DC3F0000203E0000F33F000000004D
:1038D000000000000000F03F0000E63F0000000094
:1038E00000000000000000400080034000000000D5
:1038F000000000000000F83F000000000000F0BFE2
:10390000E21C0000981C0000221C0000DA1B0000D2
:1039100070B56B4E2DED040B2DED028B82B0DDF8F2
:103920001CC0DDE905235C422CF000411C4341EA48
:10393000D474049D22F00040B44205D86C422C435C
:1039400040EAD474B4420BD99DED061B9DED040BE7
:1039500002B0BDEC028B04B0BDE8704000F0C6B907
:10396000ACF14054A4F17F641C430BD0022404EA60
:10397000AC7444EAD27405439FED538B9FED542BF6
:1039800007D015E09DED040B51EC100B00F036FE56
:1039900042E0002C11BF012C9DED040B02B0BDECE8
:1039A000028B04BF04B070BD022C38D0032C3BD076
:1039B0000B439FED491B9FED4A0B0AD0B14218D132
:1039C000B04209D121F0804120F08040079105905C
:1039D0000FE0002A15DA10E0434B7B44002C08BFAF
:1039E00093ED000B0DD0012C10D0022C17D0032C1E
:1039F0001AD0B0421DD1002A03DAB0EE410AF0EE2F
:103A0000610A02B0BDEC028B04B070BD93ED000BF7
:103A100051EC100B81F0004141EC100BF1E7B0EEDE
:103A2000480AF0EE680AECE7B0EE420AF0EE620AED
:103A3000E7E7401A00153C28C8BF8DED000B19DCE4
:103A4000BCF1000FBEBF10F13C0F9FED290B8DEDB7
:103A5000000B0FDB9DED060B53EC102B9DED040BC3
:103A600051EC100BFFF714FB00F0D0FD00F0C6FD89
:103A7000CDE90001002C08BF9DED000BC1D0012C49
:103A800010D0022C9FED1C0B53EC102B9DED000B66
:103A900051EC100B0DD0FFF783FA53EC182BFFF706
:103AA0007FFAB9E7019880F0004001909DED000B8E
:103AB000A7E7FFF775FA53EC182BFFF774FAABE79B
:103AC0000000F07F00000000182D4454FB21094045
:103AD000182D4454FB2109C0182D4454FB21F9BF73
:103AE000182D4454FB21F93F0A1B00000000000080
:103AF0000000000000000000075C143326A6A13C73
:103B000010B52DED020B2DED088B84B09DED0C0B47
:103B100051EC100BFFF7DAFC41EC180B9DED0C0B90
:103B200053EC182B51EC100BFFF73AFA41EC190B40
:103B30000D989FED290B10F0004F53EC102B51EC1A
:103B4000190B9FED21AB9FED22BB0ED0FFF766FB5B
:103B50000ED953EC1B2B51EC190BFFF777FB1CD242
:103B600014E000BF41EC180B17E0FFF757FB06D23B
:103B700053EC1A2B51EC180BFFF712FAF2E753EC47
:103B80001B2B51EC190BFFF761FB06D853EC1A2BDA
:103B900051EC180BFFF763F9E4E78DED028B9DED17
:103BA0000C0B18EE901A10EE900A8DED000B61F3DD
:103BB0001E0003909DED020B04B0BDEC088B02B01B
:103BC00010BD000000000000000000000000F03FF9
:103BD000000000000000E03F000000000000E0BF27
:103BE00070B504462DED028B4D1E00EBC500B0EE06
:103BF000408AF0EE608A90ED000B35F0060017D099
:103C000053EC182B51EC100BFFF7D0F941EC100BD3
:103C10006D1E04EBC50090ED001B51EC100B53EC36
:103C2000112BFFF71CF941EC100B35F00600E7D122
:103C3000022D36D0042D1CD0062D1CBFBDEC028BEE
:103C400070BD53EC182B51EC100BFFF7AFF994ED4E
:103C50000A1B53EC112BFFF702F953EC182BFFF75B
:103C6000A5F994ED081B53EC112BFFF7F8F841EC84
:103C7000100B53EC182B51EC100BFFF797F994ED48
:103C8000061B53EC112BFFF7EAF853EC182BFFF748
:103C90008DF994ED040B53EC102BFFF7E0F841EC99
:103CA000100B53EC182B51EC100BFFF77FF994ED30
:103CB000021B53EC112BFFF7D2F853EC182BFFF734
:103CC00075F994ED001B53EC112BFFF7C8F8BDEC10
:103CD000028B41EC100B70BD10B553EC102B51EC66
:103CE000100BFFF7BCF841EC100B10BD10B553ECF6
:103CF000112B51EC100BFFF7B2F841EC100B10BD7B
:103D00009FED050B10B553EC102B51EC100BFFF78A
:103D10004DF941EC100B10BD000000000000001038
:103D200002E008C8121F08C1002AFAD17047704784
:103D3000002001E001C1121F002AFBD170470000E2
:103D40002DE9FF5F82B00021DDE90430020DDDF8CE
:103D500040B0034318D044F61050A2F2FF32424361
:103D60001514119801281FD0A5EB0B00401C5FEA29
:103D7000000A4FF000064E4FDFF83891B04650462B
:103D800015D5CAF1000413E0119801244AA30128B3
:103D900001D16FEA0B010298119AC0E90031C0E924
:103DA000024206B0BDE8F09FCBF10000DFE7044619
:103DB0000021404A491842EB0450CDE9001012E0BE
:103DC000E00707D032463B4640464946FFF7EEF84B
:103DD0008046894632463B4610461946FFF7E6F8CC
:103DE00006460F466410002CEAD1DDE90401DDE946
:103DF0000023BAF1000F06DAFFF7D8F842464B4627
:103E0000FFF7D4F805E0FFF743F942464B46FFF7CA
:103E10003FF904460E460022284BFFF717FA03D855
:103E20004FF0FF30014607E00022254B2046314687
:103E3000FFF715F8FFF78EFB102409E0002C0ADBD2
:103E40000A220023FFF74CFA039B30321A55641EF6
:103E500050EA0102F2D1641C039AC4F11103144424
:103E6000119A012A03D0012208430DD10AE0084328
:103E700004D000204FF0110B119072E7A3EB0B055B
:103E80006D1E0DE05B4504DD4FF0000205F10105FC
:103E900004E003DA4FF00002A5F10105002AECD09E
:103EA00002981199C0E90231C0E9004579E70000A4
:103EB000000014400000F03F300000000000F0431C
:103EC0000000E03F2DE9FF4F95B09B46894606462E
:103ED00000250FE2252877D100242746F84A012142
:103EE000059400E0044316F8013F203B01FA03F07B
:103EF0001042F7D130782A2811D06FF02F03307894
:103F0000A0F13002092A16D8059A44F0020402EB07
:103F1000820203EB42021044761C0590EFE759F849
:103F2000042B0592002A03DA504244F40054059011
:103F300044F00204761C30782E2816D116F8010FB2
:103F400044F004042A280DD06FF02F023078A0F13D
:103F50003003092B09D807EB870302EB4303C7188B
:103F6000761CF3E759F8047B761C30786C280FD068
:103F700006DC4C2817D068280DD06A2814D104E03C
:103F8000742810D07A280FD10DE044F400140AE010
:103F900044F4801401E044F440147278824202D167
:103FA00004F58014761C761C307866280BD013DC60
:103FB000582877D009DC002875D04528F6D0462847
:103FC000F4D047281AD19DE118E0632835D0642841
:103FD00079D0652812D195E1702873D008DC672864
:103FE000F1D069286FD06E280DD06F2806D1B5E0CA
:103FF00073282CD0752875D0782874D05A46179914
:1040000090476D1C75E1C4F30250022809D00328C3
:104010000DD0D9F8001004280DD00D6009F1040965
:1040200067E1D9F80010EA17C1E90052F6E7D9F8BC
:1040300000100D80F2E70D70F0E719F8041B8DF801
:10404000001000208DF80100EA46012003E059F835
:1040500004AB4FF0FF3061074FF0000102D40DE0D8
:1040600008F101018846B9420FDA8045F8DB1AF8F9
:1040700008100029F4D108E008F1010188468142C6
:10408000FADB1AF808100029F6D105985B46A0EB78
:10409000080721463846179A00F094FA284400EBA6
:1040A000080507E04DE029E10DE01AF8010B5A463A
:1040B00017999047B8F10108F7D25B462146384678
:1040C000179A13E142E00A220092C4F302524FF021
:1040D000000A022A08D059F804CB032A4FEAEC71EF
:1040E0000AD00DE029E02AE009F1070121F00702DA
:1040F000F2E802C1914609E00FFA8CFC4FEAEC713C
:10410000042A03D14FFA8CFC4FEAEC71002907DA3C
:104110000A460021DCF1000C61EB02012D2202E0D5
:10412000220504D52B228DF80420012203E0E207AA
:1041300001D02022F7E7904659E00A2102E0102240
:104140000DE010214FF0000A00910BE010224FF01B
:10415000000A44F004040827009203E008224FF00C
:10416000000A0092C4F30252022A05D059F804CB87
:104170000021032A08D009E009F1070121F0070214
:10418000F2E802C1914605E01FFA8CFC042A01D135
:104190000CF0FF0C4FF00008220728D5702806D03D
:1041A000009B83F0100353EA0A0305D00EE040227F
:1041B0008DF80420012208E05CEA010206D03022DA
:1041C0008DF804208DF8050002229046009B83F0B4
:1041D000080353EA0A030AD15CEA010201D162072B
:1041E00005D530228DF804204FF001087F1E582895
:1041F00004D034A003900EA802900DE036A0F9E799
:1042000053466046009AFFF76BF884460398825C39
:104210000298401E029002705CEA0100F0D1029800
:1042200006A9081A00F1200A600702D524F4803498
:1042300000E00127574502DDA7EB0A0000E000205F
:1042400000EB0A01009005984144401A0590E003F4
:1042500006D45B462146179A059800F0B3F9054449
:10426000002706E001A85A46C05D179990476D1CCB
:104270007F1C4745F6DBE0030CD55B462146179AC9
:10428000059800F09FF9054404E030205A4617993C
:1042900090476D1C0099481E00900029F5DC08E04D
:1042A000029802995A460078491C02911799904742
:1042B0006D1CBAF10001AAF1010AF1DC65E1000010
:1042C00009280100303132333435363738396162EC
:1042D00063646566000000003031323334353637B0
:1042E00038394142434445460000000000F058F987
:1042F0000544761C307800287FF4ECAD19B02846D0
:10430000BDE8F08F620700D4062709F1070222F00A
:10431000070CFCE80223E14603F000485FEA080CC2
:1043200002D00FF2702C0DE05FEA045C02D50FF2B0
:10433000682C07E05FEAC47C02D00FF2602C01E039
:10434000AFF2700C4FF0FF3823F00043CDF850C0AF
:1043500065280CD006DC452809D046281DD0472802
:104360003DD13DE0662818D067287ED138E0002195
:10437000112F01DB112000E0781CCDE9000106A916
:104380000EA8FFF7DDFCDDE90F010E9A0391002175
:10439000009207F1010A04914DE04FF000400097B0
:1043A000CDE9011006A90EA8FFF7CAFCDDE90F024E
:1043B00003920E9B11990022DDF80CA00093049249
:1043C00011B9791C00EB010AB7EB0A0004D4C0F163
:1043D000FF3007F1010A0490AAEB0700019044E0C6
:1043E000012F00DA01270021112F01DD112000E04B
:1043F0003846CDE9000106A90EA8FFF7A1FCDDE9CA
:104400000F010E9A0391002104910092BA462107F0
:104410000CD40399514500DA8A46BAF1010F05DD43
:10442000009AAAF10101515C302908D0B84202DAA1
:1044300010F1040F06DA0121CDE9011015E0AAF10F
:104440000101E9E7002805DC049901440491AAEB85
:10445000000102E0411C514500DD8A460499401AE2
:10446000401C01904FF000400290200704D40198B6
:10447000504501DBCDF8048000208DF84F000298F4
:104480000DF14F07B0F1004F25D02B200E90029870
:104490004FF0020800280CDA404202902D200E90C6
:1044A00007E00A210298FEF705FF3031029007F875
:1044B000011DB8F10001A8F10108F2DC0298002802
:1044C000EFD1791E0E980870307800F0200040F08F
:1044D000450007F8020D12A8C01B00F10708149848
:1044E000007800B1012000EB0A01019801EBE071B6
:1044F00005984144401A401E0590E00306D45B46EF
:104500002146179A059800F05DF805441498007844
:1045100018B15A46179990476D1CE00324D55B46A5
:104520002146179A059800F04DF805441CE00498C0
:10453000002807DBDDE90301884203DD0098405CC9
:10454000179901E0179930205A469047049805F1D1
:104550000105401C04900198401E019004D12E20BA
:104560005A46179990476D1CBAF10001AAF1010A49
:10457000DDDC05E017F8010B5A46179990476D1CD2
:10458000B8F10001A8F10108F4DC5B462146179A56
:104590000598ABE62D0000002B0000002000000075
:1045A0002DE9F041044600251E461746880404D430
:1045B00005E039462020B0476D1C641EF9D5284619
:1045C000BDE8F0812DE9F041044600251E469046E5
:1045D000C80301D5302700E02027880404D505E072
:1045E00041463846B0476D1C641EF9D52846BDE8E3
:1045F000F0810A68531C0B601070704710B541ECD5
:10460000100BFFF719F851EC100B10BD82B0CDE97B
:10461000000121F0004001909DED000B02B051EC33
:10462000100B704700400040100000000080054063
:1046300010000000005000401100000000900540F4
:1046400011000000006000401200000000A00540C2
:1046500012000000007000401300000000B0054090
:1046600013000000004002401400000000C005409C
:1046700014000000005002402E00000000D0054051
:104680002E000000006002402F00000000E0054006
:104690002F000000007002403000000000F00540D4
:1046A0003000000000D0034046000000000006403B
:1046B00046000000001006404700000000200640B1
:1046C00048000000003006407F0000000040064027
:1046D000800000000050064084000000006006409A
:1046E0008C000000004000401000000000800540E9
:1046F0001000000000500040110000000090054034
:1047000011000000006000401200000000A0054001
:1047100012000000007000401300000000B00540CF
:1047200013000000004002401400000000C00540DB
:1047300014000000005002402E00000000D0054090
:104740002E000000006002402F00000000E0054045
:104750002F000000007002403000000000F0054013
:104760003000000000D0034043000000000006407D
:1047700043000000001006404400000000200640F6
:104780004500000000300640580000000040064090
:1047900059000000005006405C0000000060064028
:1047A00064000000004000400080054000500040D0
:1047B000009005400060004000A0054000700040EF
:1047C00000B005400040024000C0054000500240DB
:1047D00000D005400060024000E00540007002404B
:1047E00000F0054000D003400000064000100640E5
:1047F0000010064000200640002006400030064021
:104800000030064000400640004006400050064090
:104810000050064000600640006006400070064000
:104820000070064000800640008006400090064070
:104830000090064000070000000600000005000090
:10484000000400000003000000020000000100005E
:10485000000000000000000018ED00E01CED00E08A
:1048600020ED00E000E400E004E400E008E400E003
:104870000CE400E010E400E014E400E018E400E0E0
:104880001CE400E020E400E024E400E028E400E090
:104890002CE400E030E400E034E400E038E400E040
:1048A0003CE400E040E400E044E400E048E400E0F0
:1048B0004CE400E050E400E054E400E058E400E0A0
:1048C0005CE400E060E400E064E400E068E400E050
:1048D0006CE400E070E400E074E400E078E400E000
:1048E0007CE400E080E400E084E400E088E400E0B0
:1048F00000E100E004E100E008E100E00CE100E09C
:1049000010E100E080E100E084E100E088E100E007
:104910008CE100E090E100E000E200E004E200E071
:1049200008E200E00CE200E010E200E080E200E0DB
:1049300084E200E088E200E08CE200E090E200E047
:1049400040420F0000201C0080841E0000802500D3
:10495000999E36000040380000093D0000803E006E
:1049600000004B00404B4C0000204E00808D5B004F
:1049700000C05D000080700000127A0000007D0021
:1049800080969800001BB7000080BB00C0E8CE00F6
:10499000647ADA000024F4000000FA0080A8120112
:1049A000002D310100366E0140787D01400000008D
:1049B000000000003E00080000000000A000000011
:1049C0000200000034540100000000002B700600BB
:1049D0000000000028000000000000002700010087
:1049E0000000000020000000000000005000000057
:1049F000020000001AAC000000000000179409003B
:104A000000000000169805000000000014000000DF
:104A1000000000001380080000000000A00000005B
:104A20000800000010000000000000002800000046
:104A300002000000400000000400000060000000D0
:104A4000000000005D000C000000000050000000AD
:104A5000000000004E0002000000000041AC010018
:104A6000000000003C000000000000003A80090047
:104A700000000000300000000000000028000000DE
:104A80000000000027000100000000002360060075
:104A90000000000021600800000000001E0000006F
:104AA000000000001DC004000000000050000000D5
:104AB00002000000180000000000000014000000C8
:104AC0000000000060000000040000000024F4006A
:104AD0003000300080C3C9017100710080F0FA021B
:104AE000B200B20000879303D300D30000B4C40423
:104AF0001401140100E1F50555015501000E2707C9
:104B00009601960100D0121300389C1C0000000092
:104B1000000000000000000000000000000000F89D
:104B200000000000000000333000000000160E00FE
:104B3000160E0000000000000000000040C0784099
:104B4000C0784000043F04043F040400007088FC67
:104B500008300000001820FF211E0000F008F000BF
:104B6000E018000000211C031E211E0000F0088830
:104B7000700000001E2123241927211000000016B8
:104B80000E0000000000000000000000000000E037
:104B9000180402000000000718204000000204185A
:104BA000E00000000040201807000000404080F0B6
:104BB000804040000202010F01020200000000F0EC
:104BC000000000000101011F0101010000000000C0
:104BD0000000000000B070000000000000000000B5
:104BE00000000000000101010101010100000000BE
:104BF0000000000000303000000000000000000055
:104C000080601804006018060100000000E0100831
:104C10000810E000000F102020100F00001010F806
:104C2000000000000020203F202000000070080845
:104C300008887000003028242221300000300888C5
:104C4000884830000018202020110E000000C020ED
:104C500010F8000000070424243F240000F808880E
:104C6000880808000019212020110E0000E010889B
:104C700088180000000F112020110E0000380808CD
:104C8000C83808000000003F0000000000708808DD
:104C900008887000001C222121221C0000E010085E
:104CA0000810E0000000312222110F00000000C0B7
:104CB000C00000000000003030000000000000C014
:104CC000C0000000000080B07000000000008040C4
:104CD000201008000001020408102000404040405D
:104CE00040404000040404040404040000081020B0
:104CF00040800000002010080402010000704808F5
:104D00000808F0000000003036010000C030C8285C
:104D1000E810E0000718272423140B000000C03817
:104D2000E0000000203C23020227382008F8888891
:104D300088700000203F202020110E00C03008089D
:104D400008083800071820202010080008F8080874
:104D50000810E000203F202020100F0008F888886D
:104D6000E8081000203F20202320180008F8888839
:104D7000E8081000203F200003000000C0300808B1
:104D80000838000007182020221E020008F808003A
:104D90000008F808203F210101213F20000808F801
:104DA000080800000020203F202000000000080824
:104DB000F8080800C08080807F00000008F888C0E4
:104DC00028180800203F20012638200008F8080095
:104DD00000000000203F20202020300008F8F800CC
:104DE000F8F80800203F003F003F200008F830C0DE
:104DF0000008F808203F200007183F00E0100808CE
:104E00000810E0000F10202020100F0008F80808FC
:104E10000808F000203F210101010000E01008080F
:104E20000810E0000F18242438504F0008F8888834
:104E300088887000203F2000030C30200070880814
:104E4000080838000038202121221C00180808F822
:104E5000080818000000203F2000000008F80800A3
:104E60000008F808001F202020201F000878880074
:104E700000C83808000007380E010000F80800F8E4
:104E80000008F800033C0700073C0300081868808E
:104E90008068180820302C03032C30200838C80004
:104EA000C83808000000203F200000001008080853
:104EB000C83808002038262120201800000000FEF5
:104EC000020202000000007F40404000000C30C0A1
:104ED00000000000000000010638C00000020202CD
:104EE000FE000000004040407F000000002010084D
:104EF0000408102000000000000000000000000076
:104F00000000000080808080808080800002040893
:104F10000000000000000000000000000000808091
:104F2000808000000019242222223F2008F80080FF
:104F300080000000003F112020110E0000000080C2
:104F400080800000000E1120202011000000008051
:104F50008088F800000E112020103F200000808083
:104F600080800000001F222222221300008080F097
:104F7000888888180020203F2020000000008080C2
:104F800080808000006B94949493600008F8008007
:104F900080800000203F210000203F200080989862
:104FA000000000000020203F2020000000000080C2
:104FB0009898000000C08080807F000008F8000002
:104FC00080808000203F24022D302000000808F857
:104FD000000000000020203F202000008080808012
:104FE00080808000203F20003F20003F0080800024
:104FF0008080000000203F2100203F2000008080B2
:1050000080800000001F202020201F008080008062
:105010008000000080FFA12020110E000000008011
:1050200080808000000E112020A0FF808080800002
:105030008080800020203F2120000100000080802F
:10504000808080000033242424241900008080E024
:10505000808000000000001F2020000080800000F1
:1050600000808000001F202020103F2080808000D2
:105070000080808000010E300806010080800080E2
:10508000008080800F300C030C300F000080800007
:10509000808080000020312E0E3120008080800032
:1050A0000080808080818E701806010000808080E2
:1050B000808080000021302C222130000000000080
:1050C000807C020200000000003F40400000000021
:1050D000FF00000000000000FF0000000002027C52
:1050E000800000000040403F000000000080404081
:1050F00080000080000000000001010000000000AE
:1051000000000000002F000000000700070000144E
:105110007F147F1400242A7F2A120023130864625C
:1051200000364955225000000007000000001C22F4
:105130004100000041221C000014083E0814000831
:10514000083E0808000000A06000000808080808E1
:10515000000060600000002010080402003E514979
:10516000453E0000427F4000004261514946002117
:1051700041454B31001814127F1000274545453931
:10518000003C4A494930000171090503003649498C
:10519000493600064949291E000036360000000045
:1051A0005636000000081422410000141414141490
:1051B000000041221408000201510906003E495531
:1051C000592E007C1211127C007F49494936003E5D
:1051D00041414122007F4141221C007F4949494110
:1051E000007F09090901003E4149497A007F08080A
:1051F000087F0000417F4100002040413F01007FC7
:1052000008142241007F40404040007F020C027F92
:10521000007F0408107F003E4141413E007F0909A4
:105220000906003E4151215E007F091929460046CA
:10523000494949310001017F0101003F4040403FA1
:10524000001F2040201F003F4038403F00631408EB
:1052500014630007087008070061514945430000C6
:105260007F414100000204081020000041417F00FE
:1052700000040201020400404040404000000102DE
:105280000400002054545478007F484444380038C7
:105290004444442000384444487F0038545454184F
:1052A00000087E0901020018A4A4A47C007F080461
:1052B00004780000447D4000004080847D00007F31
:1052C000102844000000417F4000007C041804784E
:1052D000007C0804047800384444443800FC24244A
:1052E00024180018242418FC007C08040408004832
:1052F0005454542000043F444020003C4040207C53
:10530000001C2040201C003C4030403C0044281041
:105310002844001CA0A0A07C004464544C4400001D
:10532000087F41000000007F00000000417F08006E
:10533000000804081008A3AC0000000000000000F2
:1053400000000000000000000000005838000000CD
:10535000000000000000000000A1A3000000000009
:105360000000000000000000000000000000182401
:10537000241800000000000000000000C4E300004A
:105380008060F8074020180F08C808082818000196
:105390000000FF00100C0340807F0001061800BAD7
:1053A000C3001010F01F10F000808282E2928A8603
:1053B0008000402215081661000040807F00000038
:1053C0000000CAC000202020FE2020FF202020FF57
:1053D00020202020000000007F40404744444447F4
:1053E0004040400000BDE700000000FE929292FEA7
:1053F000929292FE0000000008080484621E0100E0
:1054000001FE020404080800000000FF0101013150
:1054100009090909897101010101FFFF808080806C
:1054200080809681808080808080FFFF01818181E3
:10543000FD8991A1C1FD81818101FFFF8080808074
:105440009F888482819F80808080FF000000000010
:105450004FBB610567ACDD3F182D4454FB21E93F8C
:105460009BF681D20B73EF3F182D4454FB21F93F7B
:10547000E2652F227F2B7A3C075C143326A6813C01
:10548000BDCBF07A8807703C075C143326A6913CAC
:10549000C4EB98999999C9BF711623FEC671BCBF18
:1054A0006D9A74AFF2B0B3BF9AFDDE522DDEADBF80
:1054B0002F6C6A2C44B4A2BF0D5555555555D53F98
:1054C000FF8300922449C23F6E204CC5CD45B73FB3
:1054D000513DD0A0660DB13FEB0D76244B7BA93F2B
:1054E00011DA22E33AAD903F000000000000000016
:1054F00010550000000000206C020000A8350000DC
:10550000185500006C02002004060000303D000029
:0855100001FF01FF0171000021
:04000005000002896C
:00000001FF
