:020000040800F2
:10000000D80C0020CD0100085B2000080B1C000864
:100010005920000805040008292A000800000000F3
:10002000000000000000000000000000952400080F
:10003000070400080000000011240008ED24000857
:10004000E7010008E7010008E7010008E7010008F0
:10005000E7010008E701000809040008E7010008BB
:10006000E7010008E7010008E7010008E7010008D0
:10007000E7010008E7010008E7010008E7010008C0
:10008000E7010008E7010008E7010008E7010008B0
:10009000E7010008E7010008E7010008E7010008A0
:1000A000E7010008E7010008E7010008E701000890
:1000B000512500085D250008E7010008E701000858
:1000C000E7010008E7010008E7010008E701000870
:1000D000E7010008E7010008E70100081D2A000801
:1000E000E7010008E7010008E7010008E701000850
:1000F000E7010008E7010008E7010008E701000840
:10010000E7010008E7010008E7010008E70100082F
:10011000E7010008E701000869250008E701000879
:10012000E7010008E7010008E7010008E70100080F
:1001300000F002F800F03AF80AA090E8000C8244BF
:100140008344AAF10107DA4501D100F02FF8AFF29C
:10015000090EBAE80F0013F0010F18BFFB1A43F0A5
:10016000010318473C5F00005C5F0000103A24BFA9
:1001700078C878C1FAD8520724BF30C830C144BF0C
:1001800004680C607047000000230024002500264E
:10019000103A28BF78C1FBD8520728BF30C148BFEA
:1001A0000B6070471FB51FBD10B510BD00F06CF897
:1001B0001146FFF7F7FF02F04BFE00F08AF803B498
:1001C000FFF7F2FF03BC00F08DF8000009488047FC
:1001D00009480047FEE7FEE7FEE7FEE7FEE7FEE729
:1001E000FEE7FEE7FEE7FEE704480549054A064B41
:1001F000704700004F25000831010008D806002094
:10020000D80C0020D8080020D80800204FF00002A9
:1002100000B5134694469646203922BFA0E80C50FC
:10022000A0E80C50B1F12001BFF4F7AF090728BFD7
:10023000A0E80C5048BF0CC05DF804EB890028BF53
:1002400040F8042B08BF704748BF20F8022B11F07C
:10025000804F18BF00F8012B7047704770477047F8
:1002600010B500F009F8006810BD10B5044600F0A4
:1002700003F8046010BD00000048704774060020B9
:1002800000487047740600207546FFF7F9FFAE4638
:1002900005006946534620F00700854618B020B592
:1002A000FFF7A2FFBDE820404FF000064FF0000727
:1002B0004FF000084FF0000B21F00701AC46ACE80E
:1002C000C009ACE8C009ACE8C009ACE8C0098D467B
:1002D000704710B50446AFF300802046BDE81040DB
:1002E000FFF76DBF01491820ABBEFEE726000200F4
:1002F000704700002DE9F05F2F4D0020294602F0E5
:1003000003FC2E4E04460F463068406A03F0B6FDEB
:10031000DFF8ACB0594603F0BBFC03F02BFC2246DF
:100320003B4603F04DF9DFF89CA04FF033394A46C5
:10033000534603F045F903F013F9234C2946206096
:10034000002002F0E1FBDFF8848005460F46D8F874
:100350000000406A03F092FD594603F099FC03F057
:1003600009FC2A463B4603F02BF94A46534603F064
:1003700027F903F0F5F86060326800215162D8F87F
:100380000020516222681249642A0EDA642806DAD3
:1003900010444A6D00EBD07002EB600002E002DD19
:1003A000486D10444865BDE8F09FFCDD6428FADA2A
:1003B0004A6D1044F6E700000000F0BF540500202D
:1003C0000000824433331340F00400209C050020D9
:1003D0000000002010B5094C00220421204600F046
:1003E0004DFA07480021491C8142FCDB20460122CE
:1003F000BDE81040042100F041BA0000000C0140AB
:1004000020A10700FEE77047012000F02FB972B667
:10041000FEE7000070B51A4E0D46041E06DD0122EF
:100420000221304600F02AFA002205E000220221D3
:10043000304600F023FA01220421304600F01EFA73
:10044000104E002D06DD01221146304600F016FA4E
:10045000002205E000220121304600F00FFA0122BF
:100460000221304600F00AFA002C00DA6442064805
:1004700001684C63002D00DA6D420068856370BD31
:1004800000080140001001400C05002010B590F854
:1004900021100022022905D00421816380F8202048
:1004A000012010BD01680B6823F00E030B6001688A
:1004B0000B6823F001030B6090F84030C46B0121FE
:1004C00001FA03F3636080F8211080F820201046C1
:1004D00010BD00002DE9F05F90F8211000240229E2
:1004E00003D004218163012485E001680A6822F0B9
:1004F0000E020A6001680A6822F001020A603F4E9B
:100500003E4FB215DFF8F4C0DFF8F090DFF8ECA052
:10051000DFF8E8B0DFF8E4E00168783F1301150286
:10052000ACF1640CA9F15009AAF13C0AABF1280B1B
:10053000AEF1140E4FF48018B14227D9B9420ED053
:10054000614512D049451DD0514518D0594518D0A4
:10055000714501D1424615E0294EB14201D1012237
:1005600010E0274E1436B14201D110220AE0244E89
:100570002836B14206D0224A3C32914201D11A4675
:1005800000E02A461E49091F0A602BE0B94213D039
:10059000614517D0494522D051451DD059451DD040
:1005A000714501D142461AE0B14202D14FF080724A
:1005B00015E0134EB14201D1012210E0104E143665
:1005C000B14201D110220AE00D4E2836B14206D0C8
:1005D0000B4A3C32914201D11A4600E02A460749B3
:1005E00080394A60012180F82110002180F8201014
:1005F000416B01B188472046BDE8F09F8000024072
:100600000804024070B5044600F03EF90546601C3F
:1006100002D004480078044400F036F9401BA042A0
:10062000FAD370BD6000002010B501281AD10E4821
:10063000012141624161826800210AB94162416140
:10064000094A846D836A9269641EA34201D1D4076A
:1006500002D0032B02D004E0022102E0D20700D135
:100660000521016110BD000000000020044910B503
:100670000A68024202D00860FFF7D6FF10BD0000F2
:10068000140401402DE9F84FDFF8C8910024A9F1C6
:10069000040B23460F2709F1040AABF1040ED1E045
:1006A0000125A54006EA0502AA4276D1DFF8A8C1D5
:1006B0004E68A6EB0C0866452BD00DDC032E34D01B
:1006C00005DC36B3012E19D0022E2FD11BE0112EDE
:1006D00016D0122E2AD119E0B8F5881F19D006DCE1
:1006E000B8F5803F15D0B8F5801F1FD111E0B8F5DF
:1006F000001F0ED0B8F5041F18D10AE0CB6815E032
:10070000CB681B1D12E0CB6808330FE0CB680C33BD
:100710000CE08B682BB1012B4FF0080303D045612F
:1007200004E0042302E0056100E00023FF2A01D871
:10073000064601E000F104064FEA840501D9A5F15F
:100740002005D6F8008007FA05FC28EA0C0803FA11
:1007500005F548EA0508C6F800804D68ED0070D53B
:100760003E4DAE6946F00106AE61AD6924F0030668
:1007700005F0010500953A4D06EB050CDCF8085034
:10078000A607360F07FA06F825EA0805DFF8D48031
:10079000404503D14FF0000825E052E0DFF8C88063
:1007A000404502D14FF001081DE0DFF8C080404510
:1007B00002D14FF0020816E0DFF8B480404502D1C4
:1007C0004FF003080FE0DFF8AC80404502D14FF056
:1007D000040808E0DFF8A080404502D14FF005088A
:1007E00001E04FF0060808FA06F848EA0508CCF8D8
:1007F00008804D68D9F80060ED024D4601D51643DA
:1008000000E096432E604D68DAF80060AD02554670
:1008100001D5164300E096432E604D68DBF800607A
:10082000AD035D4601D5164300E096432E604D684A
:10083000DEF80060ED03754601D5164300E09643EF
:100840002E60641C0A681646E2407FF429AFBDE8BA
:10085000F88F000008040140000011100010024051
:100860000000014000080140000C01400010014060
:100870000014014000180140001C01400AB1016150
:1008800070470904FBE700000148806870470000DA
:10089000600000200248816802781144816070473E
:1008A00060000020074810B5016841F010010160A8
:1008B000032000F085F80F2000F006F800F024F87F
:1008C000002010BD0020024070B50D4D04464FF4CD
:1008D0007A712878B1FBF0F00A490968B1FBF0F0B1
:1008E00000F0ECFA48B9102C07D200222146501E25
:1008F00000F046F800206C6070BD012070BD000063
:10090000600000206C0000200C4808B5816941F0AF
:1009100001018161816901F001010091C16941F02A
:100920008051C161C06900F0805000900448416866
:1009300021F0E06141F00071416008BD001002400B
:100940000000014000280DDB00F01F020121914052
:100950004009800000F1E020C0F88011BFF34F8F04
:10096000BFF36F8F7047002809DB00F01F020121E1
:1009700091404009800000F1E020C0F8001170476C
:10098000F0B40E4B1B680C46C3F30223C3F10705FA
:10099000042D00D90425191D072901D2002300E0E8
:1009A000DB1E012606FA05F1491E214099409E40B2
:1009B000761E16403143F0BC02F037B80CED00E073
:1009C000064900F0070208684FF6FF03184040EAA6
:1009D0000220034A10430860704700000CED00E05D
:1009E0000000FA052DE9F0470F46050061D0434E9F
:1009F000306800F00700B84209D2306820F00700E4
:100A000038433060306800F00700B84251D12868A0
:100A10003B4C810712D5400703D5606840F4E06085
:100A200060602878000703D5606840F4605060601B
:100A30006068A96820F0F000084360602878C0076B
:100A400028D06868012810D02168022810D08907B2
:100A500000292EDA616821F0030101436160FFF78C
:100A600013FF804641F288390DE021688903EFE7E2
:100A70008901EDE7FFF708FFA0EB0801494502D91E
:100A80000320BDE8F0876068696800F00C00B0EBF7
:100A9000810FEFD1306800F00700B8420BD9306801
:100AA00020F0070038433060306800F00700B8429B
:100AB00001D00120E5E72878400705D56068E9689E
:100AC00020F4E060084360602878000706D560687D
:100AD000296920F4605040EAC100606000F038F8F5
:100AE0006168084AC1F30311515CC84006490860B7
:100AF00006480068FFF7E8FE0020C2E70020024039
:100B000000100240386000086C00002064000020E3
:100B10000448054900684968044AC1F30221515C50
:100B2000C84070476C000020001002404860000878
:100B30000448054900684968044AC1F3C221515C70
:100B4000C84070476C000020001002404860000858
:100B50000E4A51680E4801F00C03042B11D0082BEB
:100B60000FD10C48C1F38343C903C05C0AD5516857
:100B7000084AC1F34041921E515C054A5043B0FB04
:100B8000F1F07047044948437047000000100240EC
:100B900000127A002860000800093D002DE9F84F96
:100BA000040070D02078C04DC00749D06868C0F3F9
:100BB0008100012807D06868C0F38100022809D1AC
:100BC0006868C00306D52868800339D560680028A6
:100BD000E7D035E06068B0F5803F0BD010B1B0F5DC
:100BE000A02F11D0286820F480302860286820F4D5
:100BF000802002E0286840F480302860606890B16E
:100C0000FFF742FE06460AE0286840F4802028608C
:100C1000F0E700BFFFF738FE801B642873D8286810
:100C20008003F7D50CE0FFF72FFE064605E000BF76
:100C3000FFF72AFE801B6428F0D828688003F7D4C9
:100C400020789A4E80074FF001094FF0000839D5FF
:100C5000686810F00C0F07D06868C0F381000228A4
:100C600009D16868C00306D42868800714D52069B4
:100C7000012808D110E02069B0B1C6F80090FFF754
:100C800003FE074605E00AE1FFF7FEFDC01B022850
:100C9000C4D828688007F7D52868616920F0F80073
:100CA00040EAC10028600DE0C6F80080FFF7ECFDC7
:100CB000074604E0FFF7E8FDC01B022823D8286898
:100CC0008007F7D4207800072CD57948A169D9B1DD
:100CD000C0F80090FFF7D8FD074604E0FFF7D4FD09
:100CE000C01B02280FD8686A8007F7D571484FF4F7
:100CF000FA510068B0FBF1F0009000BF0098411E6F
:100D00000091FAD20EE080E0C0F80080FFF7BCFD51
:100D1000074604E0FFF7B8FDC01B022875D8686AD3
:100D20008007F7D42078400760D5E8690027C00025
:100D300008D4E86940F08050E861E869012700F0D4
:100D4000805000905C480168C90513D4016883464F
:100D500041F480710160FFF797FD824606E000BF15
:100D6000FFF792FDA0EB0A0064284ED8DBF80000E4
:100D7000C005F5D5E06801280AD008B1052813D0D0
:100D8000286A20F001002862286A20F0040002E0AE
:100D9000286A40F001002862E06841F2883B98B17F
:100DA000FFF772FD82460BE0286A40F004002862DB
:100DB000EEE700BFFFF768FDA0EB0A0159455AD8DE
:100DC000286A8007F6D50CE0FFF75EFD824605E055
:100DD000FFF75AFDA0EB0A0159454CD8286A800755
:100DE000F6D41FB1E86920F08050E861E06988B36B
:100DF0006968C1F38101022944D00228C6F86080E5
:100E000004D0FFF741FD044638E034E0FFF73CFD35
:100E1000074604E0FFF738FDC01B02282BD82868DE
:100E20008001F7D4206AB0F5803F05D16868A168D9
:100E300020F4003008436860D4E908010843696879
:100E400021F4741108436860C6F86090FFF71CFD38
:100E5000044606E025E000BFFFF716FD001B022850
:100E600009D828688001F7D51BE000BFFFF70CFD0B
:100E7000001B022802D90320BDE8F88F28688001F2
:100E8000F4D40EE00128F7D06868226A00F48031BB
:100E9000914204D1616A00F47010884201D00120AF
:100EA000EAE70020E8E700000010024000004242AC
:100EB000800442426C0000200070004010B5401ECB
:100EC000B0F1807F01D3012010BD4FF0E0246061BC
:100ED0000F21601701F0A9FD0020A061072020610B
:100EE000002010BD7047704710B590F83C20012AD3
:100EF00022D0012280F83C20CA688C6822F440721B
:100F000022434C6822F4806222430C6822F400627F
:100F100022430C6922F4805222434C6922F400528D
:100F20002243C969002322F480420A4301684A64CB
:100F300080F83C30002010BD022010BD70B590F844
:100F40003C20012A2CD0012480F83C40022280F869
:100F50003D2003685A689D6822F070060A68324393
:100F60005A60104B02689A420ED00F4B9A420BD037
:100F7000B2F1804F08D00D4B9A4205D00C4B9A42EB
:100F800002D00C4B9A4204D1496825F080031943E2
:100F9000916080F83D40002180F83C10084670BD0B
:100FA000022070BD002C01400034014000040040CC
:100FB00000080040000C004010B5040003D094F875
:100FC0003D0010B107E0012010BD002084F83C0076
:100FD000204600F01FF8022084F83D00211D206803
:100FE00001F0C8FA012084F8460084F83E0084F835
:100FF0003F0084F8400084F8410084F8420084F8FF
:10100000430084F8440084F8450084F83D00002043
:1010100010BD000008B5114A01681148914208D17D
:10102000816941F400618161806900F40060009091
:1010300008BD0C4A9142FBD1C16941F01001C16168
:10104000C069002200F01000009011463620FFF722
:1010500097FCBDE808403620FFF785BC002C014016
:10106000001002400010004090F83D10012901D00E
:1010700001207047022180F83D100168CA6842F0E3
:101080000102CA6000680E4988420ED00D498842AC
:101090000BD0B0F1804F08D00B49884205D00B49E6
:1010A000884202D00A49884204D1816801F00701D0
:1010B000062903D0016841F001010160002070475A
:1010C000002C0140003401400004004000080040B2
:1010D000000C004001680A6A41F211131A4207D15C
:1010E0000A6A9B101A4203D10A6822F001020A60C0
:1010F000012180F83D100020704770B5044690F83B
:101100003C000025012817D0012684F83C6002200D
:1011100084F83D002068826822F0770222F47F4242
:1011200082600868502838D00DDC20284FD005DCBC
:1011300090B3102811D14AE0022070BD302846D06B
:1011400040280AD13BE060282FD070280DD0B0F5A0
:10115000805F03D0B0F5005F12D0012584F83D60B8
:10116000002084F83C00284670BDCB68D1E90121FD
:10117000206801F052FA2068816841F0770109E0A7
:10118000CB68D1E90121206801F047FA2068816825
:1011900041F480418160E1E719E0CA68496820684C
:1011A00001F010FB5021206806E0CA6849682068F9
:1011B00001F019FB6021206801F039FACEE7CA6816
:1011C0004968206801F0FEFA40212068F4E72268AF
:1011D00001461046F0E72DE9F0410D46040003D02A
:1011E00094F83D0018B108E00120BDE8F08100202E
:1011F00084F83C00204600F041F8022084F83D00CD
:101200002068816844F2070291438160211D2068B3
:1012100001F0B0F9226890689169166A2B68AF698D
:10122000034340F20330814341EA0721A868EF6994
:1012300008434FF6FC418843E96840EA0720014330
:1012400028692F6A000140EA0730084369686D6920
:1012500026F0220646EA051529439360226890612C
:1012600054F8460B0162012004F81F09E07520764E
:10127000E0762077A0750020B7E70000F0B585B0D4
:1012800000260096019602960396016835480125CE
:10129000354F364CB1F1804F2CD0354A914227D191
:1012A000C16941F00201C161C16901F0020104910B
:1012B000816941F0080181618069694600F0080098
:1012C00004903020009002953846FFF7DBF9606803
:1012D00020F4406040F0E06040F400606060002274
:1012E00011461D20FFF74CFB5FF01D00FFF73BFB95
:1012F00005B0F0BDC16941F00101C161C16901F0F2
:1013000001010491816941F004018161816901F069
:1013100004010491816941F0080181618069694695
:1013200000F0080004904FF400400090029511482E
:10133000FFF7A8F90820CDE900066946029538466E
:10134000FFF7A0F9606820F4407040F0E06040F4DE
:1013500080706060002211461C20FFF711FB1C20EA
:10136000C4E7000000100240000C014000000140F2
:10137000000400400008014070B590F83E6004464B
:1013800090F83F5090F8423090F84320022021B16D
:1013900004290ED0012E1BD114E0012E18D1012BEF
:1013A00016D184F83E0084F8420001220021206812
:1013B00020E0012D0CD1012A0AD184F83F0084F8E5
:1013C000430014E0012D03D1012B01D1012A01D0EA
:1013D000012070BD84F83E0084F83F0084F842008C
:1013E00084F8430001220021206801F009F901225C
:1013F0000421206801F004F92068016841F001012E
:101400000160002070BD704770B504460068016936
:101410004FF00005C943890715D4C168C94389073E
:1014200011D4E91E016101202077206880698007BE
:10143000204602D0FFF7E7FF04E000F0BFF82046A7
:1014400000F051F9257720680169C943490717D48D
:10145000C168C943490713D46FF004010161022038
:1014600020772068806910F4407F204602D0FFF783
:10147000CAFF04E000F0A2F8204600F034F9257716
:1014800020680169C943090716D4C168C94309071F
:1014900012D46FF008010161042020772068C06930
:1014A0008007204602D0FFF7AEFF04E000F086F888
:1014B000204600F018F9257720680169C943C9065C
:1014C00017D4C168C943C90613D46FF01001016174
:1014D000082020772068C06910F4407F204602D0A1
:1014E000FFF791FF04E000F069F8204600F0FBF8F8
:1014F000257720680169C943C90708D1C168C94374
:10150000C90704D1891E0161204600F047F920680F
:101510000169C943090609D4C168C943090605D44C
:101520006FF0800101612046FFF7DCFC2068016953
:10153000C943490609D4C168C943490605D46FF0B7
:1015400040010161204600F055F920680169C94356
:1015500089060BD4C168C943890607D46FF02001FE
:1015600001612046BDE87040FFF7BDBC70BD0000C2
:1015700000B585B0002100910191029103910068AE
:101580000B49884212D10B48816941F00401816105
:101590008069694600F0040004904FF440700090A8
:1015A0000220019003900448FFF76CF805B000BDDD
:1015B000002C01400010024000080140704770B547
:1015C000044690F83C0000260D4601280FD001206B
:1015D00084F83C006AB1042A1DD0082A2FD00C2AB6
:1015E0003FD00126002084F83C00304670BD022028
:1015F00070BD206801F024F82068816941F008017D
:1016000081612068816921F004018161206881691C
:101610002A69114311E0206801F042F820688169CD
:1016200041F4006181612068816921F480618161F8
:10163000206881692A6941EA02218161D2E7206834
:1016400001F064F82068C16941F00801C1612068B7
:10165000C16921F00401C1612068C1692A6911438F
:1016600011E0206801F086F82068C16941F400614A
:10167000C1612068C16921F48061C1612068C169CC
:101680002A6941EA0221C161ACE710B5040003D028
:1016900094F83D0010B107E0012010BD002084F84F
:1016A0003C00204600F01EF8022084F83D00211D79
:1016B000206800F05FFF012084F8460084F83E00B7
:1016C00084F83F0084F8400084F8410084F8420028
:1016D00084F8430084F8440084F8450084F83D0011
:1016E000002010BD7047704710B50446022249B172
:1016F00004290ED0082913D094F84100012816D0EF
:10170000012010BD94F83E000128F9D184F83E2054
:101710000FE094F83F000128F2D184F83F2008E060
:1017200094F840000128EBD184F8402001E084F8CF
:1017300041200122206800F063FF13492068134A0A
:10174000884201D0904203D1436C43F40043436488
:10175000206888420DD090420BD0B0F1804F08D065
:101760000B49884205D00B49884202D00A49884279
:1017700004D1816801F00701062903D0016841F016
:1017800001010160002010BD002C01400034014027
:101790000004004000080040000C004070B5134EEB
:1017A0000068316888421FD1114C00256570E06BDC
:1017B000401CE0636068401C6060092802DDFEF7A1
:1017C00099FD6560E06B63280ADDE06DE563401C10
:1017D000E0652069002802DD401E206100E06561AF
:1017E00031686FF00100086170BD0000E405002061
:1017F000000000207047704770470000F8B501688E
:1018000004460868CA684B6910F00F0F4FF00005D6
:1018100059D003F0010602F49077374365D0C10731
:1018200005D0D10503D5616C41F001016164410728
:1018300005D5D90703D0616C41F0020161648107CD
:1018400005D5D90703D0616C41F00401616401073B
:1018500007D502F02001314303D0616C41F008014B
:101860006164616C00293AD0800604D5900602D5E7
:10187000204600F0F9FF20684069616CC0F38010D9
:10188000090700D460B3204600F0C7FF2068406914
:10189000400621D52068143050E8001F21F0400197
:1018A00040E80012002AF5D1E06BA8B16D49416310
:1018B000E06BFEF70FFE002811D0E06B416B01B02A
:1018C000BDE8F040084783060FD593060DD52046A6
:1018D000BDE8F84000F0C8BF2046FFF78DFFF8BD17
:1018E0002046FFF789FF6564F8BD266B2023012E93
:1018F0007CD1C6067AD5D60678D5086848680090A7
:1019000048694FF00206400640D5E16B0868406820
:101910000004000CE8D0A28D8242E5D9E0858869F8
:1019200020282DD020680C3050E8001F21F4807151
:1019300040E80012002AF5D12068143050E8001F5A
:1019400021F0010140E80012002AF5D1206814308E
:1019500050E8001F21F0400140E80012002AF5D1B4
:1019600084F84230256320680C3050E8001F21F0D5
:10197000100140E80012002AF5D1E06BFEF786FD69
:101980006663A08DE18D401A81B22AE0A08DE18DC1
:10199000401A81B2E08D0028A6D00029A4D0226888
:1019A0000C3252E8000F20F4907042E80007002F3C
:1019B000F5D12068143050E8002F22F0010240E8F1
:1019C0000027002FF5D184F84230256320680C30C1
:1019D00050E8002F22F0100240E80023002BF5D140
:1019E00066632046FFF707FFF8BDFFE705062BD526
:1019F000150629D594F841002128F5D1A068B0F545
:101A0000805F01D12069B0B1206A411C2162216848
:101A100000784860E08C401E0004000CE084E3D1B4
:101A20002068C16821F08001C1602068C16841F070
:101A30004001C160D8E7206A0088C0F30800486010
:101A4000206A801C2062E5E74006CDD55006CBD544
:101A5000CA68204622F04002CA6084F8413000F093
:101A6000D3F8C1E70B28000870B5040004D094F83F
:101A70004100002510B106E0012070BD84F84050FF
:101A8000204600F023F8242084F841002068C16833
:101A900021F40051C160204600F048FF2068016930
:101AA00021F4904101612068416921F02A014161DE
:101AB0002068C16841F40051C1606564202084F849
:101AC000410084F842006563002070BD30B585B0E8
:101AD00000240094019402940394006819498842F8
:101AE0002DD11948C16941F48021C161C16901F456
:101AF00080210491816941F0080181618069134D61
:101B000000F0080004904FF48060009002200190E3
:101B10000320039069462846FEF7B4FDE814CDE99A
:101B200000040120029069462846FEF7ABFD002222
:101B300011462720FEF724FF2720FEF714FF05B0EB
:101B400030BD00000048004000100240000C014081
:101B500090F84230202B01D00220704721B11AB1F9
:101B60000023036300F03EBF0120704770B5234C93
:101B700023480122A16839B10146236C0978002568
:101B8000B3B1012B20D02DE04078412806D0422867
:101B900006D0432806D0442806D107E0A26503E01A
:101BA000022000E00320A065A26020E00420FAE704
:101BB0005B2917D122642270012101E04554491CA0
:101BC000425C002AFAD10DE00C4B5D291B7803D052
:101BD000C154652903D003E02564C55402E02262A4
:101BE0005B1C2370401C01F0CDF85038E060BDE86C
:101BF0007040012202490348FFF7AABF00000020FD
:101C0000000500202C0600207047FEE770B5012279
:101C10000E4D540221462846FEF730FE01221602E0
:101C200031462846FEF72AFE00F048F800222146F9
:101C30002846FEF723FE00F041F8002231462846F0
:101C4000FEF71CFEBDE8704000F038B8000C014003
:101C500070B50B4D4FF40074002221462846FEF764
:101C60000DFE012211022846FEF708FE00F026F8BC
:101C700021462846BDE870400122FEF7FFBD000066
:101C8000000C014070B50C4C012251022046FEF7B9
:101C9000F5FD00F013F80122150229462046FEF753
:101CA000EDFD00F00BF8002229462046FEF7E6FD88
:101CB000BDE8704000F002B8000C01400320401E57
:101CC000C0B2FCD27047000010B5094C00220421BC
:101CD0002046FEF7D3FD07480021491C8142FCDB6A
:101CE00020460122BDE810400421FEF7C7BD0000D8
:101CF0000014014020A107002DE9F04F85B0002617
:101D000043480096019602960396816941F02001AE
:101D10008161816901F020010491816941F0100124
:101D20008161816901F010010491816941F0040130
:101D30008161816901F004010491816941F0080128
:101D400081618069334F00F0080004900122032173
:101D50003846FEF793FDDFF8C09001220621484681
:101D6000FEF78CFDDFF8B4B0012204215846FEF7DF
:101D700085FDDFF8ACA0002204215046FEF77EFD71
:101D80004FF44078002241465846FEF777FD022581
:101D90000320012403958DE8510069463846FEF77B
:101DA00071FC06208DE83100694648460395FEF730
:101DB00069FC1C486946CDE9004058460294FEF78C
:101DC00061FC0427112000970395CDE901066946BF
:101DD0005846FEF757FC00970395CDE90146694642
:101DE0005046FEF74FFCCDF800800395CDE9014643
:101DF00069465846FEF746FC002211460620FEF7CB
:101E0000BFFD0620FEF7AFFD05B0BDE8F08F000076
:101E1000001002400010014000080140000C014089
:101E2000001401400000211010B596B000240F945A
:101E300010941194129413941C2168461494FEF784
:101E4000E5F9202107A8FEF7E1F92D482B490160AB
:101E50004721C0E9011440F2E731C0E903148021B1
:101E6000C0E90541FFF7A8F808B1FEF7D0FA4FF432
:101E700080500F900FA92248FFF73FF908B1FEF7F5
:101E8000C6FA1F48FFF701FC08B1FEF7C0FA139429
:101E900013A91B481494FFF751F808B1FEF7B7FADD
:101EA0006020CDE900040294039404940594002278
:101EB000694613480694FFF782FB08B1FEF7A7FABC
:101EC000042269460E48FFF77AFB08B1FEF79FFA35
:101ED0000794089409944FF400500A94CDE90B40FC
:101EE00007A907480E94FEF7FFFF08B1FEF78FFA27
:101EF0000348FFF73DFB16B010BD0000002C014069
:101F00000C05002010B58CB024216846FEF77EF940
:101F10000024164809944FF080410A94C0E9001447
:101F20004FF6FF71C0E90241802104618161032005
:101F3000CDE900040120CDE902040494CDE9054077
:101F40000794694609480894FFF745F908B1FEF778
:101F50005EFA099409A905480A94FEF7EFFF0028E4
:101F600001D0FEF754FA0CB010BD0000540500205B
:101F700010B58CB024216846FEF748F900241648B5
:101F8000099414490A94C0E900144FF6FF71C0E99E
:101F900002418021046181610320CDE90004012018
:101FA000CDE902040494CDE90540079469460A4846
:101FB0000894FFF710F908B1FEF729FA099409A966
:101FC00005480A94FEF7BAFF002801D0FEF71FFA71
:101FD0000CB010BD000400409C0500201CB500247E
:101FE0000E4800940C49019401604FF4E151C0E99E
:101FF000011464218461C160FEF7DEFF08B1FEF7C1
:1020000006FA0094694605480194FEF797FF0028F8
:1020100001D0FEF7FCF91CBD00100040E4050020D3
:102020000C4810B50A4901604FF4E13141600021CC
:1020300081600C22C160C0E904128161C161FFF7B7
:1020400013FD002803D0BDE81040FEF7E0B910BD35
:10205000004800402C060020FEE7FEE730B40021D7
:10206000084B0A465FF0000003EBC004401CC0B2FE
:1020700062548028F8D3491CC9B20829F2D330BC75
:1020800000F0B0B87000002030B1012807D1002165
:102090005FF0A70000F0A1B90021A620FAE7704781
:1020A00010B558B1012810D10021C02000F095F9D9
:1020B0000021A020BDE8104000F08FB90021C82009
:1020C00000F08BF90021A120F4E710BD30B5CC0859
:1020D00001F0070301259D40EBB2064D05EBC0055D
:1020E000C808285C0AB1184302E063EA0000C04354
:1020F000285530BD7000002010B50021AE2000F042
:102100006CF90021084600F068F90021102000F069
:1021100064F90021402000F060F90021812000F0E6
:102120005CF90021CF2000F058F90021A12000F037
:1021300054F90021C82000F050F90021A62000F039
:102140004CF90021A82000F048F900213F2000F0C0
:1021500044F90021D32000F040F90021084600F0A6
:102160003CF90021D52000F038F90021802000F052
:1021700034F90021D92000F030F90021F12000F0DD
:102180002CF90021DA2000F028F90021122000F0BB
:1021900024F90021DB2000F020F90021302000F09C
:1021A0001CF90021202000F018F90021022000F085
:1021B00014F900218D2000F010F90021142000F006
:1021C0000CF9FFF74BFF0021BDE81040AF2000F0F5
:1021D00004B90246012000E05043491EC9B2FBD2B7
:1021E0007047000070B5184E002400BF04F1B00025
:1021F000C0B2002100F0F1F80021084600F0EDF82F
:102200000021102000F0E9F8FFF700FD782000F031
:1022100043F9FFF737FD402000F03EF9FFF732FDAC
:102220005FF0000506EBC500005D00F035F9FFF733
:1022300029FD6D1CEDB2802DF4D3FFF709FD641C60
:10224000E4B2082CD2D370BD700000202DE9FC4F01
:102250001C460E4682468B460190082B0DD0600727
:1022600000D0012000EBD40061084843C0B2814691
:10227000203AD0B2009000204BE00620F7E7082C6F
:1022800013D00C2C18D0102C1BD0182C44D1009833
:10229000234900EBC00000BF01EB8001002711F8CB
:1022A0000850E80712D00B9A13E000981D4900EB84
:1022B000400001EB4001F1E700981B4900EB4000B2
:1022C000EAE71A49009801EB0011E7E70B9828B3F9
:1022D000002231465046FFF7F9FE761C7F1C6D0840
:1022E000FFB2F6B2082FDCD30AF1010000F0FF0ABA
:1022F000082C0AD00199AAEB0100B0EB540F04D1CD
:102300000BF108008A4600F0FF0B08F101005E4661
:10231000C0B280464845B2D3BDE8FC8F0122D8E761
:10232000A24E0008164200083E440008B2480008C9
:102330002DE9F84F0025DDE90A691F4692468B46D4
:102340008046082E00D1022500241CE0381B401EC8
:10235000C1B20A20FFF73DFFBAFBF0F00A21B0FB43
:10236000F1F201FB1200CDF8009080B13030C2B222
:1023700005EB560101FB0480C0B233465946FFF716
:1023800065FF641CE4B2BC42E0D3BDE8F88F05EB06
:10239000560101FB0480C0B233463022EEE72DE93E
:1023A000F8411E46154688460446079F0BE0334613
:1023B000414620460097FFF749FF082E0AD004EB5C
:1023C0005600C4B26D1C2A78A2F120005E28EED916
:1023D000BDE8F881A41DE4B2F4E770B50C460546EB
:1023E000FFF714FC782000F057F8FFF74BFC0CB116
:1023F000402000E0002000F04FF8FFF743FC2846A3
:1024000000F04AF8FFF73EFCBDE87040FFF720BC43
:10241000704700002DE9F0471B4D04460146DFF8E8
:102420005C90DFF85C80174FE86C01F0CFFBE8644C
:1024300006462046296D01F001FE394601F032FDC5
:1024400007463146404601F02DFD064621464846E6
:1024500001F028FD314601F0B9FB394601F0B6FB29
:102460000A490B4A884201DD084602E0904200D941
:10247000104601F0CFFC2C65BDE8F087CDCC24419F
:102480008FC2753D9A999940000000200000C84312
:102490000000C8C3704700002DE9F041124F00242E
:1024A00005464FF40078BE15280601D5012200E04C
:1024B000002241463846FEF7E1F9FFF7FFFB012213
:1024C00031463846FEF7DAF9FFF7F8FB00223146CD
:1024D0003846FEF7D3F96806641C050EE4B2082CF2
:1024E000E2D3BDE8F0810000000C0140FEF7D2B954
:1024F00030B58FB028216846FDF788FE14210AA860
:10250000FDF784FE01210804CDE9001000240294A7
:1025100002250491CDE907504FF4E0100990684678
:10252000FEF73CFB08B172B6FEE70F20CDE90A05C5
:102530004FF48060CDE90C4002210AA80E94FEF70A
:1025400051FA002801D072B6FEE70FB030BD7047D7
:102550000148FEF759BF0000540500200148FEF76E
:1025600053BF00009C0500200148FEF74DBF00004E
:10257000E4050020F0B502681C4B1D4D1D4E1E4F9A
:102580001E4C4FF0804C984209D0A04207D06045C5
:1025900005D0A84203D0B04201D0B84204D122F005
:1025A000700E4A6842EA0E02984209D0A04207D053
:1025B000604505D0A84203D0B04201D0B84203D153
:1025C00022F44075CA682A434D6922F080022A43EA
:1025D00002608A68C2620A688262984201D0A042A0
:1025E00001D10969016301214161F0BD002C014065
:1025F0000004004000080040000C0040003401408E
:1026000010B501F01F030121046A99408C43046254
:10261000016A9A401143016210BD10B5846842EA14
:10262000032224F47F440A432243826010BD82685F
:1026300022F070020A4342F00701816070470000F7
:10264000F0B5036A026A22F00102026242688469FC
:10265000124E24F073050C682C4323F002058B689E
:102660002B430D4DA84201D0B04205D123F00807FD
:10267000CB683B4323F00403A84201D0B04205D10C
:102680004D6922F4407215438A692A43426084618D
:10269000496841630362F0BD002C014000340140F1
:1026A000F0B5026A036A23F0100303624368846989
:1026B0000D6824F4E64444EA05248D6822F02002E3
:1026C00042EA05120F4D104EA84201D0B04206D189
:1026D000CF6822F0800242EA071222F04002A842AC
:1026E00001D0B04207D14D6923F4406343EA85032A
:1026F0008D6943EA850343608461496881630262AE
:10270000F0BD0000002C014000340140F0B5026A29
:10271000036A23F4807303624368C46922F400727D
:1027200024F073050C68124E2C438D6842EA052292
:102730000E4DA84201D0B04206D1CF6822F400620B
:1027400042EA072222F48062A84201D0B04207D1B7
:102750004D6923F4405343EA05138D6943EA051399
:102760004360C4614968C1630262F0BD002C01404E
:102770000034014030B5046A026A22F480520262D9
:102780004268C3690D6823F4E64343EA05238D6874
:1027900024F4005444EA0534084DA84202D0084D00
:1027A000A84204D14D6922F4804242EA8512426077
:1027B000C36149680164046230BD0000002C01401F
:1027C0000034014010B5036A046A24F00104046275
:1027D000846924F0F00444EA021423F00A020A4354
:1027E0008461026210BD10B5036A046A24F010040B
:1027F0000462846923F0A00324F4704444EA0232A2
:1028000043EA01118261016210BD10B5406A0021E6
:10281000C185C184FEF7F0FF10BD01680C3151E89D
:10282000002F22F4907241E80023002BF5D10168BB
:10283000143151E8002F22F0010241E80023002B5F
:10284000F5D1016B012909D101680C3151E8002F44
:1028500022F0100241E80023002BF5D1202180F85E
:10286000421000210163704708B590F842102229F8
:1028700001D0022008BD82684FF480539A4201D1F2
:10288000016921B1816A9A421BD04AB10AE002680B
:10289000816A5268C2F308020A80816A891C08E0D2
:1028A000026972B10268526802F07F020A70816A9E
:1028B000491C8162C18D491E0904090CC18503D0E0
:1028C0001BE002685268F1E70168CA6822F0200242
:1028D000CA600168CA6822F48072CA6001684A69E5
:1028E00022F001024A61202180F842100021416358
:1028F000026B012A03D0FFF739F9002008BD0163FC
:1029000001680C3151E8002F22F0100241E8002349
:10291000002BF5D101680A68D20602D50A68496819
:102920000091818DFEF767FFE7E7000070B5044670
:1029300000680169E26821F4405111430161216995
:10294000A0680843616908432168CA6841F20C63C2
:102950009A430243CA6020684169A26921F4407128
:10296000114341611E492068884202D1FEF7E0F818
:1029700001E0FEF7CDF800EBC00101EB001260684A
:1029800064218000B2FBF0F3B3FBF1F36FF01806A3
:102990007343B2FBF0F5B2FBF0F605EB830532238F
:1029A00003EB0515B5FBF1F5B6FBF1F605F0F00507
:1029B00005EB0615B2FBF0F6B2FBF0F0B0FBF1F060
:1029C0006FF01802504306EB800003EB0010B0FBE1
:1029D000F1F0216800F00F002844886070BD00000D
:1029E0000038014081628285C28500214164222134
:1029F00080F84210016921B10168CA6842F480720E
:102A0000CA6001684A6942F001024A610068C1680F
:102A100041F02001C1600020704700000148FEF72E
:102A2000EDBE00002C060020FEE70907090E002875
:102A300004DB00F1E02080F80014704700F00F0084
:102A400000F1E02080F8141D70472DE9F0414F1E81
:102A500000EBC7010446D1E9000115461E4637F0D8
:102A600006020DD02A46334600F0AAFD7F1E04EB75
:102A7000C703D3E9002300F06BFB37F00602F1D166
:102A8000022F25D0042F13D0062F18BFBDE8F081E8
:102A90002A46334600F094FDD4E90A2300F058FB9F
:102AA0002A46334600F08CFDD4E9082300F050FBA1
:102AB0002A46334600F084FDD4E9062300F048FBA3
:102AC0002A46334600F07CFDD4E9042300F040FBA5
:102AD0002A46334600F074FDD4E9022300F038FBA7
:102AE0002A46334600F06CFDD4E90023BDE8F041EE
:102AF00000F02EBB012201F048BB00221346104615
:102B0000114600F0D5BB00002DE9F04D0546DFF879
:102B1000388221F000408D4F82B00C46404520DBCA
:102B2000A0EB080129430BD08949884201DC10D170
:102B30007DB102B028462146BDE8F04DFFF7DABF6F
:102B4000002CC7BF002001468248394602B0BDE8CC
:102B5000F08D0120FDF789FB02B0BDE8F04DFFF7D5
:102B6000CCBF7D49884244DA7C498142A1BF794883
:102B70007B4902B0BDE8F08D2A462346104619462F
:102B800000F01EFD8346024676480E460B4606219F
:102B90007844FFF75AFF5A46334600F011FD0746C6
:102BA00071488A465A46334604217844FFF74DFF60
:102BB0005A46334600F004FD0022434600F0C8FAAE
:102BC00002460B463846514600F072FB2A46234621
:102BD00000F0F6FC654A664B00F0F0FD2A462346FD
:102BE00000F0ECFD02B05B4ABDE8F04D5C4B00F03C
:102BF000E5BD002C4FF000024BDA4646434628461E
:102C0000214600F0A5FA4FF0FF3201F0BEFA04466B
:102C1000024658480D460B4606217844FFF715FF3B
:102C200022462B4600F0CCFC804653488A4622467A
:102C30002B4604217844FFF708FF22462B4600F07C
:102C4000BFFC0022334600F083FA06468B4620463E
:102C5000294600F021FA04460D4632465B464046BE
:102C6000514600F025FB22462B4600F0A9FC3F4AC6
:102C70003F4B00F095FE22462B4600F069FA0122F8
:102C800001F083FA02B03B46BDE8F04D314A00F056
:102C900095BD2D4B2846214600F090FD4FF0FF32A8
:102CA00001F073FA05460E4600F0F6F900270C46CF
:102CB00080463A460B4600F04BFA82468B463A462F
:102CC00023461046194600F07BFC2A46334600F0A6
:102CD00075FD52465B4600F0EBFA824627488B466C
:102CE0002A46334606217844FFF7AFFE2A4633468C
:102CF00000F066FCCDE9000121482A463346042154
:102D00007844FFF7A2FE2A46334600F059FC002221
:102D10000D4B00F01DFA02460B46DDE9000100F004
:102D2000C7FA4246234600F04BFC52465B4600F091
:102D30000FFA3A46234600F00BFA02B00122BDE832
:102D4000F04D01F022BA00000000F03FFB210940E5
:102D50000000F07F182D44540000E03F0000603C6C
:102D6000FB21F93FBC340000D2340000075C14336F
:102D700026A6913C3234000048340000663300003F
:102D80007C33000030B5002104780A46303C0B4605
:102D90000A2C17D2DFE804F0160507090B0D0F11F6
:102DA000131501210EE002210CE003210AE00421A9
:102DB00008E0052106E0062104E0072102E00821E1
:102DC00000E009214478303C0A2C17D2DFE804F0F7
:102DD000160507090B0D0F11131501220EE0022233
:102DE0000CE003220AE0042208E0052206E00622A5
:102DF00004E0072202E0082200E00922807810B3F4
:102E000030380A2817D2DFE800F0160507090B0D45
:102E10000F11131501230EE002230CE003230AE037
:102E2000042308E0052306E0062304E0072302E06C
:102E3000082300E009236420414302EB820001EBF8
:102E40004000184430BD01EB810002EB400030BD72
:102E50001CB5FDF727FDFFF74BFBFEF74DFFFFF716
:102E6000DFF8032279497A48FEF772FEFFF744F94A
:102E70000020FFF709F90020FFF712F900271023BF
:102E8000724A202138460097FFF789FAFFF7AAF91E
:102E9000FEF7CAFFFFF736F8FFF76AF8FFF79EF86C
:102EA0006C48FEF7E1F800216B48FEF71DFC042199
:102EB0006948FEF719FC3C216848FEF75DFA3C21A1
:102EC0006748FEF759FA1026DFF89881DFF89891E5
:102ED000664C01250021102365A208460095FFF7E6
:102EE0005EFACDE90065032300212820E26DFFF79B
:102EF0001FFA102360A2194600200095FFF74FFA31
:102F0000CDE90065062310214820626DFFF710FA15
:102F100010235CA2202100200095FFF740FACDE9A4
:102F20000065042320211020E26AFFF701FA102334
:102F300055A2202138200095FFF731FACDE9006530
:102F4000042320214820226BFFF7F2F910234FA21F
:102F5000302100200095FFF722FACDE90065042317
:102F600030211020626BFFF7E3F9102348A23021D3
:102F700038200095FFF713FACDE9006504233021CE
:102F80004820A26BFFF7D4F9FFF72CF9A06868B1CD
:102F9000206970B100F0A6F8FDF71CFAFEF794FE68
:102FA00041460220401C8842FCDB07E000F09AF812
:102FB00004E0206A012814D000F0B2F8606A012809
:102FC00088D13220FDF71EFBA0693249401C014028
:102FD0006762A06101291AD000EBD0704010A06296
:102FE00078E71C48FEF776F81B494FF4FA700A6838
:102FF00050630968886349460220401C8842FCDB14
:103000001548FEF767F82720FDF79CFCCEE7401C2B
:1030100000EBD0704010A062012806D0022807D033
:10302000032808D004280BD108E0606DE06207E0B7
:10303000606D206304E0606D606301E0606DA0631B
:10304000FDF7C8F9FEF740FE44E700000005002048
:103050002C060020E40500200C050020540500206B
:103060009C05002020A10700404B4C0000000020E0
:1030700074696D653A00000064697374616E63651C
:103080003A000000313A0000323A0000333A0000C2
:10309000343A0000010000802DE9F04106460F4659
:1030A00000F098FB041E0D4618BF0120284320F0B5
:1030B0000040C0F17F6000F1E040C00F0ED0301C36
:1030C00018BF0120384320F00040C0F17F6000F1BC
:1030D000E040C00F04BF0120FDF7C7F82046294695
:1030E000BDE8F08110B50C4C002202212046FDF70E
:1030F000C5FB002204212046FDF7C0FB074C00223F
:1031000001212046FDF7BAFB20460022BDE8104011
:103110000221FDF7B3BB0000000801400010014090
:1031200070B50A4CE06800F091FEFFF773F9E169B1
:1031300045183235E06800F089FEFFF76BF9E16968
:10314000091A2846BDE87040FDF764B90000002068
:1031500010B591EA030F48BF83F0004300F12884C3
:10316000841A71EB030C05D2121943EB0C03001BFC
:1031700061EB0C01DFF824E14FEA1154A4EB135C7E
:103180001EEA430F18BF9EEA445F73D023EA0E0382
:10319000DCF1200E21EA045143F4801332D322FAE9
:1031A0000CFE10EB0E0023FA0CFE41EB0E01CCF1ED
:1031B000200E03FA0EFE10EB0E0051F10001B1F5E6
:1031C000801FCCF1200E32D201EB045112FA0EF224
:1031D000BDE8104058BF7047401C38BF5FEA42024C
:1031E00018BF7047002814BF20F0010041F1000112
:1031F0004FEA410313F5001F38BF7047A1F1C041EA
:1032000000F0D6BA012A43EB0302ACF1200CDCF14A
:103210001F0E32BF4FF0000E23FA0CF310EB030029
:1032200041EB0451B4EB115FD0D0A1EB045101F597
:10323000801149085FEA300001EB04510ED350F1D0
:10324000000038BF12FA0EFE08D1BDE81040C9E7F1
:10325000401C38BF5FEA4202CAD1C3E7BDE8104054
:103260004FEA410313F5001F38BF7047A1F1C04179
:1032700000F09EBA9EEA445F08D011EA5E0FBDE8F6
:10328000104004BF01F0004100207047BDE810402D
:1032900070B500F03FFA00BF64FBBE3E0000E0FFE7
:1032A00002494FF0000000F03EBF00BF0000F87F71
:1032B0002DE9C04130B4DFF8A0C23CEA111418BFB8
:1032C0003CEA131400F0EC8081EA03051CEA1114B7
:1032D00044EAD57418BF1CEA131500F0C780A4EBAC
:1032E00005044FF0004545EAC12145EAC32341EA00
:1032F000505143EA525304F17F74994204F500346B
:103300004FEAC0204FEAC22208BF904200F09C80E2
:103310004FEA13650FF24016765D4FEA134506FB40
:1033200005F7C7F1807706FB07F74FEAD737A7FB0A
:1033300003687642C8F58038A7FB06CE38BFA8F1EF
:10334000010807FB08E64FF0000EA6FB028CE6FB27
:1033500003CEDCF1000CCEF1004E38BFAEF1010E11
:10336000A6FB0C584FF000074FF00005E6FB0E8758
:10337000A1FB08C6A0FB07CE16EB0E0645F1000523
:10338000E1FB076515F1E04E7EBFA4F580345FEAEE
:1033900046066D4116F1800745F100054FEA1727F3
:1033A0004FEA066647EA0567A6F1DE46B6F1805F9A
:1033B0004FEA15251FD9384624F0010C05EBC471DE
:1033C000BCF1FE6F01EB0C1102D8F0BCBDE800812E
:1033D00024425CBF01F5801E9EEAC47F02D4F0BC8B
:1033E000BDE80081244238D4F0BCA1F1C041BDE861
:1033F000004100F0DDB94FEAD22242EA43524FEADF
:10340000D323A7FB02864FEAD02040EA415007FBB6
:1034100003661EEA0E0F4FEAD12105FB026658BF74
:10342000A6EB0056B6EB00564FEA520E4EEAC37EAC
:1034300018EB0E0E56EB530EBDD518EB02085E418D
:103440007F1C55F10005B6E74FF480154FF00007DB
:103450004FF000064FF00008ADE7F0BC4FF0000061
:1034600001F1C04101F00041BDE8008111EA0C1FEB
:103470000CEA131500D00CE013EA0C1F00F02580B5
:103480004FF00000F0BC81EA030101F00041BDE80B
:103490000081F0BCBDE8004181EA030100F088B979
:1034A000F0BCBDE8004170B500F034F9097EFC3E87
:1034B00000F007B881EA03014FF0000001F000417D
:1034C000704781EA030100F073B9F0BCBDE8004128
:1034D0004FF0000021497047FFFDFBF9F7F5F4F2CA
:1034E000F0EEEDEBE9E8E6E4E3E1E0DEDDDBDAD89F
:1034F000D7D5D4D3D1D0CFCDCCCBCAC8C7C6C5C4FD
:10350000C2C1C0BFBEBDBCBBBAB9B8B7B6B5B4B313
:10351000B2B1B0AFAEADACABAAA9A8A8A7A6A5A4FE
:10352000A3A3A2A1A09F9F9E9D9C9C9B9A999998C2
:103530009797969595949393929191908F8F8E8E65
:103540008D8C8C8B8B8A89898888878786858584F2
:1035500084838382828181800000FF070000F87FDE
:103560004FEA41034FEA5353A3F58063D3F11E039F
:10357000C8BFD3F1210C0CDD4FF0004242EAC1225A
:1035800042EA505232FA03FC8CEAE17CACEBE17087
:103590007047102BC4BF0020704703F5787CBCF146
:1035A000FF3F04D06FF0004282EA2100704770B5FF
:1035B00000F0B0F84992248000207047F2E7000044
:1035C000DFF848C170B51CEA111E1EBF1CEA1315B6
:1035D0009EEA0C0F95EA0C0F00F06F8081EA03045D
:1035E00023EA4C134EEAD47E21EA4C1141F48011B7
:1035F00043F48013AE44A1FB024CA0FB0365AEF183
:103600007F7E361955EB0C05A1FB034C4CF10003F2
:10361000A0FB021C16EB0C06654153F100030942A6
:1036200018BF46F0010613F4007F0BD14FEA0331B7
:103630004FEA0530340341EA155140EA16506FF065
:1036400003020AE04FEAC3214FEAC520F40241EA2F
:10365000555140EA56506FF0020202EB2E4201EB48
:10366000025585EACE710AD05FEA440C18BF24F0F7
:10367000004450F1000041F1000120EAD47040F212
:10368000FE7C624500D270BDA84214BF4FF080445A
:103690004FF04044002E08BF0024BEF1806FA8BF49
:1036A000A1F1C041BDE8704080F282804FF000007F
:1036B00001F1C04101F0004170479EEA0C0F0CEA95
:1036C000131518BF95EA0C0F06D04FF0000081EAE1
:1036D000030E0EF0004170BD00F01CF88900013EA1
:1036E00000F007B800F009B84FEA430C5FEA5C5CF1
:1036F00008D081EA030100F05BB84FEA410C5FEAB1
:103700005C5CF6D14FF00000014970470000FF07F4
:103710000000F87F0EF1020E2EF0030E5EF8046B2F
:10372000364205D4012A43EB030515F5001F12D8D4
:10373000012841EB010C1CF5001F0CD80ED14FEAFB
:10374000D17C15F5001F0CEB4C0C0CF1020C08BFE2
:103750004CEBD37C04E04FF0080C01E04FEAD37C43
:103760000CEB4C0526FA05F606F00706B6F1040C3C
:1037700006D20EEB860CBDE870404CF0010C6047A1
:10378000DFE80CF0090B02024FF000414FF000009F
:10379000A1F5002170BD19461046012851EB010426
:1037A00018BFD4F5001484BF002001F0004170BDA3
:1037B0000808A0F500114FEA3101704791EA030FA4
:1037C00010B581F000413FF5CBAC83F0004300F031
:1037D000EFB800002DE9F04101F5801CBCF5001F99
:1037E000C0F2C3804FEA115C21EA0C510CF1FD0CD0
:1037F00041F480115FEA5C0C0CF5C07C01D3400001
:1038000049413DA4890241EA905187028E0E0A0C7B
:10381000A45D04FB04F602FB06F6C6F14046A4FBD9
:103820000662F60D46EA422606FB06F4A4FB0123D7
:103830005242C3F1404338BF5B1EA6FB0242002444
:10384000E6FB0324D20B42EA4446A6FB0623A1FB77
:1038500002E2A3FB07E4A4184FF0000252F10002B9
:10386000E3FB01426442C2F1404E38BFAEF1010EAB
:10387000A6FB04234FF00002E6FB0E32A2FB034638
:103880004FF00004B61954F10004E2FB0264A1FBFE
:1038900006E6A4FB07E816EB08064FF0000858F10F
:1038A0000008E4FB01687642C8F1405838BFA8F12F
:1038B0000108A2FB06E4A3FB08E52D194FF0000464
:1038C00054F10004E2FB0854A1FB05E6A7FB04E861
:1038D00018EB06084FF0000656F10006E1FB0486DF
:1038E00018F1200556F10006A809A8F11B08B10936
:1038F00008F03F08B8F10A0F40EA86601CD901EBD6
:103900000C51BDE8F08100BFFCF5EEE8E2DDD8D354
:10391000CFCBC7C3C0BDB9B6B4B1AEACA9A7A5A340
:10392000A19F9D9B9A9896959392908F8D8C8B8951
:103930008887868584838281A0FB006800FB01F272
:1039400008EB4208B8EB872807D5341858EB010478
:10395000D5D5401C51F10001D1E7341A78EB0104B0
:10396000CDD4401E71F10001C9E75FEA4C0C5FEA5B
:103970009C5C0DD105D34FF0000001F00041BDE883
:10398000F081BDE8F04170B5FFF7C4FE6DDBFFBE0E
:10399000BDE8F0414FF00000004970470000F87F9B
:1039A00010B591EA030F48BF83F000433FF5D8AB51
:1039B000841A71EB030C07D212198CF0004C43EB04
:1039C0000C03001B61EB0C01DFF8A4E14FEA11547A
:1039D000A4EB135C1EEA430F18BF9EEA445F00F09D
:1039E000B08023EA6E03524221EA0451C3EB6E0316
:1039F00038BF5B1EDCF1200E25D322FA0CFE10EB43
:103A00000E0043FA0CFE41EB0E01CCF1200E03FA3E
:103A10000EFE10EB0E0051F10001CCF1200E29D466
:103A200012FA0EF201EB0451BDE8104058BF704786
:103A3000401C1CBFB2F1004F704700280CBF491C4E
:103A400020F00100704712EB020E43EB030218BF97
:103A50004FF0010E4EEA4202ACF1200CDCF11E0EDA
:103A600054D943FA0CFE10EB0E0051F1FF31CCF1AA
:103A70001E0ED5D50EF1010E12FA0EFE404141EB9D
:103A8000010101EB445C5FEA5C5C10D910EBDE7075
:103A900001EB045138BFBEF1004FBDE8104018BF24
:103AA000704700280CBF491C20F00100704730D23D
:103AB0004FEAD42C11F5001124F400641BD0B1FAA4
:103AC00081F20B3AA41AA41ED2F12003914030FADD
:103AD00003F31943904001EBCC71002C01EB04512E
:103AE000BDE81040A8BF704701F1C0414FF0000091
:103AF00001F000417047B0FA80F310FA03F100D1F1
:103B000010BDE41A173C4805C90AE4E701EB04516B
:103B100010BD491001EB0451BDE810404FEA3000E0
:103B200002E04FF0000170474A0008BF0042F8D0A1
:103B3000B2F5001F28BF704701F000414FF00000B0
:103B400070479EEA445F07D011EA5E0FBDE810405F
:103B500004BF002100207047BDE8104070B5FFF79A
:103B6000D9FD00BF40DFF63E83F0004110467047AC
:103B70000000E0FF43004FEAD30C4FEA3C0C434007
:103B80001FBF40070CF1605113F0FE4F70471CF04F
:103B9000006F03D100200CF0004170470CF000438F
:103BA00043EA507010B540EACC0000F0FCF900BFC9
:103BB000000000924FEA0001FFF7FABD4FF000410C
:103BC0004FF00000A1F500217047000090EA010FBE
:103BD00048BF81F0004100F13882421A3CBF801A90
:103BE00089184FEAD0524FF07F4C1CEA410FA2EBEC
:103BF000D15318BF9CEA026F00F03B804FF0004C9D
:103C00004CEA00204CEA012121FA03FC10EB0C0CD9
:103C10001ED202F1FF325FEA1C2040EBC25038BFD7
:103C200070471CF07F0F4FEA400C18BFBCF17F4F6C
:103C300038BF7047C3F12003994008BF20F001004E
:103C4000BCF17F4F38BF7047A0F1C04000F0F1B920
:103C50004FEA3C00000A40EBC25028BF1CF0FF0FA7
:103C60004FEA400CE6D018BFBCF17F4F38BF704719
:103C7000EAE79CEA026F05D010EA5C0F08BF00F08B
:103C80000040704710B500F08EF900BF64FBBE3EE7
:103C90004FF47F0C1CEAD0121EBF1CEAD11392EA2B
:103CA0000C0F93EA0C0F00F0858090EA010F48BFDB
:103CB00042F4807240F4000C41F400002CF07F418B
:103CC00020F07F4000B58142A2EB03020FF2081CF6
:103CD000ACEB504EC0F100009EF800E04FEA4E0EF3
:103CE00000FB0EFC38BF49004FEA2C1C02F5FA021B
:103CF0000CFB0EF34FEACE1E4FEA112C4FEAC12106
:103D00000EEB635E42EB22420EFB0CFC4FEA1C53AF
:103D100000FB03114FEA112C4FEA01310EFB0CFCA2
:103D20004FEADC4C00FB0C11C14228BF09184CEBD8
:103D300003335DF804EB10EB410143EBC250B2F5E5
:103D40007C0F38BF704729D512F0F00F1CBF00F16F
:103D5000C04000F0004070470081828384858687E0
:103D600088898B8C8D8E8F919293959697999A9C3A
:103D70009D9FA0A2A3A5A7A8AAACAEB0B2B3B5B7A9
:103D8000B9BCBEC0C2C5C7C9CCCED1D4D7D9DCDF7F
:103D9000E2E6E9ECF0F3F7FAFE0000004FEA400C2F
:103DA0000CF1807CBCF17E4F28BF7047B0F1C04061
:103DB00000F03FB990EA010F0CEAD11348BF42F47A
:103DC0008072624538BF634507D213F47F0F16D067
:103DD00080EA010000F00040704710B500F0E3F801
:103DE000097EFC3E00F005B880EA010000F00040CA
:103DF000704780EA010000F0004000F01AB912F4A8
:103E00007F0F04BF0248704780EA010000F011B93B
:103E10000000C07F41000B0ED3F19E0208D950F480
:103E200000034FEA032323FA02F048BF40427047E1
:103E300010B500F0B8F800BF499224800020704708
:103E40006FF0004282EA20007047000010F000414D
:103E500048BF4042B0FA80F310FA03F2C3F19D0369
:103E60000BD051EAC35101EB1220530638BF704703
:103E700000F1010008BF20F001007047B0FA80F3A4
:103E800010FA03F2C3F19D030AD0D90501EB122009
:103E9000530638BF704700F1010008BF20F0010051
:103EA000704700004FF47F0C1CEAD0121EBF1CEAC2
:103EB000D11392EA0C0F93EA0C0F00F0478090EABE
:103EC000010F48BF42F480724FF0004C4CEA0020D2
:103ED0004CEA012102EB0302A0FB0113A2F5000250
:103EE000002918BF43F001035B0028BF4FEA3303EA
:103EF00042EB22425FEA132C4CEBC2502EBFBCEBCC
:103F0000436FB2F57C0F70474FEA036CBCF1004F72
:103F100008BF20F00100B2F57C0F38BF70470BD509
:103F200082F0FF0212F5803FC8BF704700F1C04029
:103F3000D8BF00F00040704700F5000C5FEA4C0C61
:103F400048BF7047B0F1C04000F073B890EA010F6D
:103F50000CEAD11348BF42F48072624538BF634512
:103F600004D280EA010000F00040704710B500F074
:103F70001AF800BF8900013E00F007B800F009B848
:103F80005FEA410C5FEA1C6C08D080EA010000F097
:103F900050B85FEA400C5FEA1C6CF6D14FF000406D
:103FA000A0F5800070470EF1020E2EF0030E5EF8B1
:103FB000044B244204D44FEA4102B2F17F4F11D89E
:103FC0004FEA4003B3F17F4F0CD80ED14FEAD07CBB
:103FD000B2F17F4F0CEB4C0C0CF1020C08BF4CEB18
:103FE000D17C04E04FF0080C01E04FEAD17C0CEBEF
:103FF0004C0324FA03F404F00704B4F1040C06D2D1
:104000000EEB840CBDE810404CF0010C6047DFE87B
:104010000CF0070802024FF00040A0F5800010BD30
:104020000846420018BFD2F1807288BF00F00040FD
:1040300010BDFF2141EAD050C005704790EA010F42
:1040400048BF81F000413FF5C8AD421A04D882F064
:104050000042A0EB020011444FEAD0524FF07F4CD7
:104060001CEA410FA2EBD15318BF9CEA026F4AD061
:104070004FF0004C4CEA00204CEA012121FA03FCED
:10408000B0EB0C0C0FD412F0FE0F36D05FEA4C00F0
:104090001DD5001240EBC25038BF70471CF03F0FD7
:1040A00018BF70470BE0A2F101025FEA1C2040EB51
:1040B000C25038BF70471CF07F0F18BF7047C3F164
:1040C0002003994014BF401E20F001007047800873
:1040D0004FEA122308BF7047B0FA80FCA2EB0C0233
:1040E000CCF1280C60FA0CF093EA122F04BF00EB1D
:1040F000C25070474FEAC3707047130A5FEADC1082
:1041000008BF7047F6E79CEA026F04D010EA5C0F24
:1041100008BF0020704710B5FFF745FF40DFF63EAF
:1041200081F0004070470CF00F03092B08BF0820F6
:1041300000F059800A2B0BD0082B18BF704708BF1E
:104140001CF0400F0AD04FF000004FF00001704704
:104150001CF0400F18BF4FF0004070471CF0100FCC
:1041600008D020F0704300F07F4242EAD3014FEACA
:104170004370704700F0604021F07F4242EA000245
:1041800001F07F4040EA727070474FF0FF0C4CF432
:10419000E06C1CEA11531CBF9CEA030C9445C2BF9F
:1041A000DA4201EB02517047002B0DD0BCF1000F39
:1041B0000FD0002A01F00041A4BF41F0E04141F0DE
:1041C0007F614FF00000704701F000414FF00000A8
:1041D000704750EA01334FF09B0C18BF4CF0806CD5
:1041E0007FF45EA870471CF4801F11D01CF4E02FF0
:1041F00003D06FEACC31490070474FF04050EFF3E5
:10420000008222F0704242EA000282F30088704786
:104210004FF0000070470000000000000000002F79
:10422000000000000700070000147F147F14002422
:104230002A7F2A120062640813230036495522504F
:1042400000000503000000001C2241000000412284
:104250001C000014083E08140008083E080800006E
:1042600000A0600000080808080800006060000066
:10427000002010080402003E5149453E0000427FE4
:104280004000004261514946002141454B31001830
:1042900014127F10002745454539003C4A494930F2
:1042A00000017109050300364949493600064949AC
:1042B000291E0000363600000000563600000008B7
:1042C0001422410000141414141400004122140894
:1042D00000020151090600324959513E007C121179
:1042E000127C007F49494936003E41414122007F0E
:1042F0004141221C007F49494941007F09090901C8
:10430000003E4149497A007F0808087F0000417F4C
:104310004100002040413F01007F08142241007FFE
:1043200040404040007F020C027F007F0408107F65
:10433000003E4141413E007F09090906003E4151CE
:10434000215E007F0919294600464949493100018B
:10435000017F0101003F4040403F001F2040201FDF
:10436000003F4038403F00631408146300070870A2
:10437000080700615149454300007F414100005555
:104380002A552A55000041417F0000040201020421
:10439000004040404040000001020400002054540E
:1043A0005478007F4844443800384444442000385E
:1043B0004444487F00385454541800087E090102D0
:1043C0000018A4A4A47C007F080404780000447DA5
:1043D0004000004080847D00007F102844000000E1
:1043E000417F4000007C04180478007C08040478B5
:1043F00000384444443800FC2424241800182424A1
:1044000018FC007C0804040800485454542000049C
:104410003F444020003C4040207C001C2040201CA9
:10442000003C4030403C004428102844001CA0A020
:10443000A07C004464544C4414141414141400005C
:10444000000000000000000000000000FC00000070
:10445000000002000000000C020C0200000000003E
:10446000000090D0BCD0BC900003000300001824D2
:10447000FE448C000302070201001824D8B04C80CF
:10448000000300010201C038E438E000010202012B
:10449000020208060000000000000000000000000A
:1044A00000F80402000000010204000204F8000009
:1044B0000004020100009060F8609000000001001C
:1044C00000002020FC20200000000100000000006F
:1044D000000000000806000000002020202020002E
:1044E00000000000000000000000000000020000CA
:1044F00000000080601C0200040300000000F804BB
:104500000404F8000102020201000008FC0000009F
:10451000000203020000188444241800030202026F
:10452000020008042424D80001020202010040B065
:1045300088FC80000000000302003C242424C40006
:10454000010202020100F824242CC0000102020230
:1045500001000C04E41C0400000003000000D82447
:104560002424D80001020202010038444444F80027
:104570000003020201000000100000000000020021
:1045800000000000200000000000060000000020E5
:10459000508804020000000001029090909090006A
:1045A000000000000000000204885020000201000A
:1045B00000001804C4241800000002000000F804E1
:1045C000E494F80001020202020000E09CF0800086
:1045D00002030000030204FC2424D80002030202A8
:1045E0000100F80404040C0001020202010004FCB2
:1045F0000404F80002030202010004FC24740C000D
:1046000002030202030004FC24740C0002030200F3
:104610000000F0080444CC4000010202010004FC48
:104620002020FC040203000003020404FC04040034
:10463000020203020200000404FC04040604040352
:10464000000004FC24D00C0402030200030204FC5A
:1046500004000000020302020203FC3CC03CFC0018
:1046600003000300030004FC30C4FC040203020046
:104670000300F8040404F80001020202010004FC33
:1046800024241800020302000000F8848404F800C7
:1046900001020207050004FC2464980002030200E2
:1046A0000302182424448C000302020201000C04BB
:1046B000FC040C0000020302000004FC0000FC04E7
:1046C000000102020100047C80E01C0400000300E1
:1046D00000001CE03CE01C00000300030000049C00
:1046E000609C0400020300030200041CE01C0400A0
:1046F0000002030200000C84641C04000203020296
:1047000003000000FE020200000007040400000E87
:1047100030C00000000000010200000202FE0000A4
:104720000004040700000004020400000000000070
:104730000000000000000000080808080808000049
:10474000020000000000000000000040A0A0C00027
:1047500000010202030204FC2020C0000003020248
:10476000010000C02020600000010202020000C021
:104770002024FC0000010202030200C0A0A0C0002F
:104780000001020202000020F824240400020302B7
:1047900002000040A0A0602000070A0A0A0404FCEE
:1047A0002020C0000203020003020020E4000000F9
:1047B000000203020000000020E4000008080807CF
:1047C000000004FC80E02020020302000302040435
:1047D000FC000000020203020200E020E020C00012
:1047E00003000300030020E02020C00002030200B9
:1047F000030200C02020C00000010202010020E0EE
:104800002020C000080F0A02010000C02020E000A4
:104810000001020A0F0820E04020200002030200ED
:1048200000000060A0A0200000020202030000209F
:10483000F820000000000102020020E00020E0005B
:1048400000010202030220E020806020000003013A
:1048500000006080E0806000000300030000206032
:104860008060200002030003020020E0208060201E
:104870000808070100000020A060200000020302D9
:104880000200000020DE020000000007040000001B
:1048900000FF00000000000F00000002DE2000000A
:1048A00000040700000002010204040200000000EE
:1048B00000000000000000000000000000000000F8
:1048C0000000000000F8000000000000003330008D
:1048D000000000100C06100C060000000000000094
:1048E000000040C07840C0784000043F04043F040A
:1048F0000400007088FC08300000001820FF211E12
:104900000000F008F000E018000000211C031E2148
:104910001E0000F00888700000001E2123241927C3
:10492000211010160E000000000000000000000022
:104930000000000000E0180402000000000718203A
:10494000400000020418E0000000004020180700AA
:104950000000404080F0804040000202010F010250
:104960000200000000F0000000000101011F010131
:104970000100000000000000000080B07000000096
:104980000000000000000000000000010101010122
:1049900001010000000000000000003030000000B5
:1049A000000000000000806018040060180601008C
:1049B000000000E010080810E000000F1020201098
:1049C0000F00001010F8000000000020203F202001
:1049D0000000007008080888700000302824222198
:1049E000300000300888884830000018202020114E
:1049F0000E000000C02010F8000000070424243F2F
:104A0000240000F8088888080800001921202011D7
:104A10000E0000E0108888180000000F11202011FF
:104A20000E0000380808C83808000000003F0000E9
:104A300000000070880808887000001C22212122D4
:104A40001C0000E010080810E000000031222211D4
:104A50000F00000000C0C000000000000030300067
:104A600000000000008000000000000080600000E6
:104A7000000000008040201008000001020408101F
:104A8000200040404040404040000404040404042E
:104A900004000008102040800000002010080402DC
:104AA0000100007048080808F000000000303601DE
:104AB0000000C030C828E810E0000718272423149D
:104AC0000B000000C038E0000000203C2302022759
:104AD000382008F8888888700000203F20202011A6
:104AE0000E00C030080808083800071820202010E1
:104AF000080008F808080810E000203F20202010D7
:104B00000F0008F88888E8081000203F20202320A4
:104B1000180008F88888E8081000203F20000300EB
:104B20000000C03008080838000007182020221EA6
:104B3000020008F808000008F808203F21010121C0
:104B40003F20000808F8080800000020203F20202F
:104B5000000000000808F8080800C08080807F007E
:104B6000000008F888C028180800203F20012638D7
:104B7000200008F8080000000000203F202020202E
:104B8000300008F8F800F8F80800203F003F003F28
:104B9000200008F830C00008F808203F200007185F
:104BA0003F00E01008080810E0000F10202020103F
:104BB0000F0008F808080808F000203F2101010153
:104BC0000000E01008080810E0000F1824243850F6
:104BD0004F0008F8888888887000203F2000030C68
:104BE0003020007088080808380000382021212271
:104BF0001C00180808F8080818000000203F2000D2
:104C0000000008F808000008F808001F20202020F5
:104C10001F000878880000C83808000007380E0117
:104C20000000F80800F80008F800033C0700073C03
:104C30000300081868808068180820302C03032CB3
:104C400030200838C800C83808000000203F200085
:104C5000000010080808C838080020382621202045
:104C60001800000000FE020202000000007F404029
:104C70004000000C30C000000000000000010638B9
:104C8000C00000020202FE000000004040407F0021
:104C90000000000004020202040000000000000006
:104CA0000000000000000000000080808080808004
:104CB00080800002020400000000000000000000EC
:104CC0000000000080808080000000192422222241
:104CD0003F2008F8008080000000003F11202011D4
:104CE0000E000000008080800000000E11202020B7
:104CF0001100000000808088F800000E11202010B4
:104D00003F200000808080800000001F222222229D
:104D10001300008080F0888888180020203F202021
:104D200000000000808080808000006B9494949349
:104D3000600008F8008080800000203F21000020F3
:104D40003F2000809898000000000020203F202095
:104D50000000000000809898000000C08080807FE4
:104D6000000008F8000080808000203F24022D30E1
:104D70002000000808F8000000000020203F20204C
:104D800000008080808080808000203F20003F20C5
:104D9000003F8080008080800000203F21000020B4
:104DA0003F200000808080800000001F2020202005
:104DB0001F00808000808000000080FFA120201163
:104DC0000E000000008080808000000E112020A0D6
:104DD000FF80808080008080800020203F21200094
:104DE000010000008080808080000033242424247F
:104DF0001900008080E0808000000000001F20205B
:104E000000008080000000808000001F2020201013
:104E10003F20808080000080808000010E300806E6
:104E2000010080800080008080800F300C030C30F7
:104E30000F0000808000808080000020312E0E3125
:104E40002000808080000080808080818E70180625
:104E5000010000808080808080000021302C222191
:104E6000300000000000807C020200000000003FD3
:104E7000404000000000FF00000000000000FF00B4
:104E800000000002027C800000000040403F000063
:104E900000000006010102020404000000000000FE
:104EA0000000000000000000000000000000000002
:104EB00000000000000000000000000000000000F2
:104EC0000000000000000000000000F0F0F0000012
:104ED00000000000000000017F0100000000000051
:104EE0000000001C1C1C0000000000008060301C42
:104EF0008C60301C0C00000000000000000000006E
:104F000000000000000000000000000000000000A1
:104F100000E00000000000E000000086E69F8686BA
:104F20008686E69F860000011F01010101011F0125
:104F30000100000080C06020F820E0C000000000F8
:104F400003070C18FF70E18100000000070F10102C
:104F50007F100F0700008060206080000000E020CC
:104F600000000F3020309F70DC371030C000000090
:104F7000100E03000718101807000000C02020E0E2
:104F8000C0000000000080E01F38E88703C43C0434
:104F90000000070F1810100B070D101008000080FC
:104FA0008C4C3800000000000000000000000000F1
:104FB00000000000000000000000000000000000F1
:104FC000000000000000000080E030080400000045
:104FD000000000FEFF0100000000000000000000D3
:104FE000030F1820400000040830E080000000009B
:104FF00000000000000001FFFE0000000000004073
:1050000020180F0300000000000000000000000056
:10501000C00000000000004266663C18FF183C66B5
:1050200066420000000000000300000000000000D5
:1050300000000000800000000000001010101010A0
:10504000FF1010101010000000000000030000000E
:105050000000000000000000000000000000000050
:105060000000000000000000000000808C4C3800B0
:105070000000000000000000000000000000000030
:105080000000001010101010101010101000000080
:105090000000000000000000000000000000000010
:1050A0000000000000000000000000000000000000
:1050B000000000001C1C1C0000000000000000009C
:1050C000000000000000E0380C00000000008070CC
:1050D0001C03000000000060380E0100000000000A
:1050E0000000000080C060202060C080000000FE42
:1050F000FF010000000001FFFE000001070E181074
:1051000010180E0701000000808080C0E000000041
:1051100000000000000000FFFF0000000000000091
:105120001010101F1F1010100000008040202020C1
:105130002060C080000000030300804020381F076B
:105140000000001C1A1918181818181F00000080F9
:10515000C020202060C08000000000030300101069
:10516000182FE780000000070F10101010180F070D
:105170000000000000000000C0E0F000000000C0DF
:10518000B088868180FFFF80800000000000001052
:10519000101F1F1010000000E06060606060606021
:1051A000000000003F1008080818F0E000000007A9
:1051B0000B101010101C0F030000000080C04020D6
:1051C0002020E0C0000000FCFF211008080818F0B3
:1051D000E0000001070C18101010080F0300000079
:1051E000C0E06060606060E06000000003000000FC
:1051F000E0180700000000000000001F1F00000072
:1052000000000080C0602020202060C08000008757
:10521000EF2C1818303068CF830000070F081010EB
:105220001010180F07000000C0C020202020C080F0
:105230000000001F3F604040402010FFFE000000C3
:105240000C1C101010080F030000000000000000EC
:1052500000000000000000000000000E0E0E000024
:10526000000000000000001C1C1C000000000000EA
:105270000000000000000000000000000000000C22
:105280000C00000000000000000000583800000082
:10529000000000000000000000804020100000001E
:1052A00010284482010000000000000000000000FF
:1052B00001020408100000000000000000000000CF
:1052C00000000084848484848484848484000000B6
:1052D00000000000000000000000000010204080DE
:1052E00000000000000000000000000001824428CF
:1052F000100000001008040201000000000000C0BF
:1053000020201010101030E0C0000003030000F057
:1053100010080C070300000000001C1C1C0000000B
:105320000000000000C0406020202040C00000FCC1
:10533000FF01F00E03C1FE03807F0001070E08117C
:105340001110110904020000000080E0E0000000DC
:1053500000000000807C4340477FF8800000101868
:105360001F1000000000131F1C1020E0E020202070
:105370002060C080000000FFFF10101010182FE701
:105380008000101F1F1010101010180F07000000D1
:1053900080C0402020202060E00000FCFF010000D1
:1053A0000000000001000001070E18101010080492
:1053B000030020E0E02020202040C080000000FF0B
:1053C000FF000000000001FFFE00101F1F10101062
:1053D00018080E07010020E0E02020202020206097
:1053E000800000FFFF101010107C00000000101F54
:1053F0001F10101010101018060020E0E0202020D0
:1054000020206060800000FFFF101010107C000062
:105410000100101F1F10000000000000000000002D
:1054200080C06020202040E0000000FCFF01000060
:105430004040C0C140400001070E181010100F0F6F
:10544000000020E0E0200000000020E0E02000FF5D
:10545000FF101010101010FFFF00101F1F10000091
:105460000000101F1F100000202020E0E02020205E
:1054700000000000000000FFFF000000000000002E
:105480001010101F1F10101000000000000020203E
:1054900020E0E020202000000000000000FFFF00CE
:1054A00000000060E0808080C07F3F00000020E0BE
:1054B000E020000020A06020200000FFFF30187CCA
:1054C000E3C000000000101F1F10000001131F1C8C
:1054D000181020E0E020000000000000000000FFA5
:1054E000FF000000000000000000101F1F1010103F
:1054F00010101018060020E0E0E000000000E0E0DE
:10550000E02000FF013FFEC0E01E01FFFF00101F72
:105510001000031F0300101F1F1020E0E0C0000058
:1055200000000020E02000FF0003071C78E080005E
:10553000FF00101F100000000000030F1F000000FC
:1055400080C060202060C080000000FEFF010000DD
:10555000000000FFFE000001070E181010180C07D5
:10556000010020E0E0202020202060C0800000FF1B
:10557000FF2020202020301F0F00101F1F100000D0
:10558000000000000000000080C060202060C0809B
:10559000000000FEFF010000000000FFFE0000010F
:1055A000070E1111133C7C67210020E0E020202031
:1055B000202060C0800000FFFF101030F0D0080FE6
:1055C0000700101F1F10000000030F1C10100080A8
:1055D000C060202020204040E00000070F0C181879
:1055E000303060E08100001F0C0810101010180F00
:1055F00007008060202020E0E02020206080010063
:10560000000000FFFF000000000100000000101F6C
:105610001F100000000020E0E0200000000000203B
:10562000E02000FFFF00000000000000FF00000776
:105630000F1810101010100807002060E0E0200084
:10564000000020E060200000077FF88000807C03DD
:10565000000000000000071F1C070000000020E001
:10566000E02000E0E0200020E0200007FFF8E01F3D
:10567000FFFCE01F00000000031F0300011F0300E8
:105680000000002060E0A0000020E060200000009A
:1056900000038F7CF8C6010000000010181E1300E4
:1056A00001171F1810002060E0E02000000020E03B
:1056B0006020000001073EF8E0180700000000002D
:1056C0000010101F1F10100000000080602020201C
:1056D00020A0E0E0200000000000C0F03E0F03002A
:1056E000000000101C1F17101010101806000000FA
:1056F000000000FC0404040404000000000000FF9B
:1057000000000000000000000000007F404040401A
:105710004000000010E00000000000000000000059
:105720000000031C6080000000000000000000007A
:1057300000030C70800000000404040404FC00005A
:10574000000000000000000000FF0000000000005A
:1057500040404040407F0000000000000010080C66
:10576000040C081000000000000000000000000011
:105770000000000000000000000000000000000029
:105780000000000000000000000000000000000019
:105790000000000000008080808080808080808009
:1057A00080800000000404080800000000000000E1
:1057B00000000000000000000000000000000000E9
:1057C00000000000000000000000000000000000D9
:1057D0000000000098D844642424FCF80000000F66
:1057E0001F18101010081F1F10180020E0F00000F4
:1057F0000000000000000000FFFF180804040CF87F
:10580000F00000001F0F18101010180F0300000008
:105810000000000000000000000000E0F818040490
:10582000043C3800000000030F0C10101010080694
:1058300000000000000000000020E0F0000000E098
:10584000F81C04040408FFFF000000030F181010E8
:1058500010081F0F080000000000000000000000FA
:1058600000000000E0F8484444444C787000000018
:10587000030F0C181010100804000000000080C076
:10588000602020E0C00000040404FFFF04040404BE
:105890000000000010101F1F10101000000000007A
:1058A00000000000000000000000000070F88C0400
:1058B000048CF874040C007076CF8D8D8D89C878B7
:1058C00070000020E0F00000000000000000000078
:1058D000FFFF08040404FCF8000000101F1F100064
:1058E00000101F1F1000000000000060600000009A
:1058F00000000000040404FCFC00000000000000A4
:105900001010101F1F1010100000000000000000F9
:1059100000606000000000000000040404FCFC00C3
:1059200000000000C0C08080C07F3F000000002059
:10593000E0F000000000000000000000FFFF80C059
:10594000F41C0404000000101F1F1100031F1C1092
:1059500010000000202020E0F00000000000000007
:10596000000000FFFF000000000000001010101FEA
:105970001F101010000000000000000000000000D8
:10598000000004FCFC0804FCFC0804FCFC00101FE4
:105990001F10001F1F10001F1F100000000000003C
:1059A0000000000000000004FCFC08080404FCF8EF
:1059B000000000101F1F100000101F1F100000002B
:1059C0000000000000000000000000E0F0180C04DF
:1059D000040C18F0E00000030F0C101010100C0F56
:1059E00003000000000000000000000000000004B0
:1059F000FCFC080404040CF8F0000080FFFF889011
:105A000010101C0F03000000000000000000000048
:105A1000000000E0F81C04040408F8FC0000000387
:105A20000F1810109088FFFF800000000000000099
:105A3000000000000000040404FCFC100804040C36
:105A40000C001010101F1F101010000000000000AC
:105A50000000000000000000000000003078CCC40E
:105A60008484840C1C0000001E1810101011190FE3
:105A700006000000000000C000000000000000045C
:105A80000404FFFF040404000000000000000F1FD6
:105A90001010100C000000000000000000000000CA
:105AA00000000004FCFE00000004FCFE00000000FA
:105AB0000F1F181010081F0F080000000000000042
:105AC00000000000000000040C3CFCC40000C43CCA
:105AD0000C0400000000010F1E0E01000000000079
