:020000040800F2
:10000000A0070020D5010008DF160008D716000859
:10001000DB160008C10500088D190008000000006B
:100020000000000000000000000000000D170008A4
:10003000C505000800000000E11600080F170008C1
:10004000EF010008EF010008EF010008EF010008D0
:10005000EF010008EF010008EF010008EF010008C0
:10006000EF010008EF010008EF010008EF010008B0
:10007000EF010008EF010008EF010008EF010008A0
:10008000EF010008EF010008EF010008EF01000890
:10009000EF010008EF010008EF010008EF01000880
:1000A000EF010008EF010008EF010008EF01000870
:1000B000EF010008EF010008EF010008EF01000860
:1000C000EF010008EF010008EF010008EF01000850
:1000D000EF01000869190008EF010008EF010008AE
:1000E000EF010008EF010008EF010008EF01000830
:1000F000EF010008EF010008EF010008EF01000820
:10010000EF010008EF010008EF010008EF0100080F
:10011000EF010008EF010008EF010008EF010008FF
:10012000EF010008EF010008EF010008EF010008EF
:1001300000F002F800F03FF80AA090E8000C8244BA
:100140008344AAF10107DA4501D100F034F8AFF297
:10015000090EBAE80F0013F0010F18BFFB1A43F0A5
:10016000010318474C9400006C940000103A24BF1F
:1001700078C878C1FAD8520724BF30C830C144BF0C
:1001800004680C607047000000230024002500264E
:10019000103A28BF78C1FBD8520728BF30C148BFEA
:1001A0000B607047782900F07F80002070471FB5F2
:1001B0001FBD10B510BD00F0D1F91146FFF7F7FFD4
:1001C00005F0C0FF00F0EFF903B4FFF7F2FF03BC46
:1001D00001F001FC0948804709480047FEE7FEE7B7
:1001E000FEE7FEE7FEE7FEE7FEE7FEE7FEE7FEE7E7
:1001F00004480549054A064B7047000017170008D8
:1002000031010008A0010020A0070020A003002069
:10021000A0030020704700000FB4044910B503AAE2
:10022000029800F085F910BC5DF814FB080000206E
:100230000FB41CB5074B06AA7B446946009005988D
:1002400000F05DF90020694600F06CF91CBC5DF817
:1002500014FB0000E902000070B5044685690068DF
:10026000C10601D5302600E02026C00707D070BDAA
:10027000D4E9012130469047206A401C20626D1E5F
:10028000F6D570BD70B5044685690078C00707D102
:1002900070BDD4E9012120209047206A401C2062D3
:1002A0006D1EF6D570BD000070B504460D462146A2
:1002B0001068AFF300802188090502D50F4A7A44FF
:1002C00002E00E4A7A440E32002104F1240305E0D4
:1002D00000F00F060009965D5E54491C0028F7D116
:1002E00020780023000704D5702D02D009B1022325
:1002F00011322046BDE8704000F0A2B8B292000072
:100300002DE9F05F894604464FF0000ADFF824B17A
:10031000FB44C0F820A02046E168884700287DD033
:10032000252806D0D4E901219047206A401C20628C
:10033000F1E700255F462046E16888472028064609
:1003400007DB312E05D2B81910F8200C08B105438F
:10035000F1E7A80701D525F00405C4F81CA0002783
:10036000C4F818A02A2E09D0304601F02DFB38B36E
:1003700004EB8708303EC8F8186019E059F8041BF0
:10038000204604EB87029161E1688847012F064609
:1003900018D1E069002820DA25F020051DE0D8F802
:1003A000180000EB800006EB40003038C8F8180059
:1003B0002046E1688847064601F006FB0028EED19A
:1003C000012F0AD02E2E08D12046E16888477F1CD5
:1003D0000646022F45F02005C4DBA069002803DA99
:1003E000404245F00105A061E80701D025F0100565
:1003F000A6B1A6F14100192802D8203645F40065BF
:100400004A463146204625604D46FFF7CBFE60B197
:10041000012807D0ED1D25F0070000E007E000F1FE
:10042000080978E705F1040975E730467AE7206A9C
:10043000BDE8F09F88920000704770477047704792
:100440002DE9F0470D4699469246044600F12408EE
:100450000168880604D5E06921F01001216000E000
:100460000120A84201DD471B00E00027A1697A199D
:1004700002EB0900081AA0612078C00602D42046C9
:10048000FFF7EAFE002608E0D4E901211AF8060089
:100490009047206A401C761C20624E45F4DB207891
:1004A000C0060AD52046FFF7D7FE06E0D4E90121B1
:1004B00030209047206A401C2062381EA7F10107B7
:1004C000F4DC07E0D4E9012118F805009047206A20
:1004D000401C2062281EA5F10105F3DC2046FFF731
:1004E000D1FE2078000602D50220BDE8F087012069
:1004F000FBE7000001694A1C02610878704700B5FB
:100500008FB0CDE901310021059105497944CDE94C
:10051000031011466846FFF7F3FE0FB000BD000060
:10052000E5FFFFFF0A6802F8010B0A607047000050
:10053000074B70B50D467B44FFF7E1FF04462846A4
:1005400000F008F810B14FF0FF3070BD204670BDCC
:100550004F150000007B00F080007047754600F0EA
:100560002BF8AE4605006946534620F00700854645
:1005700018B020B5FFF73CFEBDE820404FF0000664
:100580004FF000074FF000084FF0000B21F007017B
:10059000AC46ACE8C009ACE8C009ACE8C009ACE8BE
:1005A000C0098D46704710B50446AFF30080204661
:1005B000BDE81040FFF708BE004870473C0100202E
:1005C00000BFFEE77047000070B50446002594F8B0
:1005D0002100022803D00420A0630125C1E0206887
:1005E000006820F00E00216808602068006820F094
:1005F0000100216808605C492068884252D95A4944
:1006000078392068884201D1012047E05649643991
:100610002068884201D1102040E0534950392068B9
:10062000884201D1801539E04F493C392068884221
:1006300001D1801432E04C4928392068884202D127
:100640004FF480302AE0484914392068884202D1AA
:100650004FF4801022E044492068884201D14004D0
:100660001CE042492068884201D1012016E03F4940
:1006700014312068884201D110200FE03B49283115
:100680002068884201D1801508E038493C31206853
:10069000884201D1801401E04FF480303349091FB2
:1006A000086051E0304978392068884201D1012042
:1006B00047E02D4964392068884201D1102040E08C
:1006C000294950392068884201D1801539E02649EE
:1006D0003C392068884201D1801432E0224928390F
:1006E0002068884202D14FF480302AE01E49143934
:1006F0002068884202D14FF4801022E01A49206815
:10070000884201D140041CE018492068884201D188
:10071000012016E0154914312068884201D11020CB
:100720000FE0124928312068884201D1801508E085
:100730000E493C312068884201D1801401E04FF419
:100740008030094980394860012084F8210000BFC9
:10075000002084F8200000BF606B10B12046616B60
:100760008847284670BD000080000240080402400F
:100770002DE9F847024600239C467BE14FF0010833
:1007800008FA03F4D1F8008008EA0400A0427DD101
:10079000DFF8F4A2D1F80480A8EB0A09D0453AD0DA
:1007A00014DCB8F1030F50D009DCB8F1000F31D0E0
:1007B000B8F1010F1CD0B8F1020F49D120E0B8F117
:1007C000110F18D0B8F1120F42D11EE0B9F5881FF1
:1007D00025D006DCB9F5803F20D0B9F5801F37D190
:1007E0001AE0B9F5001F18D0B9F5041F30D117E091
:1007F000D1F80CC02DE0D1F80C8008F1040C28E0F1
:10080000D1F80C8008F1080C23E0D1F80C8008F135
:100810000C0C1EE000BF00BF00BF00BF00BF00BF48
:10082000D1F80880B8F1000F02D14FF0040C0BE0B2
:10083000D1F80880B8F1010F03D14FF0080C146112
:1008400002E04FF0080C546103E04FF0000C00E0B0
:1008500000BF00BFFF2801D8904601E002F1040864
:100860004646FF2802D84FEA830803E0A3F10808B0
:100870004FEA88084746D6F800804FF00F0909FA7A
:1008800007F928EA09080CFA07F900E07AE048EAD3
:100890000908C6F80080D1F8048008F08058B8F143
:1008A000805F6FD100BFDFF8E481D8F8188048F08E
:1008B0000108DFF8D891C9F81880C846D8F8188020
:1008C00008F00108CDF8008000BF00BF4FEAB9383A
:1008D0004FEA930958F829504FEA83784FEA18797C
:1008E0004FF00F0808FA09F825EA0805DFF8A0819B
:1008F000424502D14FF0000824E0DFF898814245DC
:1009000002D14FF001081DE0DFF88C81424502D191
:100910004FF0020816E0DFF88481424502D14FF023
:1009200003080FE0DFF87881424502D14FF0040858
:1009300008E0DFF87081424502D14FF0050801E080
:100940004FF006084FEA83794FEA197908FA09F857
:1009500048EA0505DFF850814FEA930948F8295025
:10096000D1F8048008F48038B8F5803F0BD1DFF867
:100970003C81D8F8008048EA0008DFF83091C9F8D7
:1009800000800AE075E0DFF82481D8F8008028EACA
:100990000008DFF81891C9F80080D1F8048008F445
:1009A0000038B8F5003F0ED1DFF8008108F10408E7
:1009B000D8F8008048EA0008DFF8F09009F104094F
:1009C000C9F800800DE0DFF8E48008F10408D8F8E9
:1009D000008028EA0008DFF8D49009F10409C9F87A
:1009E0000080D1F8048008F48018B8F5801F0ED17B
:1009F000DFF8B88008F10808D8F8008048EA000855
:100A0000DFF8A89009F10809C9F800800DE0DFF8C7
:100A10009C8008F10808D8F8008028EA0008DFF870
:100A20008C9009F10809C9F80080D1F8048008F415
:100A30000018B8F5001F0ED1DFF8708008F10C081F
:100A4000D8F8008048EA0008DFF8609009F10C0946
:100A5000C9F800800DE0DFF8548008F10C08D8F8E0
:100A6000008028EA0008DFF8449009F10C09C9F871
:100A700000805B1CD1F8008028FA03F8B8F1000F61
:100A80007FF47CAEBDE8F887000011100010024032
:100A900000080140000C014000100140001401401A
:100AA00000180140001C0140080001400004014002
:100AB00010B5C26821EA020302EA010443EA0443D2
:100AC000036110BD0AB1016101E00B0403617047CD
:100AD00001480068704700001000002003480068CB
:100AE0000349097808440149086070471000002054
:100AF0001800002010B50848006840F010000649B2
:100B00000860052000F080F80F2000F007F800F0E2
:100B10002BF8002010BD00000020024070B50446F4
:100B20000E4800784FF47A71B1FBF0F00C49096877
:100B3000B1FBF0F5284600F0F7FB08B1012070BDCD
:100B4000102C07D200222146501E00F01EF8054846
:100B5000046001E00120F2E70020F0E71800002027
:100B600000000020140000207047014608460028BD
:100B700009DB00F01F0301229A4043099B0003F1A7
:100B8000E023C3F8002100BF70472DE9F05F8046E5
:100B90000D461646002700F0FBFE074639462A465A
:100BA000334601F00700C0F1070ABAF1040F02D979
:100BB0004FF0040A01E0C0F1070AD14600F1040A2F
:100BC000BAF1070F02D24FF0000A01E0A0F1030AC8
:100BD000D4464FF0010A0AFA09FAAAF1010A0AEA10
:100BE000020A0AFA0CFA4FF0010B0BFA0CFBABF1FC
:100BF000010B0BEA030B4AEA0B042146404600F0C6
:100C0000CFFEBDE8F09F000000BF00F00702064BDA
:100C100019684FF6FF031940044B0B4343EA0221C6
:100C2000014B196000BF70470CED00E00000FA05B1
:100C300070B504460D460CB9012070BD5A480068D5
:100C400000F00700A8420ED25748006820F00700C5
:100C50002843554908600846006800F00700A8428C
:100C600001D00120E9E7207800F0020002281DD120
:100C7000207800F00400042805D14C48406840F476
:100C8000E0604A494860207800F00800082805D153
:100C90004648406840F460504449486043484068D2
:100CA00020F0F000A168084340494860207800F037
:100CB000010078B36068012806D13C48006800F460
:100CC000003090B90120B8E76068022806D13748A3
:100CD000006800F0007040B90120AEE733480068BA
:100CE00000F0020008B90120A7E73048406820F072
:100CF0000300616808432D494860FFF7E9FE064696
:100D000009E0FFF7E5FE801B41F28831884202D9F5
:100D1000032092E707E02548406800F00C00616876
:100D2000B0EB810FEDD12048006800F00700A84229
:100D30000ED91D48006820F0070028431A490860B2
:100D40000846006800F00700A84201D0012074E7BF
:100D5000207800F00400042807D11448406820F4EB
:100D6000E060E168084311494860207800F008001D
:100D7000082808D10D48406820F46050216940EAF5
:100D8000C1000A49486000F03FF808494968C1F3CA
:100D90000311074A515CC8400649086006480068CC
:100DA000FFF7BCFE002048E7002002400010024090
:100DB000DC650008000000201400002001480068E5
:100DC000704700000000002000B5FFF7F7FF04495E
:100DD0004968C1F30221034A515CC84000BD0000CC
:100DE00000100240EC65000800B5FFF7E7FF04497A
:100DF0004968C1F3C221034A515CC84000BD0000EC
:100E000000100240EC650008F0B585B00FF26C0CE4
:100E10009CE8E01001A8A0E8E0101CA52D68009552
:100E200000210022002300240020194D696801F0F0
:100E30000C05F5B1042D02D0082D19D101E015489B
:100E400019E001ADC1F38346AC5D01F4803555B1C5
:100E50000F4D6D68C5F340451DF805200D4D6543E8
:100E6000B5FBF2F302E00C4D04FB05F3184602E07B
:100E700000BF084800BF00BF05B0F0BD0203040575
:100E8000060708090A0B0C0D0E0F101001020000D6
:100E90000010024000127A0000093D00F8B5044637
:100EA0000CB90120F8BD207800F00100002878D0AE
:100EB000F848406800F00C0004280CD0F548406861
:100EC00000F00C00082811D1F248406800F480308E
:100ED000B0F5803F0AD1EF48006800F400300028E8
:100EE0005FD0606800285CD10120DBE700BF60684C
:100EF000B0F5803F06D1E748006840F48030E5490E
:100F0000086028E0606858B9E248006820F4803042
:100F1000E04908600846006820F4802008601AE074
:100F20006068B0F5A02F0BD1DA48006840F480204B
:100F3000D84908600846006840F4803008600AE03C
:100F4000D448006820F48030D24908600846006820
:100F500020F48020086000BF606888B1FFF7B8FD0A
:100F6000054606E0FFF7B4FD401B642801D90320C5
:100F700098E7C848006800F400300028F2D010E07C
:100F8000FFF7A6FD054606E0FFF7A2FD401B64281B
:100F900001D9032086E7BF48006800F4003000282C
:100FA000F2D1207800F00200022857D1B9484068F9
:100FB00000F00C0050B1B748406800F00C00082861
:100FC00018D1B448406800F4803098B9B14800683E
:100FD00000F0020020B12069012801D0012061E762
:100FE000AC48006820F0F800616940EAC100A949F6
:100FF000086033E02069E8B10120A7490860FFF7E5
:1010000067FD054606E0FFF763FD401B022801D996
:10101000032047E79F48006800F002000028F2D054
:101020009C48006820F0F800616940EAC1009949D5
:10103000086013E0002098490860FFF749FD054665
:1010400006E0FFF745FD401B022801D9032029E7F0
:101050009048006800F002000028F2D1207800F0EB
:10106000080008282DD1A069B8B101208B4908607B
:10107000FFF72EFD054606E0FFF72AFD401B02287C
:1010800001D903200EE78348406A00F002000028DF
:10109000F2D0012000F026FB13E000207F49086019
:1010A000FFF716FD054606E0FFF712FD401B02287C
:1010B00001D90320F6E67748406A00F002000028D4
:1010C000F2D1207800F00400042873D10027714881
:1010D000C06900F0805070B900BF6E48C06940F030
:1010E00080506C49C8610846C06900F0805000908B
:1010F00000BF00BF01276A48006800F48070B0B9E3
:101100006748006840F4807065490860FFF7E0FCBC
:10111000054606E0FFF7DCFC401B642801D90320EC
:10112000C0E65F48006800F480700028F2D000BF7D
:10113000E068012806D15748006A40F0010055498F
:10114000086227E0E06858B95248006A20F00100C0
:10115000504908620846006A20F00400086219E05D
:10116000E06805280BD14B48006A40F0040049496B
:1011700008620846006A40F0010008620AE045483B
:10118000006A20F00100434908620846006A20F026
:101190000400086200BFE068A0B1FFF799FC0546B3
:1011A00009E0FFF795FC401B41F28831884202D9E3
:1011B000032077E622E03748006A00F002000028AA
:1011C000EFD012E0FFF784FC054608E0FFF780FC53
:1011D000401B41F28831884201D9032062E62D4844
:1011E000006A00F002000028F0D1012F05D1294843
:1011F000C06920F080502749C86100BFE069C8B3CA
:101200002448406800F00C00082860D0E0690228FB
:1012100048D1002020490866FFF75AFC054606E041
:10122000FFF756FC401B022801D903203AE6194873
:10123000006800F000700028F2D1206AB0F5803F0D
:1012400007D11448406820F40030A16808431149D0
:101250004860D4E9080108430E49496821F4741133
:1012600008430C49486001200B490866FFF730FC31
:10127000054607E03DE0FFF72BFC401B022801D9A3
:1012800003200FE60348006800F000700028F2D049
:101290002FE0000000100240000042428004424261
:1012A00000700040002014490866FFF711FC054655
:1012B00006E0FFF70DFC401B022801D90320F1E5F1
:1012C0000E48006800F000700028F2D111E0E069DB
:1012D000012800D1E6E50948466806F48031206A15
:1012E000814204D106F47011606A814201D001206C
:1012F000D8E50020D6E50000000042420010024080
:10130000042808D14FF0E021096941F004014FF0B1
:10131000E022116107E04FF0E021096921F00401AA
:101320004FF0E0221161704770B504462546681EF3
:10133000B0F1807F01D301200FE0681E4FF0E02163
:1013400048610F214FF0FF3000F02AFB00204FF0E2
:10135000E021886107200861002070BD704700000F
:101360002DE9F0470446206805682068C6682068B3
:1013700047694FF00008C14605F00F08B8F1000FAB
:101380000AD105F0200038B106F0200020B1204637
:1013900000F0ECF9BDE8F087B8F1000F71D007F06C
:1013A000010018B906F4907000286AD005F0010019
:1013B00030B106F4807018B1E06B40F00100E063DA
:1013C00005F0040030B107F0010018B1E06B40F007
:1013D0000200E06305F0020030B107F0010018B12F
:1013E000E06B40F00400E06305F0080048B106F04F
:1013F000200010B907F0010018B1E06B40F00800C0
:10140000E063E06B68B305F0200028B106F020002F
:1014100010B1204600F0AAF920684069C0F3801995
:10142000E06B00F0080010B9B9F1000F22D020469F
:1014300000F07CF92068406900F04000B0B12068FD
:10144000406920F0400021684861606B50B1184845
:10145000616B4863606BFFF7B7F810B1606B416B6D
:1014600088470CE02046FFF779FF08E02046FFF7A9
:1014700075FF04E02046FFF771FF0020E06389E775
:10148000FFE705F0800030B106F0800018B120467B
:1014900000F03AFA7EE705F0400030B106F0400077
:1014A00018B1204600F052F974E700BF72E700005F
:1014B0001917000810B504460CB9012010BDA06929
:1014C00000B100E000BF94F8390028B9002084F88A
:1014D0003800204600F028F8242084F839002068DD
:1014E000C06820F400502168C860204600F08EF9E2
:1014F0002068006920F490402168086120684069F4
:1015000020F02A00216848612068C06840F400503B
:101510002168C8600020E063202084F8390084F846
:101520003A000020CAE7000010B586B004462849FA
:10153000206888424AD100BF00BF2648806940F039
:101540000400244988610846806900F00400019085
:1015500000BF00BF00BF00BF00BF0846806940F069
:10156000040088610846806900F00400019000BF13
:1015700000BF00BF00BF00BF0846806940F4804044
:1015800088610846806900F48040019000BF00BF78
:1015900000BF481502900220039001200490032010
:1015A000059002A90C48FFF7E3F84FF48060029021
:1015B0000020039002A90848FFF7DAF82520FFF77A
:1015C000D4FA032211462520FFF7DFFA06B010BD3A
:1015D00000380140001002400008014010B50346E9
:1015E00093F83A0020282FD101B10AB9012010BD8B
:1015F00000BF93F83800012801D10220F7E701204D
:1016000083F8380000BF99629A85DA850020D86394
:10161000222083F83A0000BF002083F8380000BF82
:101620001868C06840F480701C68E0601868406901
:1016300040F001001C6860611868C06840F020003C
:101640001C68E0600020D2E70220D0E71D4A016854
:10165000914236D11C49098801F4004189BB1A49DD
:10166000098801F4804171B1184909780A2903D029
:101670000021154A118024E01349098841F40041F2
:10168000114A11801DE0114909780D2906D10E4932
:10169000098841F480410C4A118012E00B49097815
:1016A000094A1288C2F30D02094B99540649098868
:1016B000491C054A118011460988C72901DD00210E
:1016C00011807047003801400C0000200E000020FF
:1016D00024000020704700BFFEE700BFFEE7704710
:1016E0007047000008B508490968C9084FF47A72C4
:1016F000B1FBF2F14143009100BF00BF00994A1EC7
:1017000000920029F9D108BD00000020704710B5F3
:10171000FFF7E4F910BD704770B505466C6A00200C
:10172000E085E0842046FFF719FE70BD0168C968B6
:1017300021F490710268D1600168496921F00101CA
:1017400002685161202180F83A10704710B50446B4
:101750002068C06820F040002168C860202084F81C
:1017600039002046FFF7B6FF002010BD70B50446D3
:1017700094F83A00222847D1A068B0F5805F0CD1D8
:10178000206950B90025A66A20684068C0F30800A7
:101790003080A06A801CA06215E0A56A0026A068BF
:1017A000B0F5805F03D0A06828B9206918B9206817
:1017B0004068287004E02068406800F07F002870CE
:1017C000A06A401CA062E08D401E80B2E085C8B9CE
:1017D0002068C06820F020002168C8602068C068C8
:1017E00020F480702168C8602068406920F0010002
:1017F00021684861202084F83A002046FFF726FF40
:10180000002070BD0020FCE70220FAE770B5044616
:101810002168096921F44051E2681143226811618D
:101820002269A1681143626941EA02052168C96819
:1018300041F20C62914329432268D16021684969D1
:1018400021F44071A2691143226851612D4A216837
:10185000914202D1FFF7C8FA01E0FFF7B5FA00EBB9
:10186000C00101EB001162689200B1FBF2F100EBE4
:10187000C00202EB001263689B00B2FBF3F2642328
:10188000B2FBF3F202EBC20303EB0212A1EB820103
:10189000322202EB01116422B1FBF2F101F0F001FE
:1018A00000EBC00202EB001263689B00B2FBF3F294
:1018B0006423B2FBF3F201EB021200EBC00101EB77
:1018C000001163689B00B1FBF3F100EBC00303EB75
:1018D00000136668B600B3FBF6F36426B3FBF6F3B9
:1018E00003EBC30606EB0313A1EB8301322303EBE7
:1018F00001116423B1FBF3F101F00F0111442268DF
:10190000916070BD00380140014691F839002128EE
:1019100028D18868B0F5805F0BD1086948B90A6A98
:101920001088C0F308000B685860086A801C0862C1
:1019300005E00B6A581C086218780B685860C88C60
:10194000401E80B2C88458B90868C06820F0800082
:101950000B68D8600868C06840F040000B68D86029
:10196000002070470220FCE710B50648FFF7F8FC9E
:1019700000BF012204490348FFF730FE0028F8D1D8
:1019800010BD0000EC0000200E00002000BFFEE7AC
:1019900002480068C0F30220704700000CED00E030
:1019A00010B5002804DB0A07130E054A135406E09D
:1019B0000A07140E034A00F00F031B1FD45410BD76
:1019C00000E400E018ED00E030380A2801D20120E0
:1019D00070470020704700BF7047000010B50446F4
:1019E00000204FF0E0210861FFF78AFC2046E11754
:1019F00004EB5171C1F3CF01014A118010BD000009
:101A00000400002070B504464FF47A7094FBF0F5A2
:101A100094FBF0F100FB114603E0074800F00EF8DC
:101A20006D1E002DF9D12EB14FF47A7106FB01F035
:101A300000F004F870BD000040420F000146114A5A
:101A400012884A434FF0E0235A6100229A611A46F5
:101A5000126942F001021A6100BF4FF0E0221069E2
:101A600000F001021AB100F48032002AF5D04FF0E4
:101A7000E022126922F001024FF0E0231A610022F5
:101A80009A6170470400002000BF054A126802F006
:101A90004002002AF9D0C2B2014B1B1D1A607047E8
:101AA0000038014078B5044600261B480588408868
:101AB00045430021084603F03FFF00BF1648008958
:101AC00000904FF080701549086140000861BDF832
:101AD0000000134908604FF400001049086180209D
:101AE00008618000086100BF00BF40100861400429
:101AF000086100BF08E00A4804604FF4000007498D
:101B0000086180200861761CAE42F4D34FF4007067
:101B10000249086178BD00002C010020001001403E
:101B20000C0C014010B5044649488471002C45D185
:101B3000F020474908804FF4A0704880084680880C
:101B400045F21051884210D14FF43050404908817D
:101B50004FF4285048814FF42C5088814FF4F07096
:101B600008804FF4487048801AE03948808841F670
:101B7000631188420DD12C20354908812B204881E2
:101B80002A2088814FF4F07008804FF44870488014
:101B900006E02C202E4908812A2048812B208881AC
:101BA0002B48808845F2103188424CD14FF4A07008
:101BB000274908804FF4F070488044E04FF4A0704B
:101BC00023490880F02048800846808845F210515B
:101BD000884210D14FF430501D4908814FF42850ED
:101BE00048814FF42C5088814FF4487008804FF49E
:101BF000F07048801AE01648808841F663118842E8
:101C00000DD12C20124908812A2048812B2088815F
:101C10004FF4487008804FF4F070488006E02C20A4
:101C20000B4908812A2048812B2088810848808818
:101C300045F21031884206D14FF4F0700449088013
:101C40004FF4A0704880002003F0E8FB10BD0000B6
:101C50002C01002078B505460E461446314628462C
:101C600003F06AFE00BF1248008900904FF08070B8
:101C70001049086140000861BDF800000E49086085
:101C80004FF400000B490861802008618000086162
:101C900000BF00BF401008614004086106480460AE
:101CA0004FF400000861802008618000086178BD61
:101CB0002C010020001001400C0C014008B5CF2081
:101CC00000904FF08070FE49086140000861BDF847
:101CD0000000FC4908604FF40000F94908618020C9
:101CE00008618000086100BF002004F0A7F9C1204E
:101CF00004F0A4F9302004F0A1F9ED2000904FF099
:101D00008070EF49086140000861BDF80000ED49AE
:101D100008604FF40000EA490861802008618000F3
:101D2000086100BF642004F089F9032004F086F9FB
:101D3000122004F083F9812004F080F9E82000905B
:101D40004FF08070DE49086140000861BDF8000076
:101D5000DC4908604FF40000D9490861802008611F
:101D60008000086100BF852004F068F9102004F0AD
:101D700065F97A2004F062F9CB2000904FF0807072
:101D8000CF49086140000861BDF80000CD490860F6
:101D90004FF40000CA490861802008618000086192
:101DA00000BF392004F04AF92C2004F047F9002044
:101DB00004F044F9342004F041F9022004F03EF923
:101DC000F72000904FF08070BD4908614000086125
:101DD000BDF80000BB4908604FF40000B849086135
:101DE000802008618000086100BF202004F026F9EF
:101DF000EA2000904FF08070B1490861400008610E
:101E0000BDF80000AF4908604FF40000AC4908611C
:101E1000802008618000086100BF002004F00EF9F6
:101E2000002004F00BF9C02000904FF08070A4490E
:101E3000086140000861BDF80000A24908604FF445
:101E400000009F490861802008618000086100BF90
:101E50001B2004F0F3F8C12000904FF080709849E7
:101E6000086140000861BDF80000964908604FF421
:101E7000000093490861802008618000086100BF6C
:101E8000012004F0DBF8C52000904FF080708C49F1
:101E9000086140000861BDF800008A4908604FF4FD
:101EA000000087490861802008618000086100BF48
:101EB000302004F0C3F8302004F0C0F8C7200090B0
:101EC0004FF080707E49086140000861BDF8000055
:101ED0007C4908604FF4000079490861802008615E
:101EE0008000086100BFB72004F0A8F836200090F9
:101EF0004FF080707249086140000861BDF8000031
:101F0000704908604FF400006D4908618020086145
:101F10008000086100BF482004F090F83A2000904B
:101F20004FF080706649086140000861BDF800000C
:101F3000644908604FF4000061490861802008612D
:101F40008000086100BF552004F078F8B1200090AF
:101F50004FF080705A49086140000861BDF80000E8
:101F6000584908604FF40000554908618020086115
:101F70008000086100BF002004F060F81A2004F01F
:101F80005DF8B62000904FF080704D490861400028
:101F90000861BDF800004B4908604FF40000484953
:101FA0000861802008618000086100BF0A2004F0F9
:101FB00045F8A22004F042F8F22000904FF0807023
:101FC0003F49086140000861BDF800003D490860D4
:101FD0004FF400003A4908618020086180000861E0
:101FE00000BF002004F02AF8262000904FF08070F7
:101FF0003349086140000861BDF8000031490860BC
:102000004FF400002E4908618020086180000861BB
:1020100000BF012004F012F8E02000904FF0807023
:102020002749086140000861BDF8000025490860A3
:102030004FF4000022490861802008618000086197
:1020400000BF0F2003F0FAFF2A2003F0F7FF28203B
:1020500003F0F4FF082003F0F1FF0E2003F0EEFF81
:10206000082003F0EBFF542003F0E8FFA92003F061
:10207000E5FF432003F0E2FF0A2003F0DFFF0F201B
:1020800003F0DCFF002003F0D9FF002003F0D6FFAF
:10209000002003F0D3FF002003F0D0FFE1200090E8
:1020A0004FF080700649086140000861BDF80000EB
:1020B000044908604FF4000001490861802003E0F2
:1020C000001001400C0C014008618000086100BF55
:1020D000002003F0B3FF152003F0B0FF172003F03A
:1020E000ADFF072003F0AAFF112003F0A7FF062091
:1020F00003F0A4FF2B2003F0A1FF562003F09EFF66
:102100003C2003F09BFF052003F098FF102003F014
:1021100095FF0F2003F092FF3F2003F08FFF3F2039
:1021200003F08CFF0F2003F089FF2B2000904FF06D
:1021300080703649086140000861BDF800003449EC
:1021400008604FF400003149086180200861800078
:10215000086100BF002003F071FF002003F06EFF54
:10216000012003F06BFF3F2003F068FF2A2000905E
:102170004FF080702549086140000861BDF80000FB
:10218000234908604FF4000020490861802008615D
:102190008000086100BF002003F050FF002003F022
:1021A0004DFF002003F04AFFEF2003F047FF11200E
:1021B00000904FF080701549086140000861BDF83B
:1021C0000000134908604FF40000104908618020A6
:1021D00008618000086100BF7820FFF713FC292008
:1021E00000904FF080700949086140000861BDF817
:1021F0000000074908604FF400000449086180208E
:1022000008618000086100BF08BD000000100140A7
:102210000C0C014008B5ED2000904FF08070FE4995
:10222000086140000861BDF80000FC4908604FF4F7
:102230000000F9490861802008618000086100BF42
:10224000012003F0FBFEFE2003F0F8FEEE200090DC
:102250004FF08070F049086140000861BDF800004F
:10226000EE4908604FF40000EB49086180200861E6
:102270008000086100BFDE2003F0E0FE212003F0B3
:10228000DDFEF12000904FF08070E34908614000CE
:102290000861BDF80000E14908604FF40000DE4924
:1022A0000861802008618000086100BF012003F000
:1022B000C5FEDF2000904FF08070D74908614000D4
:1022C0000861BDF80000D54908604FF40000D2490C
:1022D0000861802008618000086100BF102003F0C1
:1022E000ADFEC42000904FF08070CB4908614000E3
:1022F0000861BDF80000C94908604FF40000C649F4
:102300000861802008618000086100BF8F2003F011
:1023100095FEC62000904FF08070BF4908614000D4
:102320000861BDF80000BD4908604FF40000BA49DB
:102330000861802008618000086100BF002003F070
:102340007DFEE22003F07AFEE22003F077FEE22039
:1023500003F074FEBF2000904FF08070AE4908611A
:1023600040000861BDF80000AC4908604FF400006F
:10237000A9490861802008618000086100BFAA2087
:1023800003F05CFEB02000904FF08070A24908611D
:1023900040000861BDF80000A04908604FF400004B
:1023A0009D490861802008618000086100BF0D2000
:1023B00003F044FE002003F041FE0D2003F03EFE3A
:1023C000002003F03BFE112003F038FE002003F054
:1023D00035FE192003F032FE002003F02FFE2120ED
:1023E00003F02CFE002003F029FE2D2003F026FE32
:1023F000002003F023FE3D2003F020FE002003F028
:102400001DFE5D2003F01AFE002003F017FE5D2084
:1024100003F014FE002003F011FEB12000904FF0F5
:1024200080707D49086140000861BDF800007B496B
:1024300008604FF40000784908618020086180003E
:10244000086100BF802003F0F9FD002003F0F6FDD5
:102450008B2003F0F3FD002003F0F0FD962003F045
:10246000EDFD002003F0EAFDB22000904FF08070F7
:102470006949086140000861BDF8000067490860CB
:102480004FF4000064490861802008618000086101
:1024900000BF002003F0D2FD002003F0CFFD02209A
:1024A00003F0CCFD002003F0C9FD032003F0C6FDBE
:1024B000002003F0C3FDB32000904FF08070564918
:1024C000086140000861BDF80000544908604FF4FD
:1024D000000051490861802008618000086100BF48
:1024E000002003F0ABFD002003F0A8FD002003F066
:1024F000A5FD002003F0A2FD002003F09FFD0020B9
:1025000003F09CFD002003F099FD002003F096FDF0
:10251000002003F093FD002003F090FD002003F065
:102520008DFD002003F08AFD002003F087FD0020D0
:1025300003F084FD002003F081FD002003F07EFD08
:10254000002003F07BFD002003F078FD002003F065
:1025500075FD002003F072FD002003F06FFD0020E8
:1025600003F06CFD002003F069FD002003F066FD20
:10257000B42000904FF08070274908614000086146
:10258000BDF80000254908604FF4000022490861A9
:10259000802008618000086100BF8B2003F04EFDA1
:1025A000002003F04BFD962003F048FD002003F0CF
:1025B00045FDA12003F042FD002003F03FFDB520C2
:1025C00000904FF080701449086140000861BDF828
:1025D0000000124908604FF400000F490861802094
:1025E00008618000086100BF022003F027FD002081
:1025F00003F024FD032003F021FD002003F01EFD65
:10260000042003F01BFD002003F018FDB62000900D
:102610004FF08070004903E0001001400C0C0140B5
:10262000086140000861BDF80000FE4908604FF4F1
:102630000000FD490861802008618000086100BF3A
:10264000002003F0FBFC002003F0F8FCB720009012
:102650004FF08070F449086140000861BDF8000047
:10266000F04908604FF40000EF49086180200861DC
:102670008000086100BF002003F0E0FC002003F0B0
:10268000DDFC3F2003F0DAFC002003F0D7FC5E20E5
:1026900003F0D4FC002003F0D1FC642003F0CEFC56
:1026A000002003F0CBFC8C2003F0C8FC002003F0DA
:1026B000C5FCAC2003F0C2FC002003F0BFFCDC2012
:1026C00003F0BCFC002003F0B9FC702003F0B6FC62
:1026D000002003F0B3FC902003F0B0FC002003F0D6
:1026E000ADFCEB2003F0AAFC002003F0A7FCDC20EB
:1026F00003F0A4FC002003F0A1FCB82000904FF0F0
:102700008070C949086140000861BDF80000C549F2
:1027100008604FF40000C44908618020086180000F
:10272000086100BF002003F089FC002003F086FC54
:10273000002003F083FC002003F080FC002003F065
:102740007DFC002003F07AFC002003F077FC0020E1
:1027500003F074FCBA2000904FF08070B249086119
:1027600040000861BDF80000AE4908604FF4000069
:10277000AD490861802008618000086100BF242005
:1027800003F05CFC002003F059FC002003F056FC31
:10279000002003F053FCC12000904FF08070A2494C
:1027A000086140000861BDF800009E4908604FF4D0
:1027B00000009D490861802008618000086100BF19
:1027C000202003F03BFC002003F038FC542003F0F1
:1027D00035FC002003F032FCFF2003F02FFC00202A
:1027E00003F02CFCC22000904FF080708E490861ED
:1027F00040000861BDF800008A4908604FF40000FD
:1028000089490861802008618000086100BF0A20B2
:1028100003F014FC002003F011FC042003F00EFC74
:10282000002003F00BFCC32000904FF080707E4925
:10283000086140000861BDF800007A4908604FF463
:10284000000079490861802008618000086100BFAC
:102850003C2003F0F3FB002003F0F0FB3A2003F0F0
:10286000EDFB002003F0EAFB392003F0E7FB00203A
:1028700003F0E4FB372003F0E1FB002003F0DEFB74
:102880003C2003F0DBFB002003F0D8FB362003F0F4
:10289000D5FB002003F0D2FB322003F0CFFB002059
:1028A00003F0CCFB2F2003F0C9FB002003F0C6FB94
:1028B0002C2003F0C3FB002003F0C0FB292003F011
:1028C000BDFB002003F0BAFB262003F0B7FB00207D
:1028D00003F0B4FB242003F0B1FB002003F0AEFBB7
:1028E000242003F0ABFB002003F0A8FB232003F01F
:1028F000A5FB002003F0A2FB3C2003F09FFB00207F
:1029000003F09CFB362003F099FB002003F096FBBC
:10291000322003F093FB002003F090FB2F2003F004
:102920008DFB002003F08AFB2C2003F087FB0020A6
:1029300003F084FB292003F081FB002003F07EFBE1
:10294000262003F07BFB002003F078FB242003F01B
:1029500075FB002003F072FB242003F06FFB0020C6
:1029600003F06CFB232003F069FB002003F066FBFF
:10297000C42000904FF080702B490861400008612E
:10298000BDF80000274908604FF40000264908619F
:10299000802008618000086100BF622003F04EFBC8
:1029A000002003F04BFB052003F048FB002003F060
:1029B00045FB842003F042FB002003F03FFBF020A6
:1029C00003F03CFB002003F039FB182003F036FB3A
:1029D000002003F033FBA42003F030FB002003F0C1
:1029E0002DFB182003F02AFB002003F027FB5020CA
:1029F00003F024FB002003F021FB0C2003F01EFB5E
:102A0000002003F01BFB172003F018FB002003F04D
:102A100015FB952003F012FB002003F00FFBF320C1
:102A200004E000000C0C01400010014003F006FB24
:102A3000002003F003FBE62003F000FB002003F07E
:102A4000FDFAC52000904FF08070FE4908614000FB
:102A50000861BDF80000FC4908604FF40000F94926
:102A60000861802008618000086100BF322003F007
:102A7000E5FA002003F0E2FA442003F0DFFA002038
:102A800003F0DCFA652003F0D9FA002003F0D6FA4F
:102A9000762003F0D3FA002003F0D0FA882003F068
:102AA000CDFA002003F0CAFAC62000904FF08070E3
:102AB000E449086140000861BDF80000E24908608F
:102AC0004FF40000DF490861802008618000086140
:102AD00000BF202003F0B2FA002003F0AFFA172065
:102AE00003F0ACFA002003F0A9FA012003F0A6FAE3
:102AF000002003F0A3FAC72000904FF08070D14966
:102B0000086140000861BDF80000CF4908604FF43B
:102B10000000CC490861802008618000086100BF86
:102B2000002003F08BFA002003F088FA002003F065
:102B300085FA002003F082FAC82000904FF08070E0
:102B4000C049086140000861BDF80000BE49086046
:102B50004FF40000BB4908618020086180000861D3
:102B600000BF002003F06AFA002003F067FA00209B
:102B700003F064FA002003F061FAC92000904FF0DE
:102B80008070B049086140000861BDF80000AE499E
:102B900008604FF40000AB490861802008618000A4
:102BA000086100BF002003F049FA002003F046FA54
:102BB000002003F043FA002003F040FA002003F065
:102BC0003DFA002003F03AFA002003F037FA002023
:102BD00003F034FA002003F031FA002003F02EFA5B
:102BE000002003F02BFA002003F028FA002003F065
:102BF00025FA002003F022FA002003F01FFA00203B
:102C000003F01CFAE02000904FF080708D490861BD
:102C100040000861BDF800008B4908604FF40000D7
:102C200088490861802008618000086100BF162083
:102C300003F004FA002003F001FA1C2003F0FEF96F
:102C4000002003F0FBF9212003F0F8F9002003F045
:102C5000F5F9362003F0F2F9002003F0EFF94620F1
:102C600003F0ECF9002003F0E9F9522003F0E6F953
:102C7000002003F0E3F9642003F0E0F9002003F002
:102C8000DDF97A2003F0DAF9002003F0D7F98B2080
:102C900003F0D4F9002003F0D1F9992003F0CEF924
:102CA000002003F0CBF9A82003F0C8F9002003F0BE
:102CB000C5F9B92003F0C2F9002003F0BFF9C42020
:102CC00003F0BCF9002003F0B9F9CA2003F0B6F90B
:102CD000002003F0B3F9D22003F0B0F9002003F094
:102CE000ADF9D92003F0AAF9002003F0A7F9E020FC
:102CF00003F0A4F9002003F0A1F9F32003F09EF9FA
:102D0000002003F09BF9E12000904FF080704D49C6
:102D1000086140000861BDF800004B4908604FF4AD
:102D2000000048490861802008618000086100BFF8
:102D3000162003F083F9002003F080F91C2003F033
:102D40007DF9002003F07AF9222003F077F90020C2
:102D500003F074F9362003F071F9002003F06EF9E6
:102D6000452003F06BF9002003F068F9522003F0CE
:102D700065F9002003F062F9642003F05FF9002098
:102D800003F05CF97A2003F059F9002003F056F9BA
:102D90008B2003F053F9002003F050F9992003F041
:102DA0004DF9002003F04AF9A82003F047F900206C
:102DB00003F044F9B92003F041F9002003F03EF993
:102DC000C42003F03BF9002003F038F9CA2003F0D7
:102DD00035F9002003F032F9D22003F02FF900205A
:102DE00003F02CF9D82003F029F9002003F026F98C
:102DF000E02003F023F9002003F020F9F32003F092
:102E00001DF9002003F01AF9E22000904FF08070C5
:102E10000C49086140000861BDF800000A490860DB
:102E20004FF40000074908618020086180000861B4
:102E300000BF052003F002F9002003F0FFF80B208B
:102E400004E00000001001400C0C014003F0F6F813
:102E5000002003F0F3F81B2003F0F0F8002003F04B
:102E6000EDF8342003F0EAF8002003F0E7F84420FE
:102E700003F0E4F8002003F0E1F84F2003F0DEF85F
:102E8000002003F0DBF8612003F0D8F8002003F005
:102E9000D5F8792003F0D2F8002003F0CFF888208D
:102EA00003F0CCF8002003F0C9F8972003F0C6F82F
:102EB000002003F0C3F8A62003F0C0F8002003F0C0
:102EC000BDF8B72003F0BAF8002003F0B7F8C2202D
:102ED00003F0B4F8002003F0B1F8C72003F0AEF817
:102EE000002003F0ABF8D12003F0A8F8002003F095
:102EF000A5F8D62003F0A2F8002003F09FF8DD200B
:102F000003F09CF8002003F099F8F32003F096F802
:102F1000002003F093F8E32000904FF08070FE490A
:102F2000086140000861BDF80000FC4908604FF4EA
:102F30000000F9490861802008618000086100BF35
:102F4000052003F07BF8002003F078F80A2003F056
:102F500075F8002003F072F81C2003F06FF80020D1
:102F600003F06CF8332003F069F8002003F066F8F2
:102F7000442003F063F8002003F060F8502003F0D1
:102F80005DF8002003F05AF8622003F057F80020A3
:102F900003F054F8782003F051F8002003F04EF8C5
:102FA000882003F04BF8002003F048F8972003F046
:102FB00045F8002003F042F8A62003F03FF8002077
:102FC00003F03CF8B72003F039F8002003F036F89E
:102FD000C22003F033F8002003F030F8C72003F0DC
:102FE0002DF8002003F02AF8D12003F027F8002064
:102FF00003F024F8D52003F021F8002003F01EF898
:10300000DD2003F01BF8002003F018F8F32003F094
:1030100015F8002003F012F8E42000904FF08070C3
:10302000BD49086140000861BDF80000BB49086067
:103030004FF40000B84908618020086180000861F1
:1030400000BF012002F0FAFF002002F0F7FF01208C
:1030500002F0F4FF002002F0F1FF022002F0EEFF88
:10306000002002F0EBFF2A2002F0E8FF002002F02F
:10307000E5FF3C2002F0E2FF002002F0DFFF4B20E2
:1030800002F0DCFF002002F0D9FF5D2002F0D6FF45
:10309000002002F0D3FF742002F0D0FF002002F0E5
:1030A000CDFF842002F0CAFF002002F0C7FF93206A
:1030B00002F0C4FF002002F0C1FFA22002F0BEFF18
:1030C000002002F0BBFFB32002F0B8FF002002F0A6
:1030D000B5FFBE2002F0B2FF002002F0AFFFC42017
:1030E00002F0ACFF002002F0A9FFCD2002F0A6FF05
:1030F000002002F0A3FFD32002F0A0FF002002F086
:103100009DFFDD2002F09AFF002002F097FFF320E0
:1031100002F094FF002002F091FFE52000904FF0B4
:1031200080707D49086140000861BDF800007B495E
:1031300008604FF400007849086180200861800031
:10314000086100BF002002F079FF002002F076FF46
:10315000002002F073FF002002F070FF022002F056
:103160006DFF002002F06AFF292002F067FF0020B7
:1031700002F064FF3C2002F061FF002002F05EFFDD
:103180004B2002F05BFF002002F058FF5D2002F0B0
:1031900055FF002002F052FF742002F04FFF002084
:1031A00002F04CFF842002F049FF002002F046FFAD
:1031B000932002F043FF002002F040FFA22002F023
:1031C0003DFF002002F03AFFB32002F037FF00205D
:1031D00002F034FFBE2002F031FF002002F02EFF8B
:1031E000C42002F02BFF002002F028FFCD2002F0C7
:1031F00025FF002002F022FFD32002F01FFF002055
:1032000002F01CFFDC2002F019FF002002F016FF84
:10321000F32002F013FF002002F010FFE6200090E0
:103220004FF080703C49086140000861BDF8000023
:103230003A4908604FF4000037490861802008616E
:103240008000086100BF112002F0F8FE002002F0AB
:10325000F5FE342002F0F2FE002002F0EFFE5620D0
:1032600002F0ECFE002002F0E9FE762002F0E6FE1D
:10327000002002F0E3FE772002F0E0FE002002F0E2
:10328000DDFE662002F0DAFE002002F0D7FE882084
:1032900002F0D4FE002002F0D1FE992002F0CEFE12
:1032A000002002F0CBFEBB2002F0C8FE002002F09E
:1032B000C5FE992002F0C2FE002002F0BFFE66208B
:1032C00002F0BCFE002002F0B9FE552002F0B6FE6E
:1032D000002002F0B3FE552002F0B0FE002002F004
:1032E000ADFE452002F0AAFE002002F0A7FE43201A
:1032F00002F0A4FE002002F0A1FE442002F09EFE97
:10330000002002F09BFEE72000904FF08070024901
:1033100008614000086103E0001001400C0C01400E
:10332000BDF80000FE4908604FF40000FD49086147
:10333000802008618000086100BF322002F07EFE1C
:10334000002002F07BFE552002F078FE002002F003
:1033500075FE762002F072FE002002F06FFE6620FD
:1033600002F06CFE002002F069FE672002F066FEAB
:10337000002002F063FE672002F060FE002002F0F1
:103380005DFE872002F05AFE002002F057FE9920D1
:1033900002F054FE002002F051FEBB2002F04EFE6F
:1033A000002002F04BFE992002F048FE002002F0BF
:1033B00045FE772002F042FE002002F03FFE44204E
:1033C00002F03CFE002002F039FE562002F036FEEC
:1033D000002002F033FE232002F030FE002002F035
:1033E0002DFE332002F02AFE002002F027FE4520A9
:1033F00002F024FE002002F021FEE82000904FF0B1
:103400008070C849086140000861BDF80000C449E7
:1034100008604FF40000C349086180200861800003
:10342000086100BF002002F009FE002002F006FE45
:10343000992002F003FE002002F000FE872002F037
:10344000FDFD002002F0FAFD882002F0F7FD0020CB
:1034500002F0F4FD772002F0F1FD002002F0EEFD15
:10346000662002F0EBFD002002F0E8FD882002F06B
:10347000E5FD002002F0E2FDAA2002F0DFFD0020C1
:1034800002F0DCFDBB2002F0D9FD002002F0D6FDE9
:10349000992002F0D3FD002002F0D0FD662002F05A
:1034A000CDFD002002F0CAFD552002F0C7FD00202E
:1034B00002F0C4FD552002F0C1FD002002F0BEFD67
:1034C000442002F0BBFD002002F0B8FD442002F0D1
:1034D000B5FD002002F0B2FD552002F0AFFD002046
:1034E00002F0ACFDE92000904FF080708D4908613A
:1034F00040000861BDF80000894908604FF40000F1
:1035000088490861802008618000086100BFAA2006
:1035100002F094FD002002F091FD002002F08EFDEB
:10352000002002F08BFD002000904FF080707D495C
:10353000086140000861BDF80000794908604FF457
:10354000000078490861802008618000086100BFA0
:10355000AA2002F073FDCF2000904FF080707149D7
:10356000086140000861BDF800006D4908604FF433
:1035700000006C490861802008618000086100BF7C
:10358000002002F05BFD002002F058FD002002F058
:1035900055FD002002F052FD002002F04FFD0020FA
:1035A00002F04CFD002002F049FD002002F046FD33
:1035B000002002F043FD002002F040FD002002F058
:1035C0003DFD002002F03AFD002002F037FD002012
:1035D00002F034FD002002F031FD002002F02EFD4B
:1035E000002002F02BFDF02000904FF080704D493C
:1035F000086140000861BDF80000494908604FF4C7
:10360000000048490861802008618000086100BF0F
:10361000002002F013FD502002F010FD002002F007
:103620000DFD002002F00AFD002002F007FDF3204E
:1036300000904FF080703B49086140000861BDF880
:103640000000374908604FF40000364908618020C7
:1036500008618000086100BF002002F0EFFCF92043
:1036600000904FF080702F49086140000861BDF85C
:1036700000002B4908604FF400002A4908618020AF
:1036800008618000086100BF062002F0D7FC10200E
:1036900002F0D4FC292002F0D1FC002002F0CEFC84
:1036A0003A2000904FF080701E4908614000086188
:1036B000BDF800001A4908604FF40000194908617C
:1036C000802008618000086100BF552002F0B6FC30
:1036D000112000904FF0807012490861400008618D
:1036E000BDF800000E4908604FF400000D49086164
:1036F000802008618000086100BF6420FEF782F925
:10370000292000904FF08070064908614000086150
:10371000BDF80000024908604FF40000014903E0D1
:103720000C0C0140001001400861802008618000FD
:10373000086100BF352000904FF0807008614000A4
:103740000861BDF80000364908604FF400003549B3
:103750000861802008618000086100BF002002F03D
:103760006DFC512000904FF080702E4908614000A0
:103770000861BDF800002A4908604FF4000029499B
:103780000861802008618000086100BFFF2002F00E
:1037900055FC532000904FF0807022490861400092
:1037A0000861BDF800001E4908604FF400001D4983
:1037B0000861802008618000086100BF2C2002F0B1
:1037C0003DFC552000904FF0807016490861400084
:1037D0000861BDF80000124908604FF4000011496B
:1037E0000861802008618000086100BF822002F02B
:1037F00025FC2C2000904FF080700A4908614000A1
:103800000861BDF80000064908604FF40000054952
:103810000861802008618000086100BF08BD0000C9
:103820000C0C01400010014008B555214FF47040C8
:1038300002F018FCAA214FF2010002F013FC522101
:103840004FF2020002F00EFC08214FF2030002F0DA
:1038500009FC01214FF2040002F004FC0D214FF499
:10386000304002F0FFFB0D214BF2010002F0FAFBA9
:103870000D214BF2020002F0F5FB34214FF43640EB
:1038800002F0F0FB34214BF2016002F0EBFB34213B
:103890004BF2026002F0E6FB0D214FF4314002F0E2
:1038A000E1FB0D214BF2011002F0DCFB0D214BF28C
:1038B000021002F0D7FB34214FF4374002F0D2FB64
:1038C00034214BF2017002F0CDFB34214BF2027037
:1038D00002F0C8FB00214FF4324002F0C3FB00218C
:1038E0004BF2012002F0BEFB00214BF2022002F05D
:1038F000B9FB24214FF4384002F0B4FB24214BF6ED
:10390000010002F0AFFB24214BF6020002F0AAFBFB
:1039100001214FF43F4002F0A5FB0F214FF433404B
:1039200002F0A0FB0F214BF2013002F09BFB0F21B4
:103930004BF2023002F096FB34214FF4394002F092
:1039400091FB34214BF6011002F08CFB34214BF635
:10395000021002F087FB08214FF4354002F082FB91
:1039600008214BF2015002F07DFB08214BF202507E
:1039700002F078FB03214FF4424002F073FB242154
:103980004FF43A4002F06EFB24214BF6012002F086
:1039900069FB24214BF6022002F064FB00214FF466
:1039A0003C4002F05FFB78214BF6014002F05AFBED
:1039B00000214BF6024002F055FB00214FF43D4040
:1039C00002F050FB78214BF6015002F04BFB002136
:1039D0004BF6025002F046FB00214FF43E4002F04D
:1039E00041FB64214BF6016002F03CFB00214FF4E7
:1039F000514002F037FB33214DF2011002F032FB4F
:103A000000214DF2021002F02DFB34214DF2031083
:103A100002F028FB00214DF2041002F023FB3A21B2
:103A20004DF2051002F01EFB00214DF2061002F0CF
:103A300019FB4A214DF2071002F014FB00214DF250
:103A4000081002F00FFB5C214DF2091002F00AFB96
:103A500000214DF20A1002F005FB81214DF20B10FE
:103A600002F000FB00214DF20C1002F0FBFAA6213F
:103A70004DF20D1002F0F6FA00214DF20E1002F098
:103A8000F1FAE5214DF20F1002F0ECFA01214DF2AE
:103A9000101002F0E7FA13214DF2111002F0E2FAD1
:103AA00001214DF2121002F0DDFA54214DF21310F3
:103AB00002F0D8FA01214DF2141002F0D3FA82215B
:103AC0004DF2151002F0CEFA01214DF2161002F05F
:103AD000C9FACA214DF2171002F0C4FA02214DF2C0
:103AE000181002F0BFFA00214DF2191002F0BAFAD4
:103AF00002214DF21A1002F0B5FA01214DF21B100D
:103B000002F0B0FA02214DF21C1002F0ABFA34219F
:103B10004DF21D1002F0A6FA02214DF21E1002F025
:103B2000A1FA67214DF21F1002F09CFA02214DF21A
:103B3000201002F097FA84214DF2211002F092FA3F
:103B400002214DF2221002F08DFAA4214DF2231031
:103B500002F088FA02214DF2241002F083FAB72114
:103B60004DF2251002F07EFA02214DF2261002F0ED
:103B700079FACF214DF2271002F074FA02214DF2AA
:103B8000281002F06FFADE214DF2291002F06AFAD5
:103B900002214DF22A1002F065FAF2214DF22B10AB
:103BA00002F060FA02214DF22C1002F05BFAFE21C5
:103BB0004DF22D1002F056FA03214DF22E1002F0B4
:103BC00051FA10214DF22F1002F04CFA03214DF260
:103BD000301002F047FA33214DF2311002F042FA70
:103BE00003214DF2321002F03DFA6D214DF23310F7
:103BF00002F038FA00214FF4524002F033FA332138
:103C00004DF2012002F02EFA00214DF2022002F0C6
:103C100029FA34214DF2032002F024FA00214DF25A
:103C2000042002F01FFA3A214DF2052002F01AFAA0
:103C300000214DF2062002F015FA4A214DF207202C
:103C400002F010FA00214DF2082002F00BFA5C217C
:103C50004DF2092002F006FA00214DF20A2002F08E
:103C600001FA81214DF20B2002F0FCF900214DF206
:103C70000C2002F0F7F9A6214DF20D2002F0F2F926
:103C800000214DF20E2002F0EDF9E5214DF20F205A
:103C900002F0E8F901214DF2102002F0E3F91321BE
:103CA0004DF2112002F0DEF901214DF2122002F056
:103CB000D9F954214DF2132002F0D4F901214DF22B
:103CC000142002F0CFF982214DF2152002F0CAF93A
:103CD00001214DF2162002F0C5F9CA214DF217203C
:103CE00002F0C0F902214DF2182002F0BBF90021C8
:103CF0004DF2192002F0B6F902214DF21A2002F01D
:103D0000B1F901214DF21B2002F0ACF902214DF274
:103D10001C2002F0A7F934214DF21D2002F0A2F977
:103D200002214DF21E2002F09DF967214DF21F2065
:103D300002F098F902214DF2202002F093F984213B
:103D40004DF2212002F08EF902214DF2222002F0E4
:103D500089F9A4214DF2232002F084F902214DF2C9
:103D6000242002F07FF9B7214DF2252002F07AF9E4
:103D700002214DF2262002F075F9CF214DF22720C5
:103D800002F070F902214DF2282002F06BF9DE21D9
:103D90004DF2292002F066F902214DF22A2002F0AC
:103DA00061F9F2214DF22B2002F05CF902214DF273
:103DB0002C2002F057F9FE214DF22D2002F052F98D
:103DC00003214DF22E2002F04DF910214DF22F204B
:103DD00002F048F903214DF2302002F043F933217B
:103DE0004DF2312002F03EF903214DF2322002F073
:103DF00039F96D214DF2332002F034F900214FF4EE
:103E0000534002F02FF933214DF2013002F02AF92C
:103E100000214DF2023002F025F934214DF2033039
:103E200002F020F900214DF2043002F01BF93A2192
:103E30004DF2053002F016F900214DF2063002F085
:103E400011F94A214DF2073002F00CF900214DF230
:103E5000083002F007F95C214DF2093002F002F956
:103E600000214DF20A3002F0FDF881214DF20B30B5
:103E700002F0F8F800214DF20C3002F0F3F8A62120
:103E80004DF20D3002F0EEF800214DF20E3002F04E
:103E9000E9F8E5214DF20F3002F0E4F801214DF28E
:103EA000103002F0DFF813214DF2113002F0DAF891
:103EB00001214DF2123002F0D5F854214DF21330A9
:103EC00002F0D0F801214DF2143002F0CBF882213B
:103ED0004DF2153002F0C6F801214DF2163002F015
:103EE000C1F8CA214DF2173002F0BCF802214DF2A0
:103EF000183002F0B7F800214DF2193002F0B2F894
:103F000002214DF21A3002F0ADF801214DF21B30C2
:103F100002F0A8F802214DF21C3002F0A3F834217F
:103F20004DF21D3002F09EF802214DF21E3002F0DB
:103F300099F867214DF21F3002F094F802214DF2FA
:103F4000203002F08FF884214DF2213002F08AF8FF
:103F500002214DF2223002F085F8A4214DF22330E7
:103F600002F080F802214DF2243002F07BF8B721F4
:103F70004DF2253002F076F802214DF2263002F0A3
:103F800071F8CF214DF2273002F06CF802214DF28A
:103F9000283002F067F8DE214DF2293002F062F895
:103FA00002214DF22A3002F05DF8F2214DF22B3061
:103FB00002F058F802214DF22C3002F053F8FE21A5
:103FC0004DF22D3002F04EF803214DF22E3002F06A
:103FD00049F810214DF22F3002F044F803214DF240
:103FE000303002F03FF833214DF2313002F03AF830
:103FF00003214DF2323002F035F86D214DF23330AD
:1040000002F030F800214FF4544002F02BF8332135
:104010004DF2014002F026F800214DF2024002F07C
:1040200021F834214DF2034002F01CF800214DF23A
:10403000044002F017F83A214DF2054002F012F860
:1040400000214DF2064002F00DF84A214DF20740E2
:1040500002F008F800214DF2084002F003F85C215C
:104060004DF2094001F0FEFF00214DF20A4001F03F
:10407000F9FF81214DF20B4001F0F4FF00214DF2D8
:104080000C4001F0EFFFA6214DF20D4001F0EAFFD8
:1040900000214DF20E4001F0E5FFE5214DF20F4009
:1040A00001F0E0FF01214DF2104001F0DBFF132190
:1040B0004DF2114001F0D6FF01214DF2124001F006
:1040C000D1FF54214DF2134001F0CCFF01214DF2FC
:1040D000144001F0C7FF82214DF2154001F0C2FFEC
:1040E00001214DF2164001F0BDFFCA214DF21740EB
:1040F00001F0B8FF02214DF2184001F0B3FF00219A
:104100004DF2194001F0AEFF02214DF21A4001F0CC
:10411000A9FF01214DF21B4001F0A4FF02214DF245
:104120001C4001F09FFF34214DF21D4001F09AFF29
:1041300002214DF21E4001F095FF67214DF21F4014
:1041400001F090FF02214DF2204001F08BFF84210D
:104150004DF2214001F086FF02214DF2224001F094
:1041600081FFA4214DF2234001F07CFF02214DF29A
:10417000244001F077FFB7214DF2254001F072FF96
:1041800002214DF2264001F06DFFCF214DF2274074
:1041900001F068FF02214DF2284001F063FFDE21AB
:1041A0004DF2294001F05EFF02214DF22A4001F05C
:1041B00059FFF2214DF22B4001F054FF02214DF244
:1041C0002C4001F04FFFFE214DF22D4001F04AFF3F
:1041D00003214DF22E4001F045FF10214DF22F40FA
:1041E00001F040FF03214DF2304001F03BFF33214D
:1041F0004DF2314001F036FF03214DF2324001F023
:1042000031FF6D214DF2334001F02CFF00214FF4BE
:10421000554001F027FF33214DF2015001F022FFFC
:1042200000214DF2025001F01DFF34214DF20350E8
:1042300001F018FF00214DF2045001F013FF3A2164
:104240004DF2055001F00EFF00214DF2065001F035
:1042500009FF4A214DF2075001F004FF00214DF201
:10426000085001F0FFFE5C214DF2095001F0FAFE0A
:1042700000214DF20A5001F0F5FE81214DF20B5064
:1042800001F0F0FE00214DF20C5001F0EBFEA621F2
:104290004DF20D5001F0E6FE00214DF20E5001F0FE
:1042A000E1FEE5214DF20F5001F0DCFE01214DF25F
:1042B000105001F0D7FE13214DF2115001F0D2FE43
:1042C00001214DF2125001F0CDFE54214DF2135058
:1042D00001F0C8FE01214DF2145001F0C3FE82210D
:1042E0004DF2155001F0BEFE01214DF2165001F0C5
:1042F000B9FECA214DF2175001F0B4FE02214DF271
:10430000185001F0AFFE00214DF2195001F0AAFE45
:1043100002214DF21A5001F0A5FE01214DF21B5071
:1043200001F0A0FE02214DF21C5001F09BFE342151
:104330004DF21D5001F096FE02214DF21E5001F08B
:1043400091FE67214DF21F5001F08CFE02214DF2CB
:10435000205001F087FE84214DF2215001F082FEB1
:1043600002214DF2225001F07DFEA4214DF2235096
:1043700001F078FE02214DF2245001F073FEB721C6
:104380004DF2255001F06EFE02214DF2265001F053
:1043900069FECF214DF2275001F064FE02214DF25B
:1043A000285001F05FFEDE214DF2295001F05AFE47
:1043B00002214DF22A5001F055FEF2214DF22B5010
:1043C00001F050FE02214DF22C5001F04BFEFE2177
:1043D0004DF22D5001F046FE03214DF22E5001F01A
:1043E00041FE10214DF22F5001F03CFE03214DF211
:1043F000305001F037FE33214DF2315001F032FEE2
:1044000003214DF2325001F02DFE6D214DF233505B
:1044100001F028FE00214FF4564001F023FE332125
:104420004DF2016001F01EFE00214DF2026001F02C
:1044300019FE34214DF2036001F014FE00214DF20B
:10444000046001F00FFE3A214DF2056001F00AFE12
:1044500000214DF2066001F005FE4A214DF2076091
:1044600001F000FE00214DF2086001F0FBFD5C212F
:104470004DF2096001F0F6FD00214DF20A6001F0F5
:10448000F1FD81214DF20B6001F0ECFD00214DF2B8
:104490000C6001F0E7FDA6214DF20D6001F0E2FD98
:1044A00000214DF20E6001F0DDFDE5214DF20F60BF
:1044B00001F0D8FD01214DF2106001F0D3FD132170
:1044C0004DF2116001F0CEFD01214DF2126001F0BC
:1044D000C9FD54214DF2136001F0C4FD01214DF2DC
:1044E000146001F0BFFD82214DF2156001F0BAFDAC
:1044F00001214DF2166001F0B5FDCA214DF21760A1
:1045000001F0B0FD02214DF2186001F0ABFD002179
:104510004DF2196001F0A6FD02214DF21A6001F082
:10452000A1FD01214DF21B6001F09CFD02214DF225
:104530001C6001F097FD34214DF21D6001F092FDE9
:1045400002214DF21E6001F08DFD67214DF21F60CA
:1045500001F088FD02214DF2206001F083FD8421ED
:104560004DF2216001F07EFD02214DF2226001F04A
:1045700079FDA4214DF2236001F074FD02214DF27A
:10458000246001F06FFDB7214DF2256001F06AFD56
:1045900002214DF2266001F065FDCF214DF227602A
:1045A00001F060FD02214DF2286001F05BFDDE218B
:1045B0004DF2296001F056FD02214DF22A6001F012
:1045C00051FDF2214DF22B6001F04CFD02214DF224
:1045D0002C6001F047FDFE214DF22D6001F042FDFF
:1045E00003214DF22E6001F03DFD10214DF22F60B0
:1045F00001F038FD03214DF2306001F033FD33212D
:104600004DF2316001F02EFD03214DF2326001F0D8
:1046100029FD6D214DF2336001F024FD55214FF449
:10462000704001F01FFDAA214FF2010001F01AFDB8
:1046300052214FF2020001F015FD08214FF2030054
:1046400001F010FD00214FF2040001F00BFDCC2120
:104650004FF4314001F006FD00214BF2011001F052
:1046600001FD05214FF4364001F0FCFC70214FF4B0
:10467000374001F0F7FC70214BF2017001F0F2FCC1
:1046800001214FF4384001F0EDFC03214BF601000D
:1046900001F0E8FC03214BF6020001F0E3FC0321EA
:1046A0004BF6030001F0DEFC02214FF43C4001F028
:1046B000D9FC00214BF6014001F0D4FC00214BF65F
:1046C000024001F0CFFCD0214FF4494001F0CAFC78
:1046D00002214CF6011001F0C5FC50214CF60210ED
:1046E00001F0C0FC50214CF6031001F0BBFC50213E
:1046F0004CF6041001F0B6FC00214FF4545001F0C8
:10470000B1FC55214FF4685001F0ACFC4FF48850D7
:1047100000904FF080701549086140000861BDF8B5
:104720000000134908604FF4000010490861802020
:1047300008618000086100BF7820FDF77FF94FF421
:10474000245000904FF080700849086140000861D3
:10475000BDF80000064908604FF4000003490861F5
:10476000802008618000086100BF08BD0010014082
:104770000C0C014008B5E22000904FF08070D64943
:10478000086140000861BDF80000D44908604FF49A
:104790000000D1490861802008618000086100BFE5
:1047A0001D2001F04BFC022001F048FC042001F028
:1047B00045FC6420FDF742F9E02000904FF0807046
:1047C000C549086140000861BDF80000C3490860A0
:1047D0004FF40000C0490861802008618000086132
:1047E00000BF012001F02AFC0A20FDF70BF9E020B0
:1047F00000904FF08070B849086140000861BDF832
:104800000000B64908604FF40000B34908618020F9
:1048100008618000086100BF032001F00FFC0C203C
:10482000FDF7F0F8012000900006AB490861400058
:104830000861BDF80000A94908604FF40000A649CE
:104840000861802008618000086100BF0A20FDF730
:10485000D9F8E62000904FF080709F490861400031
:104860000861BDF800009D4908604FF400009A49B6
:104870000861802008618000086100BF2F2001F0DE
:10488000DDFBFF2001F0DAFBFF2001F0D7FBB020B9
:1048900000904FF080709049086140000861BDF8B9
:1048A00000008E4908604FF400008B4908618020A9
:1048B00008618000086100BF202001F0BFFB0020DC
:1048C00001F0BCFB032001F0B9FB40F21F3001F006
:1048D000B5FB012001F0B2FB40F2DF1001F0AEFBAE
:1048E000002001F0ABFBB42000904FF080707A49BB
:1048F000086140000861BDF80000784908604FF485
:10490000000075490861802008618000086100BFCF
:10491000042001F093FB40F21F4001F08FFB0020C8
:1049200001F08CFB2E2001F089FB002001F086FBBA
:10493000002001F083FB002001F080FB002001F04B
:104940007DFBB62000904FF0807063490861400005
:104950000861BDF80000614908604FF400005E493D
:104960000861802008618000086100BF022001F01A
:1049700065FB4FF4037001F061FB002001F05EFB6A
:10498000172001F05BFB152001F058FB002001F01F
:1049900055FB002001F052FBF02000904FF080709A
:1049A0004D49086140000861BDF800004B490860AE
:1049B0004FF40000484908618020086180000861C8
:1049C00000BF032001F03AFB292000904FF08070D7
:1049D0004149086140000861BDF800003F49086096
:1049E0004FF400003C4908618020086180000861A4
:1049F00000BFD02000904FF0807008614000086137
:104A0000BDF80000354908604FF4000032490861E4
:104A1000802008618000086100BF002001F00EFBCB
:104A2000BE2000904FF080702B4908614000086163
:104A3000BDF80000294908604FF4000026490861CC
:104A4000802008618000086100BF052001F0F6FAAF
:104A5000FE2001F0F3FA012001F0F0FA002001F04D
:104A6000EDFA002001F0EAFA002001F0E7FAB820A0
:104A700000904FF080701849086140000861BDF84F
:104A80000000164908604FF40000134908618020B7
:104A900008618000086100BF032001F0CFFA012007
:104AA00001F0CCFABA2000904FF080700A490861FA
:104AB00040000861BDF80000084908604FF400009C
:104AC00005490861802008618000086100BF01205D
:104AD00001F0B4FA08BD0000001001400C0C0140C8
:104AE00008B5112000904FF08070FE490861400029
:104AF0000861BDF80000FC4908604FF40000F94966
:104B00000861802008618000086100BF7820FCF700
:104B100079FF362000904FF08070F2490861400024
:104B20000861BDF80000F04908604FF40000ED494D
:104B30000861802008618000086100BF002001F04A
:104B40007DFA3A2000904FF08070E64908614000FD
:104B50000861BDF80000E44908604FF40000E14935
:104B60000861802008618000086100BF052001F015
:104B700065FAB22000904FF08070DA490861400079
:104B80000861BDF80000D84908604FF40000D5491D
:104B90000861802008618000086100BF0C2001F0DE
:104BA0004DFA0C2001F04AFA002001F047FA3320B8
:104BB00001F044FA332001F041FAB72000904FF0A1
:104BC0008070C849086140000861BDF80000C6490E
:104BD00008604FF40000C34908618020086180002C
:104BE000086100BF352001F029FABB2000904FF08A
:104BF0008070BC49086140000861BDF80000BA49F6
:104C000008604FF40000B749086180200861800007
:104C1000086100BF322001F011FAC02000904FF06F
:104C20008070B049086140000861BDF80000AE49DD
:104C300008604FF40000AB490861802008618000E3
:104C4000086100BF0C2001F0F9F9C22000904FF07C
:104C50008070A449086140000861BDF80000A249C5
:104C600008604FF400009F490861802008618000BF
:104C7000086100BF012001F0E1F9C32000904FF06E
:104C800080709849086140000861BDF800009649AD
:104C900008604FF40000934908618020086180009B
:104CA000086100BF102001F0C9F9C42000904FF046
:104CB00080708C49086140000861BDF800008A4995
:104CC00008604FF400008749086180200861800077
:104CD000086100BF202001F0B1F9C62000904FF01C
:104CE00080708049086140000861BDF800007E497D
:104CF00008604FF400007B49086180200861800053
:104D0000086100BF0F2001F099F9D02000904FF00A
:104D100080707449086140000861BDF80000724964
:104D200008604FF400006F4908618020086180002E
:104D3000086100BFA42001F081F9A12001F07EF9F3
:104D4000E02000904FF080706649086140000861E3
:104D5000BDF80000644908604FF400006149086133
:104D6000802008618000086100BFD02001F066F952
:104D7000002001F063F9022001F060F9072001F042
:104D80005DF90A2001F05AF9282001F057F9322084
:104D900001F054F9442001F051F9422001F04EF99C
:104DA000062001F04BF90E2001F048F9122001F025
:104DB00045F9142001F042F9172001F03FF9E120F4
:104DC00000904FF080704749086140000861BDF8CD
:104DD0000000454908604FF4000042490861802006
:104DE00008618000086100BFD02001F027F9002091
:104DF00001F024F9022001F021F9072001F01EF949
:104E00000A2001F01BF9282001F018F9312001F0E7
:104E100015F9542001F012F9472001F00FF90E2086
:104E200001F00CF91C2001F009F9172001F006F936
:104E30001B2001F003F91E2001F000F92A20009048
:104E40004FF080702749086140000861BDF80000FC
:104E5000254908604FF4000022490861802008615C
:104E60008000086100BF002001F0E8F8002001F098
:104E7000E5F8002001F0E2F8EF2001F0DFF82B2048
:104E800000904FF080701749086140000861BDF83C
:104E90000000154908604FF40000124908618020A5
:104EA00008618000086100BF002001F0C7F8002001
:104EB00001F0C4F8012001F0C1F83F2001F0BEF874
:104EC000292000904FF08070064908614000086179
:104ED000BDF80000044908604FF400000149086172
:104EE000802003E0001001400C0C014008618000AC
:104EF000086100BF08BD000000B585B000BF00BF5D
:104F0000FE48806940F01000FC49886108468069CD
:104F100000F01000009000BF00BF00BF00BF00BF46
:104F20000846806940F0100088610846806900F0FA
:104F30001000009000BF00BF00BF00BF00BF0846C8
:104F4000806940F0100088610846806900F0100018
:104F5000009000BF00BF00BF00BF00BF08468069CF
:104F600040F0100088610846806900F01000009051
:104F700000BF00BF00BF00BF00BF0846806940F00F
:104F8000100088610846806900F01000009000BFA2
:104F900000BF00BF00BF00BF0846806940F00800A6
:104FA00088610846806900F00800009000BF00BFDB
:104FB00000BF00BF0846806940F0010088610846D4
:104FC000806900F00100009000BF00BF00BFCC4925
:104FD000486820F0E06040F00070486000BF0815AD
:104FE00001900120029003900320049001A9C5487C
:104FF000FBF7BEFB4FF4007001900120029003907C
:105000000320049001A9BF48FBF7B2FB8020019068
:1050100001A9BC48FBF7ACFB4020019001A9B948AD
:10502000FBF7A6FB4FF48070019001A9B548FBF790
:105030009FFB4FF6FF7001900120029001A9B2483A
:10504000FBF796FB8020AF49086140200861C00053
:105050000861401008614FF6FF70AB490C310860E1
:10506000AA4800F0A1F9D32000904FF08070A54924
:10507000086140000861BDF80000A3490C310860D8
:105080004FF400009F49086180200861800008619A
:1050900000BF00F08FF99E49888000F08BF99C4991
:1050A000888000F087F99A498880084680884FF602
:1050B000FF7101EA00209649888000F07BF994494D
:1050C00089880843924988800846808849F241319E
:1050D00088427DD00420009080058A490861400004
:1050E0000861BDF8000088490C3108604FF40000E9
:1050F00084490861802008618000086100BF00F0D9
:1051000059F98349888000F055F98149888000F079
:1051100051F97F498880084680884FF6FF7101EA7F
:1051200000207B49888000F045F979498988084347
:10513000774988800846808848F25251884203D1D6
:1051400047F28970724988807148808847F2897176
:105150008842BED0D42000904FF080706949086129
:1051600040000861BDF8000067490C3108604FF449
:10517000000064490861802008618000086100BF68
:1051800000F018F96249888000F014F960498880BD
:1051900000F010F95E498880084680884FF6FF715C
:1051A00001EA00205A49888000F004F958498988AA
:1051B0000843574988800846808845F21031884264
:1051C00087D055214FF4704000F04CFFAA2100E039
:1051D00092E04FF2010000F045FF52214FF2020031
:1051E00000F040FF08214FF2030000F03BFF0121D7
:1051F0004FF2040000F036FF4FF4454000904FF0AE
:1052000080704049086140000861BDF800003E49D7
:105210000C3108604FF400003A49086180200861B1
:105220008000086100BF00F0C5F839498880084651
:1052300080884FF6FF7101EA0020354988804CF2E2
:105240000150009000062F49086140000861BDF838
:1052500000002D490C3108604FF400002949086115
:10526000802008618000086100BF00F0A3F8284991
:1052700089880843264988800520FCF7C3FB244819
:10528000808845F21051884236D0A12000904FF01E
:1052900080701C49086140000861BDF800001A498F
:1052A0000C3108604FF40000164908618020086145
:1052B0008000086100BF00F07DF81549888000F08B
:1052C00079F813498880084680884FF6FF7101EA13
:1052D00000200F49888000F06DF80D498988084347
:1052E0000B4988800846808845F26171884203D165
:1052F00041F663100649888005480BE00010024023
:105300000000014000100140000C0140FFFF0100BF
:105310002C01002081881FA0FAF77EFF204880889A
:1053200047F28971884202D1FFF7DAFB25E01C4879
:10533000808849F24131884202D1FCF7BFFC1CE071
:105340001748808845F21031884202D1FCF762FF8D
:1053500013E01348808845F21051884202D1FEF7CD
:1053600063FA0AE00E48808841F66311884204D14E
:10537000FFF700FA642000F0DDFD0020FCF7D2FB0F
:105380004FF48060074908614FF6FF70FCF78AFB15
:1053900005B000BD4C43442049443A25780D0A002D
:1053A0002C0100200010014000BF011EA0F10100EF
:1053B000FBD1704700B585B04FF6FF70009000201C
:1053C0000190012002900320039069461148FBF7E9
:1053D000CFF94FF480701049086140040861C01093
:1053E00008610C480830006880B2049040200861D1
:1053F000C00008614FF6FF700090012001900290FC
:105400000320039069460348FBF7B2F9BDF810008A
:1054100005B000BD000C014000100140F8B5054684
:1054200000240027FE488079012805D1FC488088A7
:1054300041F66311884208D1F9488079F0B9F848FB
:10544000808841F66311884218D1082D15D2DFE813
:1054500005F00406080A0C0E101206250DE00725BB
:105460000BE0042509E0052507E0012505E00025FE
:1054700003E0032501E0022500BF00BF082D1CD278
:10548000DFE805F00406090C0F12151800BF14E040
:1054900044F0800411E044F040040EE044F0C00405
:1054A0000BE044F0200408E044F0600405E044F020
:1054B000A00402E044F0E00400BF00BF3627D84853
:1054C000808845F21051884200D13F02D44880883C
:1054D00049F24131884205D0D148808847F289712C
:1054E000884201D144F008042146384600F0BAFD54
:1054F000CB48808841F6631188421DD004F020001B
:1055000068B1C7480088C6494988884214DAC44847
:1055100006884088C2490880084646800CE0C0489A
:105520000088BF494988884206DDBD480688408812
:10553000BB49088008464680B948808845F210512A
:1055400088427DD1B648408900904FF08070B549BF
:10555000086140000861BDF80000B34908604FF4DD
:105560000000B0490861802008618000086100BF28
:1055700040100861400408610020AB4908604FF406
:105580000000A84908618020086180000861A448E3
:105590004089401C80B200904FF08070086140004C
:1055A0000861BDF80000A04908604FF400009D4963
:1055B0000861802008618000086100BF4010086118
:1055C000400408610020984908604FF400009549A4
:1055D0000861802008618000086191484089801C32
:1055E00080B200904FF08070086140000861BDF803
:1055F00000008D4908604FF400008A49086180204E
:1056000008618000086100BF401008614004086123
:1056100083480088401E0012834908604FF4000050
:105620008049086180200861800008617C484089C9
:10563000C01C80B200904FF080700861400000E014
:10564000BCE00861BDF80000774908604FF4000035
:1056500074490861802008618000086100BF401023
:105660000861400408616E480078401EC0B26E496F
:1056700008604FF400006B490861802008618000D9
:1056800008616748808900904FF080700861400091
:105690000861BDF80000644908604FF400006149EA
:1056A0000861802008618000086100BF4010086127
:1056B0004004086100205C4908604FF4000059492B
:1056C0000861802008618000086155488089401C7D
:1056D00080B200904FF08070086140000861BDF812
:1056E0000000514908604FF400004E4908618020D5
:1056F00008618000086100BF401008614004086133
:105700000020494908604FF40000464908618020A4
:1057100008618000086142488089801C80B2009046
:105720004FF08070086140000861BDF800003E49FC
:1057300008604FF400003B49086180200861800048
:10574000086100BF40100861400408613448408887
:10575000401E0012344908604FF4000031490861CE
:1057600080200861800008612D488089C01C80B2BB
:1057700000904FF08070086140000861BDF80000A3
:10578000294908604FF4000026490861802008611B
:105790008000086100BF4010086140040861204893
:1057A0008078401EC0B2204908604FF400001D49B7
:1057B00008618020086180000861B5E018484089D0
:1057C00000904FF080701749086140000861BDF8F3
:1057D0000000154908604FF400001249086180205C
:1057E00008618000086100BF401008614004086142
:1057F00000200D4908604FF400000A49086180202C
:1058000008618000086140100861400408610020C0
:10581000054908604FF4000002490861802005E056
:105820002C010020001001400C0C01400861800098
:10583000086140100861400408613C480088401E2F
:1058400000123B4908604FF400003A49086180208B
:105850000861800008614010086140040861334815
:105860000078401EC0B2324908604FF40000314950
:10587000086180200861800008612C4880890090C0
:105880004FF08070086140000861BDF800002849B1
:1058900008604FF4000027490861802008618000FB
:1058A000086100BF401008614004086100202049E1
:1058B00008604FF400001F490861802008618000E3
:1058C0000861401008614004086100201849086020
:1058D0004FF40000174908618020086180000861CA
:1058E000401008614004086110484088401E0012C2
:1058F0000F4908604FF400000E49086180200861DC
:105900008000086140100861400408610748807801
:10591000401EC0B2064908604FF400000549086106
:105920008020086180000861F8BD00002C01002083
:105930000C0C01400010014008B5FE4A928841F667
:1059400063139A427ED1FB4A9279002A57D1F94AD1
:105950001288521E121A90B2F64A528900924FF0E3
:105960008072F54B1A6152001A61BDF80020F34BAA
:105970001A604FF40002F04B1A6180221A61920003
:105980001A6100BF52101A6152041A610022EB4BD7
:105990001A604FF40002E84B1A6180221A619200EB
:1059A0001A6152101A6152041A610022E34B1A6004
:1059B0004FF40002E04B1A6180221A6192001A61D2
:1059C00052101A6152041A610212DC4B1A604FF431
:1059D0000002D94B1A6180221A6192001A6152109A
:1059E0001A6152041A61C2B2D44B1A604FF4000219
:1059F000D14B1A6180221A6192001A6159E0CD4A96
:105A0000528900924FF08072CB4B1A6152001A619A
:105A1000BDF80020C94B1A604FF40002C64B1A6152
:105A200080221A6192001A6100BF52101A6152045A
:105A30001A610212C14B1A604FF40002BE4B1A6188
:105A4000802200E08EE01A6192001A6152101A6101
:105A500052041A61C2B2B94B1A604FF40002B64B3D
:105A60001A6180221A6192001A6152101A6152045E
:105A70001A61B04A1288521E1212B04B1A604FF4CB
:105A80000002AD4B1A6180221A6192001A61521015
:105A90001A6152041A61A74A1278521ED2B2A74B59
:105AA0001A604FF40002A44B1A6180221A6192001E
:105AB0001A61A04A928900924FF080729E4B1A613F
:105AC00052001A61BDF800209C4B1A604FF400028E
:105AD000994B1A6180221A6192001A6100BF52101C
